{
	"send receive/sender.sol": {
		"Sender": {
			"abi": [
				{
					"inputs": [
						{
							"internalType": "address",
							"name": "_router",
							"type": "address"
						},
						{
							"internalType": "address",
							"name": "_link",
							"type": "address"
						}
					],
					"stateMutability": "nonpayable",
					"type": "constructor"
				},
				{
					"inputs": [
						{
							"internalType": "uint64",
							"name": "destinationChainSelector",
							"type": "uint64"
						}
					],
					"name": "DestinationChainNotAllowlisted",
					"type": "error"
				},
				{
					"inputs": [],
					"name": "InvalidReceiverAddress",
					"type": "error"
				},
				{
					"anonymous": false,
					"inputs": [
						{
							"indexed": true,
							"internalType": "bytes32",
							"name": "messageId",
							"type": "bytes32"
						},
						{
							"indexed": true,
							"internalType": "uint64",
							"name": "destinationChainSelector",
							"type": "uint64"
						},
						{
							"indexed": false,
							"internalType": "address",
							"name": "receiver",
							"type": "address"
						},
						{
							"indexed": false,
							"internalType": "uint256",
							"name": "iterations",
							"type": "uint256"
						},
						{
							"indexed": false,
							"internalType": "address",
							"name": "feeToken",
							"type": "address"
						},
						{
							"indexed": false,
							"internalType": "uint256",
							"name": "fees",
							"type": "uint256"
						}
					],
					"name": "MessageSent",
					"type": "event"
				},
				{
					"anonymous": false,
					"inputs": [
						{
							"indexed": true,
							"internalType": "address",
							"name": "from",
							"type": "address"
						},
						{
							"indexed": true,
							"internalType": "address",
							"name": "to",
							"type": "address"
						}
					],
					"name": "OwnershipTransferRequested",
					"type": "event"
				},
				{
					"anonymous": false,
					"inputs": [
						{
							"indexed": true,
							"internalType": "address",
							"name": "from",
							"type": "address"
						},
						{
							"indexed": true,
							"internalType": "address",
							"name": "to",
							"type": "address"
						}
					],
					"name": "OwnershipTransferred",
					"type": "event"
				},
				{
					"inputs": [],
					"name": "acceptOwnership",
					"outputs": [],
					"stateMutability": "nonpayable",
					"type": "function"
				},
				{
					"inputs": [
						{
							"internalType": "uint64",
							"name": "_destinationChainSelector",
							"type": "uint64"
						},
						{
							"internalType": "bool",
							"name": "allowed",
							"type": "bool"
						}
					],
					"name": "allowlistDestinationChain",
					"outputs": [],
					"stateMutability": "nonpayable",
					"type": "function"
				},
				{
					"inputs": [
						{
							"internalType": "uint64",
							"name": "",
							"type": "uint64"
						}
					],
					"name": "allowlistedDestinationChains",
					"outputs": [
						{
							"internalType": "bool",
							"name": "",
							"type": "bool"
						}
					],
					"stateMutability": "view",
					"type": "function"
				},
				{
					"inputs": [],
					"name": "owner",
					"outputs": [
						{
							"internalType": "address",
							"name": "",
							"type": "address"
						}
					],
					"stateMutability": "view",
					"type": "function"
				},
				{
					"inputs": [
						{
							"internalType": "uint64",
							"name": "_destinationChainSelector",
							"type": "uint64"
						},
						{
							"internalType": "address",
							"name": "_receiver",
							"type": "address"
						},
						{
							"internalType": "uint256",
							"name": "_iterations",
							"type": "uint256"
						},
						{
							"internalType": "uint256",
							"name": "_gasLimit",
							"type": "uint256"
						}
					],
					"name": "sendMessagePayLINK",
					"outputs": [
						{
							"internalType": "bytes32",
							"name": "messageId",
							"type": "bytes32"
						}
					],
					"stateMutability": "nonpayable",
					"type": "function"
				},
				{
					"inputs": [
						{
							"internalType": "address",
							"name": "to",
							"type": "address"
						}
					],
					"name": "transferOwnership",
					"outputs": [],
					"stateMutability": "nonpayable",
					"type": "function"
				}
			],
			"devdoc": {
				"kind": "dev",
				"methods": {
					"allowlistDestinationChain(uint64,bool)": {
						"details": "Updates the allowlist status of a destination chain for transactions."
					},
					"constructor": {
						"params": {
							"_link": "The address of the link contract.",
							"_router": "The address of the router contract."
						}
					},
					"sendMessagePayLINK(uint64,address,uint256,uint256)": {
						"details": "Assumes your contract has sufficient LINK.",
						"params": {
							"_destinationChainSelector": "The identifier (aka selector) for the destination blockchain.",
							"_iterations": "The number of iterations.",
							"_receiver": "The address of the recipient on the destination blockchain."
						},
						"returns": {
							"messageId": "The ID of the CCIP message that was sent."
						}
					}
				},
				"title": "- A simple sender contract for sending/receving string data across chains.",
				"version": 1
			},
			"evm": {
				"assembly": "    /* \"send receive/sender.sol\":890:6036  contract Sender is OwnerIsCreator {... */\n  mstore(0x40, 0x80)\n    /* \"send receive/sender.sol\":2231:2350  constructor(address _router, address _link) {... */\n  callvalue\n  dup1\n  iszero\n  tag_1\n  jumpi\n  0x00\n  dup1\n  revert\ntag_1:\n  pop\n  mload(0x40)\n  sub(codesize, bytecodeSize)\n  dup1\n  bytecodeSize\n  dup4\n  codecopy\n  dup2\n  dup2\n  add\n  0x40\n  mstore\n  dup2\n  add\n  swap1\n  tag_2\n  swap2\n  swap1\n  tag_3\n  jump\t// in\ntag_2:\n    /* \"@chainlink/contracts-ccip/src/v0.8/shared/access/OwnerIsCreator.sol\":291:301  msg.sender */\n  caller\n    /* \"@chainlink/contracts-ccip/src/v0.8/shared/access/ConfirmedOwner.sol\":355:363  newOwner */\n  dup1\n    /* \"@chainlink/contracts-ccip/src/v0.8/shared/access/ConfirmedOwner.sol\":373:374  0 */\n  0x00\n    /* \"@chainlink/contracts-ccip/src/v0.8/shared/access/ConfirmedOwnerWithProposal.sol\":614:615  0 */\n  dup1\n    /* \"@chainlink/contracts-ccip/src/v0.8/shared/access/ConfirmedOwnerWithProposal.sol\":594:616  newOwner != address(0) */\n  0xffffffffffffffffffffffffffffffffffffffff\n  and\n    /* \"@chainlink/contracts-ccip/src/v0.8/shared/access/ConfirmedOwnerWithProposal.sol\":594:602  newOwner */\n  dup3\n    /* \"@chainlink/contracts-ccip/src/v0.8/shared/access/ConfirmedOwnerWithProposal.sol\":594:616  newOwner != address(0) */\n  0xffffffffffffffffffffffffffffffffffffffff\n  and\n  sub\n    /* \"@chainlink/contracts-ccip/src/v0.8/shared/access/ConfirmedOwnerWithProposal.sol\":586:645  require(newOwner != address(0), \"Cannot set owner to zero\") */\n  tag_9\n  jumpi\n  mload(0x40)\n  0x08c379a000000000000000000000000000000000000000000000000000000000\n  dup2\n  mstore\n  0x04\n  add\n  tag_10\n  swap1\n  tag_11\n  jump\t// in\ntag_10:\n  mload(0x40)\n  dup1\n  swap2\n  sub\n  swap1\n  revert\ntag_9:\n    /* \"@chainlink/contracts-ccip/src/v0.8/shared/access/ConfirmedOwnerWithProposal.sol\":662:670  newOwner */\n  dup2\n    /* \"@chainlink/contracts-ccip/src/v0.8/shared/access/ConfirmedOwnerWithProposal.sol\":652:659  s_owner */\n  0x00\n  dup1\n    /* \"@chainlink/contracts-ccip/src/v0.8/shared/access/ConfirmedOwnerWithProposal.sol\":652:670  s_owner = newOwner */\n  0x0100\n  exp\n  dup2\n  sload\n  dup2\n  0xffffffffffffffffffffffffffffffffffffffff\n  mul\n  not\n  and\n  swap1\n  dup4\n  0xffffffffffffffffffffffffffffffffffffffff\n  and\n  mul\n  or\n  swap1\n  sstore\n  pop\n    /* \"@chainlink/contracts-ccip/src/v0.8/shared/access/ConfirmedOwnerWithProposal.sol\":704:705  0 */\n  0x00\n    /* \"@chainlink/contracts-ccip/src/v0.8/shared/access/ConfirmedOwnerWithProposal.sol\":680:706  pendingOwner != address(0) */\n  0xffffffffffffffffffffffffffffffffffffffff\n  and\n    /* \"@chainlink/contracts-ccip/src/v0.8/shared/access/ConfirmedOwnerWithProposal.sol\":680:692  pendingOwner */\n  dup2\n    /* \"@chainlink/contracts-ccip/src/v0.8/shared/access/ConfirmedOwnerWithProposal.sol\":680:706  pendingOwner != address(0) */\n  0xffffffffffffffffffffffffffffffffffffffff\n  and\n  eq\n    /* \"@chainlink/contracts-ccip/src/v0.8/shared/access/ConfirmedOwnerWithProposal.sol\":676:755  if (pendingOwner != address(0)) {... */\n  tag_12\n  jumpi\n    /* \"@chainlink/contracts-ccip/src/v0.8/shared/access/ConfirmedOwnerWithProposal.sol\":716:748  _transferOwnership(pendingOwner) */\n  tag_13\n    /* \"@chainlink/contracts-ccip/src/v0.8/shared/access/ConfirmedOwnerWithProposal.sol\":735:747  pendingOwner */\n  dup2\n    /* \"@chainlink/contracts-ccip/src/v0.8/shared/access/ConfirmedOwnerWithProposal.sol\":716:734  _transferOwnership */\n  shl(0x20, tag_14)\n    /* \"@chainlink/contracts-ccip/src/v0.8/shared/access/ConfirmedOwnerWithProposal.sol\":716:748  _transferOwnership(pendingOwner) */\n  0x20\n  shr\n  jump\t// in\ntag_13:\n    /* \"@chainlink/contracts-ccip/src/v0.8/shared/access/ConfirmedOwnerWithProposal.sol\":676:755  if (pendingOwner != address(0)) {... */\ntag_12:\n    /* \"@chainlink/contracts-ccip/src/v0.8/shared/access/ConfirmedOwnerWithProposal.sol\":481:759  constructor(address newOwner, address pendingOwner) {... */\n  pop\n  pop\n    /* \"@chainlink/contracts-ccip/src/v0.8/shared/access/ConfirmedOwner.sol\":298:379  constructor(address newOwner) ConfirmedOwnerWithProposal(newOwner, address(0)) {} */\n  pop\n    /* \"send receive/sender.sol\":2307:2312  _link */\n  dup1\n    /* \"send receive/sender.sol\":2286:2297  s_linkToken */\n  0x03\n  0x00\n    /* \"send receive/sender.sol\":2286:2313  s_linkToken = IERC20(_link) */\n  0x0100\n  exp\n  dup2\n  sload\n  dup2\n  0xffffffffffffffffffffffffffffffffffffffff\n  mul\n  not\n  and\n  swap1\n  dup4\n  0xffffffffffffffffffffffffffffffffffffffff\n  and\n  mul\n  or\n  swap1\n  sstore\n  pop\n    /* \"send receive/sender.sol\":2335:2342  _router */\n  dup2\n    /* \"send receive/sender.sol\":2324:2332  s_router */\n  0x04\n  0x00\n    /* \"send receive/sender.sol\":2324:2342  s_router = _router */\n  0x0100\n  exp\n  dup2\n  sload\n  dup2\n  0xffffffffffffffffffffffffffffffffffffffff\n  mul\n  not\n  and\n  swap1\n  dup4\n  0xffffffffffffffffffffffffffffffffffffffff\n  and\n  mul\n  or\n  swap1\n  sstore\n  pop\n    /* \"send receive/sender.sol\":2231:2350  constructor(address _router, address _link) {... */\n  pop\n  pop\n    /* \"send receive/sender.sol\":890:6036  contract Sender is OwnerIsCreator {... */\n  jump(tag_18)\n    /* \"@chainlink/contracts-ccip/src/v0.8/shared/access/ConfirmedOwnerWithProposal.sol\":1528:1763  function _transferOwnership(address to) private {... */\ntag_14:\n    /* \"@chainlink/contracts-ccip/src/v0.8/shared/access/ConfirmedOwnerWithProposal.sol\":1643:1653  msg.sender */\n  caller\n    /* \"@chainlink/contracts-ccip/src/v0.8/shared/access/ConfirmedOwnerWithProposal.sol\":1637:1653  to != msg.sender */\n  0xffffffffffffffffffffffffffffffffffffffff\n  and\n    /* \"@chainlink/contracts-ccip/src/v0.8/shared/access/ConfirmedOwnerWithProposal.sol\":1637:1639  to */\n  dup2\n    /* \"@chainlink/contracts-ccip/src/v0.8/shared/access/ConfirmedOwnerWithProposal.sol\":1637:1653  to != msg.sender */\n  0xffffffffffffffffffffffffffffffffffffffff\n  and\n  sub\n    /* \"@chainlink/contracts-ccip/src/v0.8/shared/access/ConfirmedOwnerWithProposal.sol\":1629:1681  require(to != msg.sender, \"Cannot transfer to self\") */\n  tag_20\n  jumpi\n  mload(0x40)\n  0x08c379a000000000000000000000000000000000000000000000000000000000\n  dup2\n  mstore\n  0x04\n  add\n  tag_21\n  swap1\n  tag_22\n  jump\t// in\ntag_21:\n  mload(0x40)\n  dup1\n  swap2\n  sub\n  swap1\n  revert\ntag_20:\n    /* \"@chainlink/contracts-ccip/src/v0.8/shared/access/ConfirmedOwnerWithProposal.sol\":1705:1707  to */\n  dup1\n    /* \"@chainlink/contracts-ccip/src/v0.8/shared/access/ConfirmedOwnerWithProposal.sol\":1688:1702  s_pendingOwner */\n  0x01\n  0x00\n    /* \"@chainlink/contracts-ccip/src/v0.8/shared/access/ConfirmedOwnerWithProposal.sol\":1688:1707  s_pendingOwner = to */\n  0x0100\n  exp\n  dup2\n  sload\n  dup2\n  0xffffffffffffffffffffffffffffffffffffffff\n  mul\n  not\n  and\n  swap1\n  dup4\n  0xffffffffffffffffffffffffffffffffffffffff\n  and\n  mul\n  or\n  swap1\n  sstore\n  pop\n    /* \"@chainlink/contracts-ccip/src/v0.8/shared/access/ConfirmedOwnerWithProposal.sol\":1755:1757  to */\n  dup1\n    /* \"@chainlink/contracts-ccip/src/v0.8/shared/access/ConfirmedOwnerWithProposal.sol\":1719:1758  OwnershipTransferRequested(s_owner, to) */\n  0xffffffffffffffffffffffffffffffffffffffff\n  and\n    /* \"@chainlink/contracts-ccip/src/v0.8/shared/access/ConfirmedOwnerWithProposal.sol\":1746:1753  s_owner */\n  0x00\n  dup1\n  sload\n  swap1\n  0x0100\n  exp\n  swap1\n  div\n  0xffffffffffffffffffffffffffffffffffffffff\n  and\n    /* \"@chainlink/contracts-ccip/src/v0.8/shared/access/ConfirmedOwnerWithProposal.sol\":1719:1758  OwnershipTransferRequested(s_owner, to) */\n  0xffffffffffffffffffffffffffffffffffffffff\n  and\n  0xed8889f560326eb138920d842192f0eb3dd22b4f139c87a2c57538e05bae1278\n  mload(0x40)\n  mload(0x40)\n  dup1\n  swap2\n  sub\n  swap1\n  log3\n    /* \"@chainlink/contracts-ccip/src/v0.8/shared/access/ConfirmedOwnerWithProposal.sol\":1528:1763  function _transferOwnership(address to) private {... */\n  pop\n  jump\t// out\n    /* \"#utility.yul\":88:205   */\ntag_24:\n    /* \"#utility.yul\":197:198   */\n  0x00\n    /* \"#utility.yul\":194:195   */\n  dup1\n    /* \"#utility.yul\":187:199   */\n  revert\n    /* \"#utility.yul\":334:460   */\ntag_26:\n    /* \"#utility.yul\":371:378   */\n  0x00\n    /* \"#utility.yul\":411:453   */\n  0xffffffffffffffffffffffffffffffffffffffff\n    /* \"#utility.yul\":404:409   */\n  dup3\n    /* \"#utility.yul\":400:454   */\n  and\n    /* \"#utility.yul\":389:454   */\n  swap1\n  pop\n    /* \"#utility.yul\":334:460   */\n  swap2\n  swap1\n  pop\n  jump\t// out\n    /* \"#utility.yul\":466:562   */\ntag_27:\n    /* \"#utility.yul\":503:510   */\n  0x00\n    /* \"#utility.yul\":532:556   */\n  tag_41\n    /* \"#utility.yul\":550:555   */\n  dup3\n    /* \"#utility.yul\":532:556   */\n  tag_26\n  jump\t// in\ntag_41:\n    /* \"#utility.yul\":521:556   */\n  swap1\n  pop\n    /* \"#utility.yul\":466:562   */\n  swap2\n  swap1\n  pop\n  jump\t// out\n    /* \"#utility.yul\":568:690   */\ntag_28:\n    /* \"#utility.yul\":641:665   */\n  tag_43\n    /* \"#utility.yul\":659:664   */\n  dup2\n    /* \"#utility.yul\":641:665   */\n  tag_27\n  jump\t// in\ntag_43:\n    /* \"#utility.yul\":634:639   */\n  dup2\n    /* \"#utility.yul\":631:666   */\n  eq\n    /* \"#utility.yul\":621:684   */\n  tag_44\n  jumpi\n    /* \"#utility.yul\":680:681   */\n  0x00\n    /* \"#utility.yul\":677:678   */\n  dup1\n    /* \"#utility.yul\":670:682   */\n  revert\n    /* \"#utility.yul\":621:684   */\ntag_44:\n    /* \"#utility.yul\":568:690   */\n  pop\n  jump\t// out\n    /* \"#utility.yul\":696:839   */\ntag_29:\n    /* \"#utility.yul\":753:758   */\n  0x00\n    /* \"#utility.yul\":784:790   */\n  dup2\n    /* \"#utility.yul\":778:791   */\n  mload\n    /* \"#utility.yul\":769:791   */\n  swap1\n  pop\n    /* \"#utility.yul\":800:833   */\n  tag_46\n    /* \"#utility.yul\":827:832   */\n  dup2\n    /* \"#utility.yul\":800:833   */\n  tag_28\n  jump\t// in\ntag_46:\n    /* \"#utility.yul\":696:839   */\n  swap3\n  swap2\n  pop\n  pop\n  jump\t// out\n    /* \"#utility.yul\":845:1352   */\ntag_3:\n    /* \"#utility.yul\":924:930   */\n  0x00\n    /* \"#utility.yul\":932:938   */\n  dup1\n    /* \"#utility.yul\":981:983   */\n  0x40\n    /* \"#utility.yul\":969:978   */\n  dup4\n    /* \"#utility.yul\":960:967   */\n  dup6\n    /* \"#utility.yul\":956:979   */\n  sub\n    /* \"#utility.yul\":952:984   */\n  slt\n    /* \"#utility.yul\":949:1068   */\n  iszero\n  tag_48\n  jumpi\n    /* \"#utility.yul\":987:1066   */\n  tag_49\n  tag_24\n  jump\t// in\ntag_49:\n    /* \"#utility.yul\":949:1068   */\ntag_48:\n    /* \"#utility.yul\":1107:1108   */\n  0x00\n    /* \"#utility.yul\":1132:1196   */\n  tag_50\n    /* \"#utility.yul\":1188:1195   */\n  dup6\n    /* \"#utility.yul\":1179:1185   */\n  dup3\n    /* \"#utility.yul\":1168:1177   */\n  dup7\n    /* \"#utility.yul\":1164:1186   */\n  add\n    /* \"#utility.yul\":1132:1196   */\n  tag_29\n  jump\t// in\ntag_50:\n    /* \"#utility.yul\":1122:1196   */\n  swap3\n  pop\n    /* \"#utility.yul\":1078:1206   */\n  pop\n    /* \"#utility.yul\":1245:1247   */\n  0x20\n    /* \"#utility.yul\":1271:1335   */\n  tag_51\n    /* \"#utility.yul\":1327:1334   */\n  dup6\n    /* \"#utility.yul\":1318:1324   */\n  dup3\n    /* \"#utility.yul\":1307:1316   */\n  dup7\n    /* \"#utility.yul\":1303:1325   */\n  add\n    /* \"#utility.yul\":1271:1335   */\n  tag_29\n  jump\t// in\ntag_51:\n    /* \"#utility.yul\":1261:1335   */\n  swap2\n  pop\n    /* \"#utility.yul\":1216:1345   */\n  pop\n    /* \"#utility.yul\":845:1352   */\n  swap3\n  pop\n  swap3\n  swap1\n  pop\n  jump\t// out\n    /* \"#utility.yul\":1358:1527   */\ntag_30:\n    /* \"#utility.yul\":1442:1453   */\n  0x00\n    /* \"#utility.yul\":1476:1482   */\n  dup3\n    /* \"#utility.yul\":1471:1474   */\n  dup3\n    /* \"#utility.yul\":1464:1483   */\n  mstore\n    /* \"#utility.yul\":1516:1520   */\n  0x20\n    /* \"#utility.yul\":1511:1514   */\n  dup3\n    /* \"#utility.yul\":1507:1521   */\n  add\n    /* \"#utility.yul\":1492:1521   */\n  swap1\n  pop\n    /* \"#utility.yul\":1358:1527   */\n  swap3\n  swap2\n  pop\n  pop\n  jump\t// out\n    /* \"#utility.yul\":1533:1707   */\ntag_31:\n    /* \"#utility.yul\":1673:1699   */\n  0x43616e6e6f7420736574206f776e657220746f207a65726f0000000000000000\n    /* \"#utility.yul\":1669:1670   */\n  0x00\n    /* \"#utility.yul\":1661:1667   */\n  dup3\n    /* \"#utility.yul\":1657:1671   */\n  add\n    /* \"#utility.yul\":1650:1700   */\n  mstore\n    /* \"#utility.yul\":1533:1707   */\n  pop\n  jump\t// out\n    /* \"#utility.yul\":1713:2079   */\ntag_32:\n    /* \"#utility.yul\":1855:1858   */\n  0x00\n    /* \"#utility.yul\":1876:1943   */\n  tag_55\n    /* \"#utility.yul\":1940:1942   */\n  0x18\n    /* \"#utility.yul\":1935:1938   */\n  dup4\n    /* \"#utility.yul\":1876:1943   */\n  tag_30\n  jump\t// in\ntag_55:\n    /* \"#utility.yul\":1869:1943   */\n  swap2\n  pop\n    /* \"#utility.yul\":1952:2045   */\n  tag_56\n    /* \"#utility.yul\":2041:2044   */\n  dup3\n    /* \"#utility.yul\":1952:2045   */\n  tag_31\n  jump\t// in\ntag_56:\n    /* \"#utility.yul\":2070:2072   */\n  0x20\n    /* \"#utility.yul\":2065:2068   */\n  dup3\n    /* \"#utility.yul\":2061:2073   */\n  add\n    /* \"#utility.yul\":2054:2073   */\n  swap1\n  pop\n    /* \"#utility.yul\":1713:2079   */\n  swap2\n  swap1\n  pop\n  jump\t// out\n    /* \"#utility.yul\":2085:2504   */\ntag_11:\n    /* \"#utility.yul\":2251:2255   */\n  0x00\n    /* \"#utility.yul\":2289:2291   */\n  0x20\n    /* \"#utility.yul\":2278:2287   */\n  dup3\n    /* \"#utility.yul\":2274:2292   */\n  add\n    /* \"#utility.yul\":2266:2292   */\n  swap1\n  pop\n    /* \"#utility.yul\":2338:2347   */\n  dup2\n    /* \"#utility.yul\":2332:2336   */\n  dup2\n    /* \"#utility.yul\":2328:2348   */\n  sub\n    /* \"#utility.yul\":2324:2325   */\n  0x00\n    /* \"#utility.yul\":2313:2322   */\n  dup4\n    /* \"#utility.yul\":2309:2326   */\n  add\n    /* \"#utility.yul\":2302:2349   */\n  mstore\n    /* \"#utility.yul\":2366:2497   */\n  tag_58\n    /* \"#utility.yul\":2492:2496   */\n  dup2\n    /* \"#utility.yul\":2366:2497   */\n  tag_32\n  jump\t// in\ntag_58:\n    /* \"#utility.yul\":2358:2497   */\n  swap1\n  pop\n    /* \"#utility.yul\":2085:2504   */\n  swap2\n  swap1\n  pop\n  jump\t// out\n    /* \"#utility.yul\":2510:2683   */\ntag_33:\n    /* \"#utility.yul\":2650:2675   */\n  0x43616e6e6f74207472616e7366657220746f2073656c66000000000000000000\n    /* \"#utility.yul\":2646:2647   */\n  0x00\n    /* \"#utility.yul\":2638:2644   */\n  dup3\n    /* \"#utility.yul\":2634:2648   */\n  add\n    /* \"#utility.yul\":2627:2676   */\n  mstore\n    /* \"#utility.yul\":2510:2683   */\n  pop\n  jump\t// out\n    /* \"#utility.yul\":2689:3055   */\ntag_34:\n    /* \"#utility.yul\":2831:2834   */\n  0x00\n    /* \"#utility.yul\":2852:2919   */\n  tag_61\n    /* \"#utility.yul\":2916:2918   */\n  0x17\n    /* \"#utility.yul\":2911:2914   */\n  dup4\n    /* \"#utility.yul\":2852:2919   */\n  tag_30\n  jump\t// in\ntag_61:\n    /* \"#utility.yul\":2845:2919   */\n  swap2\n  pop\n    /* \"#utility.yul\":2928:3021   */\n  tag_62\n    /* \"#utility.yul\":3017:3020   */\n  dup3\n    /* \"#utility.yul\":2928:3021   */\n  tag_33\n  jump\t// in\ntag_62:\n    /* \"#utility.yul\":3046:3048   */\n  0x20\n    /* \"#utility.yul\":3041:3044   */\n  dup3\n    /* \"#utility.yul\":3037:3049   */\n  add\n    /* \"#utility.yul\":3030:3049   */\n  swap1\n  pop\n    /* \"#utility.yul\":2689:3055   */\n  swap2\n  swap1\n  pop\n  jump\t// out\n    /* \"#utility.yul\":3061:3480   */\ntag_22:\n    /* \"#utility.yul\":3227:3231   */\n  0x00\n    /* \"#utility.yul\":3265:3267   */\n  0x20\n    /* \"#utility.yul\":3254:3263   */\n  dup3\n    /* \"#utility.yul\":3250:3268   */\n  add\n    /* \"#utility.yul\":3242:3268   */\n  swap1\n  pop\n    /* \"#utility.yul\":3314:3323   */\n  dup2\n    /* \"#utility.yul\":3308:3312   */\n  dup2\n    /* \"#utility.yul\":3304:3324   */\n  sub\n    /* \"#utility.yul\":3300:3301   */\n  0x00\n    /* \"#utility.yul\":3289:3298   */\n  dup4\n    /* \"#utility.yul\":3285:3302   */\n  add\n    /* \"#utility.yul\":3278:3325   */\n  mstore\n    /* \"#utility.yul\":3342:3473   */\n  tag_64\n    /* \"#utility.yul\":3468:3472   */\n  dup2\n    /* \"#utility.yul\":3342:3473   */\n  tag_34\n  jump\t// in\ntag_64:\n    /* \"#utility.yul\":3334:3473   */\n  swap1\n  pop\n    /* \"#utility.yul\":3061:3480   */\n  swap2\n  swap1\n  pop\n  jump\t// out\n    /* \"send receive/sender.sol\":890:6036  contract Sender is OwnerIsCreator {... */\ntag_18:\n  dataSize(sub_0)\n  dup1\n  dataOffset(sub_0)\n  0x00\n  codecopy\n  0x00\n  return\nstop\n\nsub_0: assembly {\n        /* \"send receive/sender.sol\":890:6036  contract Sender is OwnerIsCreator {... */\n      mstore(0x40, 0x80)\n      callvalue\n      dup1\n      iszero\n      tag_1\n      jumpi\n      0x00\n      dup1\n      revert\n    tag_1:\n      pop\n      jumpi(tag_2, lt(calldatasize, 0x04))\n      shr(0xe0, calldataload(0x00))\n      dup1\n      0x7361d661\n      eq\n      tag_3\n      jumpi\n      dup1\n      0x75c67c66\n      eq\n      tag_4\n      jumpi\n      dup1\n      0x79ba5097\n      eq\n      tag_5\n      jumpi\n      dup1\n      0x8da5cb5b\n      eq\n      tag_6\n      jumpi\n      dup1\n      0x96d3b83d\n      eq\n      tag_7\n      jumpi\n      dup1\n      0xf2fde38b\n      eq\n      tag_8\n      jumpi\n    tag_2:\n      0x00\n      dup1\n      revert\n        /* \"send receive/sender.sol\":3832:6033  function sendMessagePayLINK(... */\n    tag_3:\n      tag_9\n      0x04\n      dup1\n      calldatasize\n      sub\n      dup2\n      add\n      swap1\n      tag_10\n      swap2\n      swap1\n      tag_11\n      jump\t// in\n    tag_10:\n      tag_12\n      jump\t// in\n    tag_9:\n      mload(0x40)\n      tag_13\n      swap2\n      swap1\n      tag_14\n      jump\t// in\n    tag_13:\n      mload(0x40)\n      dup1\n      swap2\n      sub\n      swap1\n      return\n        /* \"send receive/sender.sol\":1902:1961  mapping(uint64 => bool) public allowlistedDestinationChains */\n    tag_4:\n      tag_15\n      0x04\n      dup1\n      calldatasize\n      sub\n      dup2\n      add\n      swap1\n      tag_16\n      swap2\n      swap1\n      tag_17\n      jump\t// in\n    tag_16:\n      tag_18\n      jump\t// in\n    tag_15:\n      mload(0x40)\n      tag_19\n      swap2\n      swap1\n      tag_20\n      jump\t// in\n    tag_19:\n      mload(0x40)\n      dup1\n      swap2\n      sub\n      swap1\n      return\n        /* \"@chainlink/contracts-ccip/src/v0.8/shared/access/ConfirmedOwnerWithProposal.sol\":1022:1334  function acceptOwnership() external override {... */\n    tag_5:\n      tag_21\n      tag_22\n      jump\t// in\n    tag_21:\n      stop\n        /* \"@chainlink/contracts-ccip/src/v0.8/shared/access/ConfirmedOwnerWithProposal.sol\":1374:1455  function owner() public view override returns (address) {... */\n    tag_6:\n      tag_23\n      tag_24\n      jump\t// in\n    tag_23:\n      mload(0x40)\n      tag_25\n      swap2\n      swap1\n      tag_26\n      jump\t// in\n    tag_25:\n      mload(0x40)\n      dup1\n      swap2\n      sub\n      swap1\n      return\n        /* \"send receive/sender.sol\":3138:3349  function allowlistDestinationChain(... */\n    tag_7:\n      tag_27\n      0x04\n      dup1\n      calldatasize\n      sub\n      dup2\n      add\n      swap1\n      tag_28\n      swap2\n      swap1\n      tag_29\n      jump\t// in\n    tag_28:\n      tag_30\n      jump\t// in\n    tag_27:\n      stop\n        /* \"@chainlink/contracts-ccip/src/v0.8/shared/access/ConfirmedOwnerWithProposal.sol\":843:941  function transferOwnership(address to) public override onlyOwner {... */\n    tag_8:\n      tag_31\n      0x04\n      dup1\n      calldatasize\n      sub\n      dup2\n      add\n      swap1\n      tag_32\n      swap2\n      swap1\n      tag_33\n      jump\t// in\n    tag_32:\n      tag_34\n      jump\t// in\n    tag_31:\n      stop\n        /* \"send receive/sender.sol\":3832:6033  function sendMessagePayLINK(... */\n    tag_12:\n        /* \"send receive/sender.sol\":4156:4173  bytes32 messageId */\n      0x00\n        /* \"@chainlink/contracts-ccip/src/v0.8/shared/access/ConfirmedOwnerWithProposal.sol\":2059:2079  _validateOwnership() */\n      tag_36\n        /* \"@chainlink/contracts-ccip/src/v0.8/shared/access/ConfirmedOwnerWithProposal.sol\":2059:2077  _validateOwnership */\n      tag_37\n        /* \"@chainlink/contracts-ccip/src/v0.8/shared/access/ConfirmedOwnerWithProposal.sol\":2059:2079  _validateOwnership() */\n      jump\t// in\n    tag_36:\n        /* \"send receive/sender.sol\":4074:4099  _destinationChainSelector */\n      dup5\n        /* \"send receive/sender.sol\":2634:2662  allowlistedDestinationChains */\n      0x02\n        /* \"send receive/sender.sol\":2634:2689  allowlistedDestinationChains[_destinationChainSelector] */\n      0x00\n        /* \"send receive/sender.sol\":2663:2688  _destinationChainSelector */\n      dup3\n        /* \"send receive/sender.sol\":2634:2689  allowlistedDestinationChains[_destinationChainSelector] */\n      0xffffffffffffffff\n      and\n      0xffffffffffffffff\n      and\n      dup2\n      mstore\n      0x20\n      add\n      swap1\n      dup2\n      mstore\n      0x20\n      add\n      0x00\n      keccak256\n      0x00\n      swap1\n      sload\n      swap1\n      0x0100\n      exp\n      swap1\n      div\n      0xff\n      and\n        /* \"send receive/sender.sol\":2629:2768  if (!allowlistedDestinationChains[_destinationChainSelector])... */\n      tag_39\n      jumpi\n        /* \"send receive/sender.sol\":2742:2767  _destinationChainSelector */\n      dup1\n        /* \"send receive/sender.sol\":2711:2768  DestinationChainNotAllowlisted(_destinationChainSelector) */\n      mload(0x40)\n      0x0a503cdb00000000000000000000000000000000000000000000000000000000\n      dup2\n      mstore\n      0x04\n      add\n      tag_40\n      swap2\n      swap1\n      tag_41\n      jump\t// in\n    tag_40:\n      mload(0x40)\n      dup1\n      swap2\n      sub\n      swap1\n      revert\n        /* \"send receive/sender.sol\":2629:2768  if (!allowlistedDestinationChains[_destinationChainSelector])... */\n    tag_39:\n        /* \"send receive/sender.sol\":4127:4136  _receiver */\n      dup5\n        /* \"send receive/sender.sol\":2991:2992  0 */\n      0x00\n        /* \"send receive/sender.sol\":2970:2993  _receiver == address(0) */\n      0xffffffffffffffffffffffffffffffffffffffff\n      and\n        /* \"send receive/sender.sol\":2970:2979  _receiver */\n      dup2\n        /* \"send receive/sender.sol\":2970:2993  _receiver == address(0) */\n      0xffffffffffffffffffffffffffffffffffffffff\n      and\n      sub\n        /* \"send receive/sender.sol\":2966:3026  if (_receiver == address(0)) revert InvalidReceiverAddress() */\n      tag_43\n      jumpi\n        /* \"send receive/sender.sol\":3002:3026  InvalidReceiverAddress() */\n      mload(0x40)\n      0xa05ff47e00000000000000000000000000000000000000000000000000000000\n      dup2\n      mstore\n      0x04\n      add\n      mload(0x40)\n      dup1\n      swap2\n      sub\n      swap1\n      revert\n        /* \"send receive/sender.sol\":2966:3026  if (_receiver == address(0)) revert InvalidReceiverAddress() */\n    tag_43:\n        /* \"send receive/sender.sol\":4306:4349  Client.EVM2AnyMessage memory evm2AnyMessage */\n      0x00\n        /* \"send receive/sender.sol\":4352:4968  Client.EVM2AnyMessage({... */\n      mload(0x40)\n      dup1\n      0xa0\n      add\n      0x40\n      mstore\n      dup1\n        /* \"send receive/sender.sol\":4410:4419  _receiver */\n      dup9\n        /* \"send receive/sender.sol\":4399:4420  abi.encode(_receiver) */\n      add(0x20, mload(0x40))\n      tag_45\n      swap2\n      swap1\n      tag_26\n      jump\t// in\n    tag_45:\n      mload(0x40)\n      0x20\n      dup2\n      dup4\n      sub\n      sub\n      dup2\n      mstore\n      swap1\n      0x40\n      mstore\n        /* \"send receive/sender.sol\":4352:4968  Client.EVM2AnyMessage({... */\n      dup2\n      mstore\n      0x20\n      add\n        /* \"send receive/sender.sol\":4484:4495  _iterations */\n      dup8\n        /* \"send receive/sender.sol\":4473:4496  abi.encode(_iterations) */\n      add(0x20, mload(0x40))\n      tag_46\n      swap2\n      swap1\n      tag_47\n      jump\t// in\n    tag_46:\n      mload(0x40)\n      0x20\n      dup2\n      dup4\n      sub\n      sub\n      dup2\n      mstore\n      swap1\n      0x40\n      mstore\n        /* \"send receive/sender.sol\":4352:4968  Client.EVM2AnyMessage({... */\n      dup2\n      mstore\n      0x20\n      add\n        /* \"send receive/sender.sol\":4579:4580  0 */\n      0x00\n        /* \"send receive/sender.sol\":4551:4581  new Client.EVMTokenAmount[](0) */\n      0xffffffffffffffff\n      dup2\n      gt\n      iszero\n      tag_48\n      jumpi\n      tag_49\n      tag_50\n      jump\t// in\n    tag_49:\n    tag_48:\n      mload(0x40)\n      swap1\n      dup1\n      dup3\n      mstore\n      dup1\n      0x20\n      mul\n      0x20\n      add\n      dup3\n      add\n      0x40\n      mstore\n      dup1\n      iszero\n      tag_51\n      jumpi\n      dup2\n      0x20\n      add\n    tag_52:\n      tag_53\n      tag_54\n      jump\t// in\n    tag_53:\n      dup2\n      mstore\n      0x20\n      add\n      swap1\n      0x01\n      swap1\n      sub\n      swap1\n      dup2\n      tag_52\n      jumpi\n      swap1\n      pop\n    tag_51:\n      pop\n        /* \"send receive/sender.sol\":4352:4968  Client.EVM2AnyMessage({... */\n      dup2\n      mstore\n      0x20\n      add\n        /* \"send receive/sender.sol\":4944:4955  s_linkToken */\n      0x03\n      0x00\n      swap1\n      sload\n      swap1\n      0x0100\n      exp\n      swap1\n      div\n      0xffffffffffffffffffffffffffffffffffffffff\n      and\n        /* \"send receive/sender.sol\":4352:4968  Client.EVM2AnyMessage({... */\n      0xffffffffffffffffffffffffffffffffffffffff\n      and\n      dup2\n      mstore\n      0x20\n      add\n        /* \"send receive/sender.sol\":4651:4808  Client._argsToBytes(... */\n      tag_55\n        /* \"send receive/sender.sol\":4749:4793  Client.EVMExtraArgsV1({gasLimit: _gasLimit}) */\n      mload(0x40)\n      dup1\n      0x20\n      add\n      0x40\n      mstore\n      dup1\n        /* \"send receive/sender.sol\":4782:4791  _gasLimit */\n      dup10\n        /* \"send receive/sender.sol\":4749:4793  Client.EVMExtraArgsV1({gasLimit: _gasLimit}) */\n      dup2\n      mstore\n      pop\n        /* \"send receive/sender.sol\":4651:4670  Client._argsToBytes */\n      tag_56\n        /* \"send receive/sender.sol\":4651:4808  Client._argsToBytes(... */\n      jump\t// in\n    tag_55:\n        /* \"send receive/sender.sol\":4352:4968  Client.EVM2AnyMessage({... */\n      dup2\n      mstore\n      pop\n        /* \"send receive/sender.sol\":4306:4968  Client.EVM2AnyMessage memory evm2AnyMessage = Client.EVM2AnyMessage({... */\n      swap1\n      pop\n        /* \"send receive/sender.sol\":5065:5085  IRouterClient router */\n      0x00\n        /* \"send receive/sender.sol\":5102:5110  s_router */\n      0x04\n      0x00\n      swap1\n      sload\n      swap1\n      0x0100\n      exp\n      swap1\n      div\n      0xffffffffffffffffffffffffffffffffffffffff\n      and\n        /* \"send receive/sender.sol\":5065:5111  IRouterClient router = IRouterClient(s_router) */\n      swap1\n      pop\n        /* \"send receive/sender.sol\":5182:5194  uint256 fees */\n      0x00\n        /* \"send receive/sender.sol\":5197:5203  router */\n      dup2\n        /* \"send receive/sender.sol\":5197:5210  router.getFee */\n      0xffffffffffffffffffffffffffffffffffffffff\n      and\n      0x20487ded\n        /* \"send receive/sender.sol\":5211:5236  _destinationChainSelector */\n      dup12\n        /* \"send receive/sender.sol\":5238:5252  evm2AnyMessage */\n      dup6\n        /* \"send receive/sender.sol\":5197:5253  router.getFee(_destinationChainSelector, evm2AnyMessage) */\n      mload(0x40)\n      dup4\n      0xffffffff\n      and\n      0xe0\n      shl\n      dup2\n      mstore\n      0x04\n      add\n      tag_57\n      swap3\n      swap2\n      swap1\n      tag_58\n      jump\t// in\n    tag_57:\n      0x20\n      mload(0x40)\n      dup1\n      dup4\n      sub\n      dup2\n      dup7\n      gas\n      staticcall\n      iszero\n      dup1\n      iszero\n      tag_60\n      jumpi\n      returndatasize\n      0x00\n      dup1\n      returndatacopy\n      revert(0x00, returndatasize)\n    tag_60:\n      pop\n      pop\n      pop\n      pop\n      mload(0x40)\n      returndatasize\n      not(0x1f)\n      0x1f\n      dup3\n      add\n      and\n      dup3\n      add\n      dup1\n      0x40\n      mstore\n      pop\n      dup2\n      add\n      swap1\n      tag_61\n      swap2\n      swap1\n      tag_62\n      jump\t// in\n    tag_61:\n        /* \"send receive/sender.sol\":5182:5253  uint256 fees = router.getFee(_destinationChainSelector, evm2AnyMessage) */\n      swap1\n      pop\n        /* \"send receive/sender.sol\":5266:5327  s_linkToken.safeTransferFrom(msg.sender, address(this), fees) */\n      tag_63\n        /* \"send receive/sender.sol\":5295:5305  msg.sender */\n      caller\n        /* \"send receive/sender.sol\":5315:5319  this */\n      address\n        /* \"send receive/sender.sol\":5322:5326  fees */\n      dup4\n        /* \"send receive/sender.sol\":5266:5277  s_linkToken */\n      0x03\n      0x00\n      swap1\n      sload\n      swap1\n      0x0100\n      exp\n      swap1\n      div\n      0xffffffffffffffffffffffffffffffffffffffff\n      and\n        /* \"send receive/sender.sol\":5266:5294  s_linkToken.safeTransferFrom */\n      0xffffffffffffffffffffffffffffffffffffffff\n      and\n      tag_64\n      swap1\n        /* \"send receive/sender.sol\":5266:5327  s_linkToken.safeTransferFrom(msg.sender, address(this), fees) */\n      swap4\n      swap3\n      swap2\n      swap1\n      0xffffffff\n      and\n      jump\t// in\n    tag_63:\n        /* \"send receive/sender.sol\":5485:5496  s_linkToken */\n      0x03\n      0x00\n      swap1\n      sload\n      swap1\n      0x0100\n      exp\n      swap1\n      div\n      0xffffffffffffffffffffffffffffffffffffffff\n      and\n        /* \"send receive/sender.sol\":5485:5504  s_linkToken.approve */\n      0xffffffffffffffffffffffffffffffffffffffff\n      and\n      0x095ea7b3\n        /* \"send receive/sender.sol\":5513:5519  router */\n      dup4\n        /* \"send receive/sender.sol\":5522:5526  fees */\n      dup4\n        /* \"send receive/sender.sol\":5485:5527  s_linkToken.approve(address(router), fees) */\n      mload(0x40)\n      dup4\n      0xffffffff\n      and\n      0xe0\n      shl\n      dup2\n      mstore\n      0x04\n      add\n      tag_65\n      swap3\n      swap2\n      swap1\n      tag_66\n      jump\t// in\n    tag_65:\n      0x20\n      mload(0x40)\n      dup1\n      dup4\n      sub\n      dup2\n      0x00\n      dup8\n      gas\n      call\n      iszero\n      dup1\n      iszero\n      tag_68\n      jumpi\n      returndatasize\n      0x00\n      dup1\n      returndatacopy\n      revert(0x00, returndatasize)\n    tag_68:\n      pop\n      pop\n      pop\n      pop\n      mload(0x40)\n      returndatasize\n      not(0x1f)\n      0x1f\n      dup3\n      add\n      and\n      dup3\n      add\n      dup1\n      0x40\n      mstore\n      pop\n      dup2\n      add\n      swap1\n      tag_69\n      swap2\n      swap1\n      tag_70\n      jump\t// in\n    tag_69:\n      pop\n        /* \"send receive/sender.sol\":5644:5650  router */\n      dup2\n        /* \"send receive/sender.sol\":5644:5659  router.ccipSend */\n      0xffffffffffffffffffffffffffffffffffffffff\n      and\n      0x96f4e9f9\n        /* \"send receive/sender.sol\":5660:5685  _destinationChainSelector */\n      dup12\n        /* \"send receive/sender.sol\":5687:5701  evm2AnyMessage */\n      dup6\n        /* \"send receive/sender.sol\":5644:5702  router.ccipSend(_destinationChainSelector, evm2AnyMessage) */\n      mload(0x40)\n      dup4\n      0xffffffff\n      and\n      0xe0\n      shl\n      dup2\n      mstore\n      0x04\n      add\n      tag_71\n      swap3\n      swap2\n      swap1\n      tag_58\n      jump\t// in\n    tag_71:\n      0x20\n      mload(0x40)\n      dup1\n      dup4\n      sub\n      dup2\n      0x00\n      dup8\n      gas\n      call\n      iszero\n      dup1\n      iszero\n      tag_73\n      jumpi\n      returndatasize\n      0x00\n      dup1\n      returndatacopy\n      revert(0x00, returndatasize)\n    tag_73:\n      pop\n      pop\n      pop\n      pop\n      mload(0x40)\n      returndatasize\n      not(0x1f)\n      0x1f\n      dup3\n      add\n      and\n      dup3\n      add\n      dup1\n      0x40\n      mstore\n      pop\n      dup2\n      add\n      swap1\n      tag_74\n      swap2\n      swap1\n      tag_75\n      jump\t// in\n    tag_74:\n        /* \"send receive/sender.sol\":5632:5702  messageId = router.ccipSend(_destinationChainSelector, evm2AnyMessage) */\n      swap6\n      pop\n        /* \"send receive/sender.sol\":5817:5842  _destinationChainSelector */\n      dup10\n        /* \"send receive/sender.sol\":5767:5957  MessageSent(... */\n      0xffffffffffffffff\n      and\n        /* \"send receive/sender.sol\":5793:5802  messageId */\n      dup7\n        /* \"send receive/sender.sol\":5767:5957  MessageSent(... */\n      0xeea8a479f07983d1364c4330c9bf3442a1cd421b79b16909bcc1867188ea676b\n        /* \"send receive/sender.sol\":5857:5866  _receiver */\n      dup12\n        /* \"send receive/sender.sol\":5881:5892  _iterations */\n      dup12\n        /* \"send receive/sender.sol\":5915:5926  s_linkToken */\n      0x03\n      0x00\n      swap1\n      sload\n      swap1\n      0x0100\n      exp\n      swap1\n      div\n      0xffffffffffffffffffffffffffffffffffffffff\n      and\n        /* \"send receive/sender.sol\":5942:5946  fees */\n      dup7\n        /* \"send receive/sender.sol\":5767:5957  MessageSent(... */\n      mload(0x40)\n      tag_76\n      swap5\n      swap4\n      swap3\n      swap2\n      swap1\n      tag_77\n      jump\t// in\n    tag_76:\n      mload(0x40)\n      dup1\n      swap2\n      sub\n      swap1\n      log3\n        /* \"send receive/sender.sol\":6009:6025  return messageId */\n      pop\n      pop\n      pop\n        /* \"send receive/sender.sol\":2779:2780  _ */\n      pop\n        /* \"@chainlink/contracts-ccip/src/v0.8/shared/access/ConfirmedOwnerWithProposal.sol\":2085:2086  _ */\n      pop\n        /* \"send receive/sender.sol\":3832:6033  function sendMessagePayLINK(... */\n      swap5\n      swap4\n      pop\n      pop\n      pop\n      pop\n      jump\t// out\n        /* \"send receive/sender.sol\":1902:1961  mapping(uint64 => bool) public allowlistedDestinationChains */\n    tag_18:\n      mstore(0x20, 0x02)\n      dup1\n      0x00\n      mstore\n      keccak256(0x00, 0x40)\n      0x00\n      swap2\n      pop\n      sload\n      swap1\n      0x0100\n      exp\n      swap1\n      div\n      0xff\n      and\n      dup2\n      jump\t// out\n        /* \"@chainlink/contracts-ccip/src/v0.8/shared/access/ConfirmedOwnerWithProposal.sol\":1022:1334  function acceptOwnership() external override {... */\n    tag_22:\n        /* \"@chainlink/contracts-ccip/src/v0.8/shared/access/ConfirmedOwnerWithProposal.sol\":1142:1156  s_pendingOwner */\n      0x01\n      0x00\n      swap1\n      sload\n      swap1\n      0x0100\n      exp\n      swap1\n      div\n      0xffffffffffffffffffffffffffffffffffffffff\n      and\n        /* \"@chainlink/contracts-ccip/src/v0.8/shared/access/ConfirmedOwnerWithProposal.sol\":1128:1156  msg.sender == s_pendingOwner */\n      0xffffffffffffffffffffffffffffffffffffffff\n      and\n        /* \"@chainlink/contracts-ccip/src/v0.8/shared/access/ConfirmedOwnerWithProposal.sol\":1128:1138  msg.sender */\n      caller\n        /* \"@chainlink/contracts-ccip/src/v0.8/shared/access/ConfirmedOwnerWithProposal.sol\":1128:1156  msg.sender == s_pendingOwner */\n      0xffffffffffffffffffffffffffffffffffffffff\n      and\n      eq\n        /* \"@chainlink/contracts-ccip/src/v0.8/shared/access/ConfirmedOwnerWithProposal.sol\":1120:1183  require(msg.sender == s_pendingOwner, \"Must be proposed owner\") */\n      tag_79\n      jumpi\n      mload(0x40)\n      0x08c379a000000000000000000000000000000000000000000000000000000000\n      dup2\n      mstore\n      0x04\n      add\n      tag_80\n      swap1\n      tag_81\n      jump\t// in\n    tag_80:\n      mload(0x40)\n      dup1\n      swap2\n      sub\n      swap1\n      revert\n    tag_79:\n        /* \"@chainlink/contracts-ccip/src/v0.8/shared/access/ConfirmedOwnerWithProposal.sol\":1190:1206  address oldOwner */\n      0x00\n        /* \"@chainlink/contracts-ccip/src/v0.8/shared/access/ConfirmedOwnerWithProposal.sol\":1209:1216  s_owner */\n      dup1\n      0x00\n      swap1\n      sload\n      swap1\n      0x0100\n      exp\n      swap1\n      div\n      0xffffffffffffffffffffffffffffffffffffffff\n      and\n        /* \"@chainlink/contracts-ccip/src/v0.8/shared/access/ConfirmedOwnerWithProposal.sol\":1190:1216  address oldOwner = s_owner */\n      swap1\n      pop\n        /* \"@chainlink/contracts-ccip/src/v0.8/shared/access/ConfirmedOwnerWithProposal.sol\":1232:1242  msg.sender */\n      caller\n        /* \"@chainlink/contracts-ccip/src/v0.8/shared/access/ConfirmedOwnerWithProposal.sol\":1222:1229  s_owner */\n      0x00\n      dup1\n        /* \"@chainlink/contracts-ccip/src/v0.8/shared/access/ConfirmedOwnerWithProposal.sol\":1222:1242  s_owner = msg.sender */\n      0x0100\n      exp\n      dup2\n      sload\n      dup2\n      0xffffffffffffffffffffffffffffffffffffffff\n      mul\n      not\n      and\n      swap1\n      dup4\n      0xffffffffffffffffffffffffffffffffffffffff\n      and\n      mul\n      or\n      swap1\n      sstore\n      pop\n        /* \"@chainlink/contracts-ccip/src/v0.8/shared/access/ConfirmedOwnerWithProposal.sol\":1273:1274  0 */\n      0x00\n        /* \"@chainlink/contracts-ccip/src/v0.8/shared/access/ConfirmedOwnerWithProposal.sol\":1248:1262  s_pendingOwner */\n      0x01\n      0x00\n        /* \"@chainlink/contracts-ccip/src/v0.8/shared/access/ConfirmedOwnerWithProposal.sol\":1248:1275  s_pendingOwner = address(0) */\n      0x0100\n      exp\n      dup2\n      sload\n      dup2\n      0xffffffffffffffffffffffffffffffffffffffff\n      mul\n      not\n      and\n      swap1\n      dup4\n      0xffffffffffffffffffffffffffffffffffffffff\n      and\n      mul\n      or\n      swap1\n      sstore\n      pop\n        /* \"@chainlink/contracts-ccip/src/v0.8/shared/access/ConfirmedOwnerWithProposal.sol\":1318:1328  msg.sender */\n      caller\n        /* \"@chainlink/contracts-ccip/src/v0.8/shared/access/ConfirmedOwnerWithProposal.sol\":1287:1329  OwnershipTransferred(oldOwner, msg.sender) */\n      0xffffffffffffffffffffffffffffffffffffffff\n      and\n        /* \"@chainlink/contracts-ccip/src/v0.8/shared/access/ConfirmedOwnerWithProposal.sol\":1308:1316  oldOwner */\n      dup2\n        /* \"@chainlink/contracts-ccip/src/v0.8/shared/access/ConfirmedOwnerWithProposal.sol\":1287:1329  OwnershipTransferred(oldOwner, msg.sender) */\n      0xffffffffffffffffffffffffffffffffffffffff\n      and\n      0x8be0079c531659141344cd1fd0a4f28419497f9722a3daafe3b4186f6b6457e0\n      mload(0x40)\n      mload(0x40)\n      dup1\n      swap2\n      sub\n      swap1\n      log3\n        /* \"@chainlink/contracts-ccip/src/v0.8/shared/access/ConfirmedOwnerWithProposal.sol\":1067:1334  {... */\n      pop\n        /* \"@chainlink/contracts-ccip/src/v0.8/shared/access/ConfirmedOwnerWithProposal.sol\":1022:1334  function acceptOwnership() external override {... */\n      jump\t// out\n        /* \"@chainlink/contracts-ccip/src/v0.8/shared/access/ConfirmedOwnerWithProposal.sol\":1374:1455  function owner() public view override returns (address) {... */\n    tag_24:\n        /* \"@chainlink/contracts-ccip/src/v0.8/shared/access/ConfirmedOwnerWithProposal.sol\":1421:1428  address */\n      0x00\n        /* \"@chainlink/contracts-ccip/src/v0.8/shared/access/ConfirmedOwnerWithProposal.sol\":1443:1450  s_owner */\n      dup1\n      0x00\n      swap1\n      sload\n      swap1\n      0x0100\n      exp\n      swap1\n      div\n      0xffffffffffffffffffffffffffffffffffffffff\n      and\n        /* \"@chainlink/contracts-ccip/src/v0.8/shared/access/ConfirmedOwnerWithProposal.sol\":1436:1450  return s_owner */\n      swap1\n      pop\n        /* \"@chainlink/contracts-ccip/src/v0.8/shared/access/ConfirmedOwnerWithProposal.sol\":1374:1455  function owner() public view override returns (address) {... */\n      swap1\n      jump\t// out\n        /* \"send receive/sender.sol\":3138:3349  function allowlistDestinationChain(... */\n    tag_30:\n        /* \"@chainlink/contracts-ccip/src/v0.8/shared/access/ConfirmedOwnerWithProposal.sol\":2059:2079  _validateOwnership() */\n      tag_84\n        /* \"@chainlink/contracts-ccip/src/v0.8/shared/access/ConfirmedOwnerWithProposal.sol\":2059:2077  _validateOwnership */\n      tag_37\n        /* \"@chainlink/contracts-ccip/src/v0.8/shared/access/ConfirmedOwnerWithProposal.sol\":2059:2079  _validateOwnership() */\n      jump\t// in\n    tag_84:\n        /* \"send receive/sender.sol\":3334:3341  allowed */\n      dup1\n        /* \"send receive/sender.sol\":3276:3304  allowlistedDestinationChains */\n      0x02\n        /* \"send receive/sender.sol\":3276:3331  allowlistedDestinationChains[_destinationChainSelector] */\n      0x00\n        /* \"send receive/sender.sol\":3305:3330  _destinationChainSelector */\n      dup5\n        /* \"send receive/sender.sol\":3276:3331  allowlistedDestinationChains[_destinationChainSelector] */\n      0xffffffffffffffff\n      and\n      0xffffffffffffffff\n      and\n      dup2\n      mstore\n      0x20\n      add\n      swap1\n      dup2\n      mstore\n      0x20\n      add\n      0x00\n      keccak256\n      0x00\n        /* \"send receive/sender.sol\":3276:3341  allowlistedDestinationChains[_destinationChainSelector] = allowed */\n      0x0100\n      exp\n      dup2\n      sload\n      dup2\n      0xff\n      mul\n      not\n      and\n      swap1\n      dup4\n      iszero\n      iszero\n      mul\n      or\n      swap1\n      sstore\n      pop\n        /* \"send receive/sender.sol\":3138:3349  function allowlistDestinationChain(... */\n      pop\n      pop\n      jump\t// out\n        /* \"@chainlink/contracts-ccip/src/v0.8/shared/access/ConfirmedOwnerWithProposal.sol\":843:941  function transferOwnership(address to) public override onlyOwner {... */\n    tag_34:\n        /* \"@chainlink/contracts-ccip/src/v0.8/shared/access/ConfirmedOwnerWithProposal.sol\":2059:2079  _validateOwnership() */\n      tag_87\n        /* \"@chainlink/contracts-ccip/src/v0.8/shared/access/ConfirmedOwnerWithProposal.sol\":2059:2077  _validateOwnership */\n      tag_37\n        /* \"@chainlink/contracts-ccip/src/v0.8/shared/access/ConfirmedOwnerWithProposal.sol\":2059:2079  _validateOwnership() */\n      jump\t// in\n    tag_87:\n        /* \"@chainlink/contracts-ccip/src/v0.8/shared/access/ConfirmedOwnerWithProposal.sol\":914:936  _transferOwnership(to) */\n      tag_89\n        /* \"@chainlink/contracts-ccip/src/v0.8/shared/access/ConfirmedOwnerWithProposal.sol\":933:935  to */\n      dup2\n        /* \"@chainlink/contracts-ccip/src/v0.8/shared/access/ConfirmedOwnerWithProposal.sol\":914:932  _transferOwnership */\n      tag_90\n        /* \"@chainlink/contracts-ccip/src/v0.8/shared/access/ConfirmedOwnerWithProposal.sol\":914:936  _transferOwnership(to) */\n      jump\t// in\n    tag_89:\n        /* \"@chainlink/contracts-ccip/src/v0.8/shared/access/ConfirmedOwnerWithProposal.sol\":843:941  function transferOwnership(address to) public override onlyOwner {... */\n      pop\n      jump\t// out\n        /* \"@chainlink/contracts-ccip/src/v0.8/shared/access/ConfirmedOwnerWithProposal.sol\":1797:1955  function _validateOwnership() internal view {... */\n    tag_37:\n        /* \"@chainlink/contracts-ccip/src/v0.8/shared/access/ConfirmedOwnerWithProposal.sol\":1916:1923  s_owner */\n      0x00\n      dup1\n      sload\n      swap1\n      0x0100\n      exp\n      swap1\n      div\n      0xffffffffffffffffffffffffffffffffffffffff\n      and\n        /* \"@chainlink/contracts-ccip/src/v0.8/shared/access/ConfirmedOwnerWithProposal.sol\":1902:1923  msg.sender == s_owner */\n      0xffffffffffffffffffffffffffffffffffffffff\n      and\n        /* \"@chainlink/contracts-ccip/src/v0.8/shared/access/ConfirmedOwnerWithProposal.sol\":1902:1912  msg.sender */\n      caller\n        /* \"@chainlink/contracts-ccip/src/v0.8/shared/access/ConfirmedOwnerWithProposal.sol\":1902:1923  msg.sender == s_owner */\n      0xffffffffffffffffffffffffffffffffffffffff\n      and\n      eq\n        /* \"@chainlink/contracts-ccip/src/v0.8/shared/access/ConfirmedOwnerWithProposal.sol\":1894:1950  require(msg.sender == s_owner, \"Only callable by owner\") */\n      tag_92\n      jumpi\n      mload(0x40)\n      0x08c379a000000000000000000000000000000000000000000000000000000000\n      dup2\n      mstore\n      0x04\n      add\n      tag_93\n      swap1\n      tag_94\n      jump\t// in\n    tag_93:\n      mload(0x40)\n      dup1\n      swap2\n      sub\n      swap1\n      revert\n    tag_92:\n        /* \"@chainlink/contracts-ccip/src/v0.8/shared/access/ConfirmedOwnerWithProposal.sol\":1797:1955  function _validateOwnership() internal view {... */\n      jump\t// out\n        /* \"@chainlink/contracts-ccip/src/v0.8/ccip/libraries/Client.sol\":1285:1455  function _argsToBytes(EVMExtraArgsV1 memory extraArgs) internal pure returns (bytes memory bts) {... */\n    tag_56:\n        /* \"@chainlink/contracts-ccip/src/v0.8/ccip/libraries/Client.sol\":1363:1379  bytes memory bts */\n      0x60\n        /* \"@chainlink/contracts-ccip/src/v0.8/ccip/libraries/Client.sol\":1218:1228  0x97a657c9 */\n      0x97a657c9\n        /* \"@chainlink/contracts-ccip/src/v0.8/ccip/libraries/Client.sol\":1417:1438  EVM_EXTRA_ARGS_V1_TAG */\n      0xe0\n      shl\n        /* \"@chainlink/contracts-ccip/src/v0.8/ccip/libraries/Client.sol\":1440:1449  extraArgs */\n      dup3\n        /* \"@chainlink/contracts-ccip/src/v0.8/ccip/libraries/Client.sol\":1394:1450  abi.encodeWithSelector(EVM_EXTRA_ARGS_V1_TAG, extraArgs) */\n      add(0x24, mload(0x40))\n      tag_96\n      swap2\n      swap1\n      tag_97\n      jump\t// in\n    tag_96:\n      mload(0x40)\n      0x20\n      dup2\n      dup4\n      sub\n      sub\n      dup2\n      mstore\n      swap1\n      0x40\n      mstore\n      swap1\n      not(0xffffffffffffffffffffffffffffffffffffffffffffffffffffffff)\n      and\n      0x20\n      dup3\n      add\n      dup1\n      mload\n      0xffffffffffffffffffffffffffffffffffffffffffffffffffffffff\n      dup4\n      dup2\n      dup4\n      and\n      or\n      dup4\n      mstore\n      pop\n      pop\n      pop\n      pop\n        /* \"@chainlink/contracts-ccip/src/v0.8/ccip/libraries/Client.sol\":1387:1450  return abi.encodeWithSelector(EVM_EXTRA_ARGS_V1_TAG, extraArgs) */\n      swap1\n      pop\n        /* \"@chainlink/contracts-ccip/src/v0.8/ccip/libraries/Client.sol\":1285:1455  function _argsToBytes(EVMExtraArgsV1 memory extraArgs) internal pure returns (bytes memory bts) {... */\n      swap2\n      swap1\n      pop\n      jump\t// out\n        /* \"@chainlink/contracts-ccip/src/v0.8/vendor/openzeppelin-solidity/v4.8.3/contracts/token/ERC20/utils/SafeERC20.sol\":932:1129  function safeTransferFrom(IERC20 token, address from, address to, uint256 value) internal {... */\n    tag_64:\n        /* \"@chainlink/contracts-ccip/src/v0.8/vendor/openzeppelin-solidity/v4.8.3/contracts/token/ERC20/utils/SafeERC20.sol\":1028:1124  _callOptionalReturn(token, abi.encodeWithSelector(token.transferFrom.selector, from, to, value)) */\n      tag_99\n        /* \"@chainlink/contracts-ccip/src/v0.8/vendor/openzeppelin-solidity/v4.8.3/contracts/token/ERC20/utils/SafeERC20.sol\":1048:1053  token */\n      dup5\n        /* \"@chainlink/contracts-ccip/src/v0.8/vendor/openzeppelin-solidity/v4.8.3/contracts/token/ERC20/utils/SafeERC20.sol\":1078:1105  token.transferFrom.selector */\n      shl(0xe0, 0x23b872dd)\n        /* \"@chainlink/contracts-ccip/src/v0.8/vendor/openzeppelin-solidity/v4.8.3/contracts/token/ERC20/utils/SafeERC20.sol\":1107:1111  from */\n      dup6\n        /* \"@chainlink/contracts-ccip/src/v0.8/vendor/openzeppelin-solidity/v4.8.3/contracts/token/ERC20/utils/SafeERC20.sol\":1113:1115  to */\n      dup6\n        /* \"@chainlink/contracts-ccip/src/v0.8/vendor/openzeppelin-solidity/v4.8.3/contracts/token/ERC20/utils/SafeERC20.sol\":1117:1122  value */\n      dup6\n        /* \"@chainlink/contracts-ccip/src/v0.8/vendor/openzeppelin-solidity/v4.8.3/contracts/token/ERC20/utils/SafeERC20.sol\":1055:1123  abi.encodeWithSelector(token.transferFrom.selector, from, to, value) */\n      add(0x24, mload(0x40))\n      tag_100\n      swap4\n      swap3\n      swap2\n      swap1\n      tag_101\n      jump\t// in\n    tag_100:\n      mload(0x40)\n      0x20\n      dup2\n      dup4\n      sub\n      sub\n      dup2\n      mstore\n      swap1\n      0x40\n      mstore\n      swap1\n      not(0xffffffffffffffffffffffffffffffffffffffffffffffffffffffff)\n      and\n      0x20\n      dup3\n      add\n      dup1\n      mload\n      0xffffffffffffffffffffffffffffffffffffffffffffffffffffffff\n      dup4\n      dup2\n      dup4\n      and\n      or\n      dup4\n      mstore\n      pop\n      pop\n      pop\n      pop\n        /* \"@chainlink/contracts-ccip/src/v0.8/vendor/openzeppelin-solidity/v4.8.3/contracts/token/ERC20/utils/SafeERC20.sol\":1028:1047  _callOptionalReturn */\n      tag_102\n        /* \"@chainlink/contracts-ccip/src/v0.8/vendor/openzeppelin-solidity/v4.8.3/contracts/token/ERC20/utils/SafeERC20.sol\":1028:1124  _callOptionalReturn(token, abi.encodeWithSelector(token.transferFrom.selector, from, to, value)) */\n      jump\t// in\n    tag_99:\n        /* \"@chainlink/contracts-ccip/src/v0.8/vendor/openzeppelin-solidity/v4.8.3/contracts/token/ERC20/utils/SafeERC20.sol\":932:1129  function safeTransferFrom(IERC20 token, address from, address to, uint256 value) internal {... */\n      pop\n      pop\n      pop\n      pop\n      jump\t// out\n        /* \"@chainlink/contracts-ccip/src/v0.8/shared/access/ConfirmedOwnerWithProposal.sol\":1528:1763  function _transferOwnership(address to) private {... */\n    tag_90:\n        /* \"@chainlink/contracts-ccip/src/v0.8/shared/access/ConfirmedOwnerWithProposal.sol\":1643:1653  msg.sender */\n      caller\n        /* \"@chainlink/contracts-ccip/src/v0.8/shared/access/ConfirmedOwnerWithProposal.sol\":1637:1653  to != msg.sender */\n      0xffffffffffffffffffffffffffffffffffffffff\n      and\n        /* \"@chainlink/contracts-ccip/src/v0.8/shared/access/ConfirmedOwnerWithProposal.sol\":1637:1639  to */\n      dup2\n        /* \"@chainlink/contracts-ccip/src/v0.8/shared/access/ConfirmedOwnerWithProposal.sol\":1637:1653  to != msg.sender */\n      0xffffffffffffffffffffffffffffffffffffffff\n      and\n      sub\n        /* \"@chainlink/contracts-ccip/src/v0.8/shared/access/ConfirmedOwnerWithProposal.sol\":1629:1681  require(to != msg.sender, \"Cannot transfer to self\") */\n      tag_104\n      jumpi\n      mload(0x40)\n      0x08c379a000000000000000000000000000000000000000000000000000000000\n      dup2\n      mstore\n      0x04\n      add\n      tag_105\n      swap1\n      tag_106\n      jump\t// in\n    tag_105:\n      mload(0x40)\n      dup1\n      swap2\n      sub\n      swap1\n      revert\n    tag_104:\n        /* \"@chainlink/contracts-ccip/src/v0.8/shared/access/ConfirmedOwnerWithProposal.sol\":1705:1707  to */\n      dup1\n        /* \"@chainlink/contracts-ccip/src/v0.8/shared/access/ConfirmedOwnerWithProposal.sol\":1688:1702  s_pendingOwner */\n      0x01\n      0x00\n        /* \"@chainlink/contracts-ccip/src/v0.8/shared/access/ConfirmedOwnerWithProposal.sol\":1688:1707  s_pendingOwner = to */\n      0x0100\n      exp\n      dup2\n      sload\n      dup2\n      0xffffffffffffffffffffffffffffffffffffffff\n      mul\n      not\n      and\n      swap1\n      dup4\n      0xffffffffffffffffffffffffffffffffffffffff\n      and\n      mul\n      or\n      swap1\n      sstore\n      pop\n        /* \"@chainlink/contracts-ccip/src/v0.8/shared/access/ConfirmedOwnerWithProposal.sol\":1755:1757  to */\n      dup1\n        /* \"@chainlink/contracts-ccip/src/v0.8/shared/access/ConfirmedOwnerWithProposal.sol\":1719:1758  OwnershipTransferRequested(s_owner, to) */\n      0xffffffffffffffffffffffffffffffffffffffff\n      and\n        /* \"@chainlink/contracts-ccip/src/v0.8/shared/access/ConfirmedOwnerWithProposal.sol\":1746:1753  s_owner */\n      0x00\n      dup1\n      sload\n      swap1\n      0x0100\n      exp\n      swap1\n      div\n      0xffffffffffffffffffffffffffffffffffffffff\n      and\n        /* \"@chainlink/contracts-ccip/src/v0.8/shared/access/ConfirmedOwnerWithProposal.sol\":1719:1758  OwnershipTransferRequested(s_owner, to) */\n      0xffffffffffffffffffffffffffffffffffffffff\n      and\n      0xed8889f560326eb138920d842192f0eb3dd22b4f139c87a2c57538e05bae1278\n      mload(0x40)\n      mload(0x40)\n      dup1\n      swap2\n      sub\n      swap1\n      log3\n        /* \"@chainlink/contracts-ccip/src/v0.8/shared/access/ConfirmedOwnerWithProposal.sol\":1528:1763  function _transferOwnership(address to) private {... */\n      pop\n      jump\t// out\n        /* \"@chainlink/contracts-ccip/src/v0.8/vendor/openzeppelin-solidity/v4.8.3/contracts/token/ERC20/utils/SafeERC20.sol\":3401:4069  function _callOptionalReturn(IERC20 token, bytes memory data) private {... */\n    tag_102:\n        /* \"@chainlink/contracts-ccip/src/v0.8/vendor/openzeppelin-solidity/v4.8.3/contracts/token/ERC20/utils/SafeERC20.sol\":3804:3827  bytes memory returndata */\n      0x00\n        /* \"@chainlink/contracts-ccip/src/v0.8/vendor/openzeppelin-solidity/v4.8.3/contracts/token/ERC20/utils/SafeERC20.sol\":3830:3899  address(token).functionCall(data, \"SafeERC20: low-level call failed\") */\n      tag_108\n        /* \"@chainlink/contracts-ccip/src/v0.8/vendor/openzeppelin-solidity/v4.8.3/contracts/token/ERC20/utils/SafeERC20.sol\":3858:3862  data */\n      dup3\n        /* \"@chainlink/contracts-ccip/src/v0.8/vendor/openzeppelin-solidity/v4.8.3/contracts/token/ERC20/utils/SafeERC20.sol\":3830:3899  address(token).functionCall(data, \"SafeERC20: low-level call failed\") */\n      mload(0x40)\n      dup1\n      0x40\n      add\n      0x40\n      mstore\n      dup1\n      0x20\n      dup2\n      mstore\n      0x20\n      add\n      0x5361666545524332303a206c6f772d6c6576656c2063616c6c206661696c6564\n      dup2\n      mstore\n      pop\n        /* \"@chainlink/contracts-ccip/src/v0.8/vendor/openzeppelin-solidity/v4.8.3/contracts/token/ERC20/utils/SafeERC20.sol\":3838:3843  token */\n      dup6\n        /* \"@chainlink/contracts-ccip/src/v0.8/vendor/openzeppelin-solidity/v4.8.3/contracts/token/ERC20/utils/SafeERC20.sol\":3830:3857  address(token).functionCall */\n      0xffffffffffffffffffffffffffffffffffffffff\n      and\n      tag_109\n      swap1\n        /* \"@chainlink/contracts-ccip/src/v0.8/vendor/openzeppelin-solidity/v4.8.3/contracts/token/ERC20/utils/SafeERC20.sol\":3830:3899  address(token).functionCall(data, \"SafeERC20: low-level call failed\") */\n      swap3\n      swap2\n      swap1\n      0xffffffff\n      and\n      jump\t// in\n    tag_108:\n        /* \"@chainlink/contracts-ccip/src/v0.8/vendor/openzeppelin-solidity/v4.8.3/contracts/token/ERC20/utils/SafeERC20.sol\":3804:3899  bytes memory returndata = address(token).functionCall(data, \"SafeERC20: low-level call failed\") */\n      swap1\n      pop\n        /* \"@chainlink/contracts-ccip/src/v0.8/vendor/openzeppelin-solidity/v4.8.3/contracts/token/ERC20/utils/SafeERC20.sol\":3929:3930  0 */\n      0x00\n        /* \"@chainlink/contracts-ccip/src/v0.8/vendor/openzeppelin-solidity/v4.8.3/contracts/token/ERC20/utils/SafeERC20.sol\":3909:3919  returndata */\n      dup2\n        /* \"@chainlink/contracts-ccip/src/v0.8/vendor/openzeppelin-solidity/v4.8.3/contracts/token/ERC20/utils/SafeERC20.sol\":3909:3926  returndata.length */\n      mload\n        /* \"@chainlink/contracts-ccip/src/v0.8/vendor/openzeppelin-solidity/v4.8.3/contracts/token/ERC20/utils/SafeERC20.sol\":3909:3930  returndata.length > 0 */\n      gt\n        /* \"@chainlink/contracts-ccip/src/v0.8/vendor/openzeppelin-solidity/v4.8.3/contracts/token/ERC20/utils/SafeERC20.sol\":3905:4065  if (returndata.length > 0) {... */\n      iszero\n      tag_110\n      jumpi\n        /* \"@chainlink/contracts-ccip/src/v0.8/vendor/openzeppelin-solidity/v4.8.3/contracts/token/ERC20/utils/SafeERC20.sol\":3992:4002  returndata */\n      dup1\n        /* \"@chainlink/contracts-ccip/src/v0.8/vendor/openzeppelin-solidity/v4.8.3/contracts/token/ERC20/utils/SafeERC20.sol\":3981:4011  abi.decode(returndata, (bool)) */\n      dup1\n      0x20\n      add\n      swap1\n      mload\n      dup2\n      add\n      swap1\n      tag_111\n      swap2\n      swap1\n      tag_70\n      jump\t// in\n    tag_111:\n        /* \"@chainlink/contracts-ccip/src/v0.8/vendor/openzeppelin-solidity/v4.8.3/contracts/token/ERC20/utils/SafeERC20.sol\":3973:4058  require(abi.decode(returndata, (bool)), \"SafeERC20: ERC20 operation did not succeed\") */\n      tag_112\n      jumpi\n      mload(0x40)\n      0x08c379a000000000000000000000000000000000000000000000000000000000\n      dup2\n      mstore\n      0x04\n      add\n      tag_113\n      swap1\n      tag_114\n      jump\t// in\n    tag_113:\n      mload(0x40)\n      dup1\n      swap2\n      sub\n      swap1\n      revert\n    tag_112:\n        /* \"@chainlink/contracts-ccip/src/v0.8/vendor/openzeppelin-solidity/v4.8.3/contracts/token/ERC20/utils/SafeERC20.sol\":3905:4065  if (returndata.length > 0) {... */\n    tag_110:\n        /* \"@chainlink/contracts-ccip/src/v0.8/vendor/openzeppelin-solidity/v4.8.3/contracts/token/ERC20/utils/SafeERC20.sol\":3471:4069  {... */\n      pop\n        /* \"@chainlink/contracts-ccip/src/v0.8/vendor/openzeppelin-solidity/v4.8.3/contracts/token/ERC20/utils/SafeERC20.sol\":3401:4069  function _callOptionalReturn(IERC20 token, bytes memory data) private {... */\n      pop\n      pop\n      jump\t// out\n        /* \"@chainlink/contracts-ccip/src/v0.8/vendor/openzeppelin-solidity/v4.8.3/contracts/utils/Address.sol\":3695:3882  function functionCall(address target, bytes memory data, string memory errorMessage) internal returns (bytes memory) {... */\n    tag_109:\n        /* \"@chainlink/contracts-ccip/src/v0.8/vendor/openzeppelin-solidity/v4.8.3/contracts/utils/Address.sol\":3798:3810  bytes memory */\n      0x60\n        /* \"@chainlink/contracts-ccip/src/v0.8/vendor/openzeppelin-solidity/v4.8.3/contracts/utils/Address.sol\":3825:3877  functionCallWithValue(target, data, 0, errorMessage) */\n      tag_116\n        /* \"@chainlink/contracts-ccip/src/v0.8/vendor/openzeppelin-solidity/v4.8.3/contracts/utils/Address.sol\":3847:3853  target */\n      dup5\n        /* \"@chainlink/contracts-ccip/src/v0.8/vendor/openzeppelin-solidity/v4.8.3/contracts/utils/Address.sol\":3855:3859  data */\n      dup5\n        /* \"@chainlink/contracts-ccip/src/v0.8/vendor/openzeppelin-solidity/v4.8.3/contracts/utils/Address.sol\":3861:3862  0 */\n      0x00\n        /* \"@chainlink/contracts-ccip/src/v0.8/vendor/openzeppelin-solidity/v4.8.3/contracts/utils/Address.sol\":3864:3876  errorMessage */\n      dup6\n        /* \"@chainlink/contracts-ccip/src/v0.8/vendor/openzeppelin-solidity/v4.8.3/contracts/utils/Address.sol\":3825:3846  functionCallWithValue */\n      tag_117\n        /* \"@chainlink/contracts-ccip/src/v0.8/vendor/openzeppelin-solidity/v4.8.3/contracts/utils/Address.sol\":3825:3877  functionCallWithValue(target, data, 0, errorMessage) */\n      jump\t// in\n    tag_116:\n        /* \"@chainlink/contracts-ccip/src/v0.8/vendor/openzeppelin-solidity/v4.8.3/contracts/utils/Address.sol\":3818:3877  return functionCallWithValue(target, data, 0, errorMessage) */\n      swap1\n      pop\n        /* \"@chainlink/contracts-ccip/src/v0.8/vendor/openzeppelin-solidity/v4.8.3/contracts/utils/Address.sol\":3695:3882  function functionCall(address target, bytes memory data, string memory errorMessage) internal returns (bytes memory) {... */\n      swap4\n      swap3\n      pop\n      pop\n      pop\n      jump\t// out\n        /* \"@chainlink/contracts-ccip/src/v0.8/vendor/openzeppelin-solidity/v4.8.3/contracts/utils/Address.sol\":4672:5086  function functionCallWithValue(... */\n    tag_117:\n        /* \"@chainlink/contracts-ccip/src/v0.8/vendor/openzeppelin-solidity/v4.8.3/contracts/utils/Address.sol\":4819:4831  bytes memory */\n      0x60\n        /* \"@chainlink/contracts-ccip/src/v0.8/vendor/openzeppelin-solidity/v4.8.3/contracts/utils/Address.sol\":4872:4877  value */\n      dup3\n        /* \"@chainlink/contracts-ccip/src/v0.8/vendor/openzeppelin-solidity/v4.8.3/contracts/utils/Address.sol\":4847:4868  address(this).balance */\n      selfbalance\n        /* \"@chainlink/contracts-ccip/src/v0.8/vendor/openzeppelin-solidity/v4.8.3/contracts/utils/Address.sol\":4847:4877  address(this).balance >= value */\n      lt\n      iszero\n        /* \"@chainlink/contracts-ccip/src/v0.8/vendor/openzeppelin-solidity/v4.8.3/contracts/utils/Address.sol\":4839:4920  require(address(this).balance >= value, \"Address: insufficient balance for call\") */\n      tag_119\n      jumpi\n      mload(0x40)\n      0x08c379a000000000000000000000000000000000000000000000000000000000\n      dup2\n      mstore\n      0x04\n      add\n      tag_120\n      swap1\n      tag_121\n      jump\t// in\n    tag_120:\n      mload(0x40)\n      dup1\n      swap2\n      sub\n      swap1\n      revert\n    tag_119:\n        /* \"@chainlink/contracts-ccip/src/v0.8/vendor/openzeppelin-solidity/v4.8.3/contracts/utils/Address.sol\":4927:4939  bool success */\n      0x00\n        /* \"@chainlink/contracts-ccip/src/v0.8/vendor/openzeppelin-solidity/v4.8.3/contracts/utils/Address.sol\":4941:4964  bytes memory returndata */\n      dup1\n        /* \"@chainlink/contracts-ccip/src/v0.8/vendor/openzeppelin-solidity/v4.8.3/contracts/utils/Address.sol\":4968:4974  target */\n      dup7\n        /* \"@chainlink/contracts-ccip/src/v0.8/vendor/openzeppelin-solidity/v4.8.3/contracts/utils/Address.sol\":4968:4979  target.call */\n      0xffffffffffffffffffffffffffffffffffffffff\n      and\n        /* \"@chainlink/contracts-ccip/src/v0.8/vendor/openzeppelin-solidity/v4.8.3/contracts/utils/Address.sol\":4987:4992  value */\n      dup6\n        /* \"@chainlink/contracts-ccip/src/v0.8/vendor/openzeppelin-solidity/v4.8.3/contracts/utils/Address.sol\":4994:4998  data */\n      dup8\n        /* \"@chainlink/contracts-ccip/src/v0.8/vendor/openzeppelin-solidity/v4.8.3/contracts/utils/Address.sol\":4968:4999  target.call{value: value}(data) */\n      mload(0x40)\n      tag_122\n      swap2\n      swap1\n      tag_123\n      jump\t// in\n    tag_122:\n      0x00\n      mload(0x40)\n      dup1\n      dup4\n      sub\n      dup2\n      dup6\n      dup8\n      gas\n      call\n      swap3\n      pop\n      pop\n      pop\n      returndatasize\n      dup1\n      0x00\n      dup2\n      eq\n      tag_126\n      jumpi\n      mload(0x40)\n      swap2\n      pop\n      and(add(returndatasize, 0x3f), not(0x1f))\n      dup3\n      add\n      0x40\n      mstore\n      returndatasize\n      dup3\n      mstore\n      returndatasize\n      0x00\n      0x20\n      dup5\n      add\n      returndatacopy\n      jump(tag_125)\n    tag_126:\n      0x60\n      swap2\n      pop\n    tag_125:\n      pop\n        /* \"@chainlink/contracts-ccip/src/v0.8/vendor/openzeppelin-solidity/v4.8.3/contracts/utils/Address.sol\":4926:4999  (bool success, bytes memory returndata) = target.call{value: value}(data) */\n      swap2\n      pop\n      swap2\n      pop\n        /* \"@chainlink/contracts-ccip/src/v0.8/vendor/openzeppelin-solidity/v4.8.3/contracts/utils/Address.sol\":5012:5081  verifyCallResultFromTarget(target, success, returndata, errorMessage) */\n      tag_127\n        /* \"@chainlink/contracts-ccip/src/v0.8/vendor/openzeppelin-solidity/v4.8.3/contracts/utils/Address.sol\":5039:5045  target */\n      dup8\n        /* \"@chainlink/contracts-ccip/src/v0.8/vendor/openzeppelin-solidity/v4.8.3/contracts/utils/Address.sol\":5047:5054  success */\n      dup4\n        /* \"@chainlink/contracts-ccip/src/v0.8/vendor/openzeppelin-solidity/v4.8.3/contracts/utils/Address.sol\":5056:5066  returndata */\n      dup4\n        /* \"@chainlink/contracts-ccip/src/v0.8/vendor/openzeppelin-solidity/v4.8.3/contracts/utils/Address.sol\":5068:5080  errorMessage */\n      dup8\n        /* \"@chainlink/contracts-ccip/src/v0.8/vendor/openzeppelin-solidity/v4.8.3/contracts/utils/Address.sol\":5012:5038  verifyCallResultFromTarget */\n      tag_128\n        /* \"@chainlink/contracts-ccip/src/v0.8/vendor/openzeppelin-solidity/v4.8.3/contracts/utils/Address.sol\":5012:5081  verifyCallResultFromTarget(target, success, returndata, errorMessage) */\n      jump\t// in\n    tag_127:\n        /* \"@chainlink/contracts-ccip/src/v0.8/vendor/openzeppelin-solidity/v4.8.3/contracts/utils/Address.sol\":5005:5081  return verifyCallResultFromTarget(target, success, returndata, errorMessage) */\n      swap3\n      pop\n      pop\n      pop\n        /* \"@chainlink/contracts-ccip/src/v0.8/vendor/openzeppelin-solidity/v4.8.3/contracts/utils/Address.sol\":4672:5086  function functionCallWithValue(... */\n      swap5\n      swap4\n      pop\n      pop\n      pop\n      pop\n      jump\t// out\n        /* \"@chainlink/contracts-ccip/src/v0.8/vendor/openzeppelin-solidity/v4.8.3/contracts/utils/Address.sol\":7016:7564  function verifyCallResultFromTarget(... */\n    tag_128:\n        /* \"@chainlink/contracts-ccip/src/v0.8/vendor/openzeppelin-solidity/v4.8.3/contracts/utils/Address.sol\":7178:7190  bytes memory */\n      0x60\n        /* \"@chainlink/contracts-ccip/src/v0.8/vendor/openzeppelin-solidity/v4.8.3/contracts/utils/Address.sol\":7202:7209  success */\n      dup4\n        /* \"@chainlink/contracts-ccip/src/v0.8/vendor/openzeppelin-solidity/v4.8.3/contracts/utils/Address.sol\":7198:7560  if (success) {... */\n      iszero\n      tag_130\n      jumpi\n        /* \"@chainlink/contracts-ccip/src/v0.8/vendor/openzeppelin-solidity/v4.8.3/contracts/utils/Address.sol\":7244:7245  0 */\n      0x00\n        /* \"@chainlink/contracts-ccip/src/v0.8/vendor/openzeppelin-solidity/v4.8.3/contracts/utils/Address.sol\":7223:7233  returndata */\n      dup4\n        /* \"@chainlink/contracts-ccip/src/v0.8/vendor/openzeppelin-solidity/v4.8.3/contracts/utils/Address.sol\":7223:7240  returndata.length */\n      mload\n        /* \"@chainlink/contracts-ccip/src/v0.8/vendor/openzeppelin-solidity/v4.8.3/contracts/utils/Address.sol\":7223:7245  returndata.length == 0 */\n      sub\n        /* \"@chainlink/contracts-ccip/src/v0.8/vendor/openzeppelin-solidity/v4.8.3/contracts/utils/Address.sol\":7219:7475  if (returndata.length == 0) {... */\n      tag_131\n      jumpi\n        /* \"@chainlink/contracts-ccip/src/v0.8/vendor/openzeppelin-solidity/v4.8.3/contracts/utils/Address.sol\":7414:7432  isContract(target) */\n      tag_132\n        /* \"@chainlink/contracts-ccip/src/v0.8/vendor/openzeppelin-solidity/v4.8.3/contracts/utils/Address.sol\":7425:7431  target */\n      dup6\n        /* \"@chainlink/contracts-ccip/src/v0.8/vendor/openzeppelin-solidity/v4.8.3/contracts/utils/Address.sol\":7414:7424  isContract */\n      tag_133\n        /* \"@chainlink/contracts-ccip/src/v0.8/vendor/openzeppelin-solidity/v4.8.3/contracts/utils/Address.sol\":7414:7432  isContract(target) */\n      jump\t// in\n    tag_132:\n        /* \"@chainlink/contracts-ccip/src/v0.8/vendor/openzeppelin-solidity/v4.8.3/contracts/utils/Address.sol\":7406:7466  require(isContract(target), \"Address: call to non-contract\") */\n      tag_134\n      jumpi\n      mload(0x40)\n      0x08c379a000000000000000000000000000000000000000000000000000000000\n      dup2\n      mstore\n      0x04\n      add\n      tag_135\n      swap1\n      tag_136\n      jump\t// in\n    tag_135:\n      mload(0x40)\n      dup1\n      swap2\n      sub\n      swap1\n      revert\n    tag_134:\n        /* \"@chainlink/contracts-ccip/src/v0.8/vendor/openzeppelin-solidity/v4.8.3/contracts/utils/Address.sol\":7219:7475  if (returndata.length == 0) {... */\n    tag_131:\n        /* \"@chainlink/contracts-ccip/src/v0.8/vendor/openzeppelin-solidity/v4.8.3/contracts/utils/Address.sol\":7489:7499  returndata */\n      dup3\n        /* \"@chainlink/contracts-ccip/src/v0.8/vendor/openzeppelin-solidity/v4.8.3/contracts/utils/Address.sol\":7482:7499  return returndata */\n      swap1\n      pop\n      jump(tag_129)\n        /* \"@chainlink/contracts-ccip/src/v0.8/vendor/openzeppelin-solidity/v4.8.3/contracts/utils/Address.sol\":7198:7560  if (success) {... */\n    tag_130:\n        /* \"@chainlink/contracts-ccip/src/v0.8/vendor/openzeppelin-solidity/v4.8.3/contracts/utils/Address.sol\":7520:7553  _revert(returndata, errorMessage) */\n      tag_138\n        /* \"@chainlink/contracts-ccip/src/v0.8/vendor/openzeppelin-solidity/v4.8.3/contracts/utils/Address.sol\":7528:7538  returndata */\n      dup4\n        /* \"@chainlink/contracts-ccip/src/v0.8/vendor/openzeppelin-solidity/v4.8.3/contracts/utils/Address.sol\":7540:7552  errorMessage */\n      dup4\n        /* \"@chainlink/contracts-ccip/src/v0.8/vendor/openzeppelin-solidity/v4.8.3/contracts/utils/Address.sol\":7520:7527  _revert */\n      tag_139\n        /* \"@chainlink/contracts-ccip/src/v0.8/vendor/openzeppelin-solidity/v4.8.3/contracts/utils/Address.sol\":7520:7553  _revert(returndata, errorMessage) */\n      jump\t// in\n    tag_138:\n        /* \"@chainlink/contracts-ccip/src/v0.8/vendor/openzeppelin-solidity/v4.8.3/contracts/utils/Address.sol\":7016:7564  function verifyCallResultFromTarget(... */\n    tag_129:\n      swap5\n      swap4\n      pop\n      pop\n      pop\n      pop\n      jump\t// out\n        /* \"@chainlink/contracts-ccip/src/v0.8/vendor/openzeppelin-solidity/v4.8.3/contracts/utils/Address.sol\":1121:1423  function isContract(address account) internal view returns (bool) {... */\n    tag_133:\n        /* \"@chainlink/contracts-ccip/src/v0.8/vendor/openzeppelin-solidity/v4.8.3/contracts/utils/Address.sol\":1181:1185  bool */\n      0x00\n        /* \"@chainlink/contracts-ccip/src/v0.8/vendor/openzeppelin-solidity/v4.8.3/contracts/utils/Address.sol\":1417:1418  0 */\n      dup1\n        /* \"@chainlink/contracts-ccip/src/v0.8/vendor/openzeppelin-solidity/v4.8.3/contracts/utils/Address.sol\":1395:1402  account */\n      dup3\n        /* \"@chainlink/contracts-ccip/src/v0.8/vendor/openzeppelin-solidity/v4.8.3/contracts/utils/Address.sol\":1395:1414  account.code.length */\n      0xffffffffffffffffffffffffffffffffffffffff\n      and\n      extcodesize\n        /* \"@chainlink/contracts-ccip/src/v0.8/vendor/openzeppelin-solidity/v4.8.3/contracts/utils/Address.sol\":1395:1418  account.code.length > 0 */\n      gt\n        /* \"@chainlink/contracts-ccip/src/v0.8/vendor/openzeppelin-solidity/v4.8.3/contracts/utils/Address.sol\":1388:1418  return account.code.length > 0 */\n      swap1\n      pop\n        /* \"@chainlink/contracts-ccip/src/v0.8/vendor/openzeppelin-solidity/v4.8.3/contracts/utils/Address.sol\":1121:1423  function isContract(address account) internal view returns (bool) {... */\n      swap2\n      swap1\n      pop\n      jump\t// out\n        /* \"@chainlink/contracts-ccip/src/v0.8/vendor/openzeppelin-solidity/v4.8.3/contracts/utils/Address.sol\":8030:8506  function _revert(bytes memory returndata, string memory errorMessage) private pure {... */\n    tag_139:\n        /* \"@chainlink/contracts-ccip/src/v0.8/vendor/openzeppelin-solidity/v4.8.3/contracts/utils/Address.sol\":8201:8202  0 */\n      0x00\n        /* \"@chainlink/contracts-ccip/src/v0.8/vendor/openzeppelin-solidity/v4.8.3/contracts/utils/Address.sol\":8181:8191  returndata */\n      dup3\n        /* \"@chainlink/contracts-ccip/src/v0.8/vendor/openzeppelin-solidity/v4.8.3/contracts/utils/Address.sol\":8181:8198  returndata.length */\n      mload\n        /* \"@chainlink/contracts-ccip/src/v0.8/vendor/openzeppelin-solidity/v4.8.3/contracts/utils/Address.sol\":8181:8202  returndata.length > 0 */\n      gt\n        /* \"@chainlink/contracts-ccip/src/v0.8/vendor/openzeppelin-solidity/v4.8.3/contracts/utils/Address.sol\":8177:8502  if (returndata.length > 0) {... */\n      iszero\n      tag_142\n      jumpi\n        /* \"@chainlink/contracts-ccip/src/v0.8/vendor/openzeppelin-solidity/v4.8.3/contracts/utils/Address.sol\":8383:8393  returndata */\n      dup2\n        /* \"@chainlink/contracts-ccip/src/v0.8/vendor/openzeppelin-solidity/v4.8.3/contracts/utils/Address.sol\":8377:8394  mload(returndata) */\n      mload\n        /* \"@chainlink/contracts-ccip/src/v0.8/vendor/openzeppelin-solidity/v4.8.3/contracts/utils/Address.sol\":8431:8446  returndata_size */\n      dup1\n        /* \"@chainlink/contracts-ccip/src/v0.8/vendor/openzeppelin-solidity/v4.8.3/contracts/utils/Address.sol\":8418:8428  returndata */\n      dup4\n        /* \"@chainlink/contracts-ccip/src/v0.8/vendor/openzeppelin-solidity/v4.8.3/contracts/utils/Address.sol\":8414:8416  32 */\n      0x20\n        /* \"@chainlink/contracts-ccip/src/v0.8/vendor/openzeppelin-solidity/v4.8.3/contracts/utils/Address.sol\":8410:8429  add(32, returndata) */\n      add\n        /* \"@chainlink/contracts-ccip/src/v0.8/vendor/openzeppelin-solidity/v4.8.3/contracts/utils/Address.sol\":8403:8447  revert(add(32, returndata), returndata_size) */\n      revert\n        /* \"@chainlink/contracts-ccip/src/v0.8/vendor/openzeppelin-solidity/v4.8.3/contracts/utils/Address.sol\":8177:8502  if (returndata.length > 0) {... */\n    tag_142:\n        /* \"@chainlink/contracts-ccip/src/v0.8/vendor/openzeppelin-solidity/v4.8.3/contracts/utils/Address.sol\":8482:8494  errorMessage */\n      dup1\n        /* \"@chainlink/contracts-ccip/src/v0.8/vendor/openzeppelin-solidity/v4.8.3/contracts/utils/Address.sol\":8475:8495  revert(errorMessage) */\n      mload(0x40)\n      0x08c379a000000000000000000000000000000000000000000000000000000000\n      dup2\n      mstore\n      0x04\n      add\n      tag_144\n      swap2\n      swap1\n      tag_145\n      jump\t// in\n    tag_144:\n      mload(0x40)\n      dup1\n      swap2\n      sub\n      swap1\n      revert\n    tag_54:\n      mload(0x40)\n      dup1\n      0x40\n      add\n      0x40\n      mstore\n      dup1\n      and(0xffffffffffffffffffffffffffffffffffffffff, 0x00)\n      dup2\n      mstore\n      0x20\n      add\n      0x00\n      dup2\n      mstore\n      pop\n      swap1\n      jump\t// out\n        /* \"#utility.yul\":88:205   */\n    tag_147:\n        /* \"#utility.yul\":197:198   */\n      0x00\n        /* \"#utility.yul\":194:195   */\n      dup1\n        /* \"#utility.yul\":187:199   */\n      revert\n        /* \"#utility.yul\":334:435   */\n    tag_149:\n        /* \"#utility.yul\":370:377   */\n      0x00\n        /* \"#utility.yul\":410:428   */\n      0xffffffffffffffff\n        /* \"#utility.yul\":403:408   */\n      dup3\n        /* \"#utility.yul\":399:429   */\n      and\n        /* \"#utility.yul\":388:429   */\n      swap1\n      pop\n        /* \"#utility.yul\":334:435   */\n      swap2\n      swap1\n      pop\n      jump\t// out\n        /* \"#utility.yul\":441:561   */\n    tag_150:\n        /* \"#utility.yul\":513:536   */\n      tag_211\n        /* \"#utility.yul\":530:535   */\n      dup2\n        /* \"#utility.yul\":513:536   */\n      tag_149\n      jump\t// in\n    tag_211:\n        /* \"#utility.yul\":506:511   */\n      dup2\n        /* \"#utility.yul\":503:537   */\n      eq\n        /* \"#utility.yul\":493:555   */\n      tag_212\n      jumpi\n        /* \"#utility.yul\":551:552   */\n      0x00\n        /* \"#utility.yul\":548:549   */\n      dup1\n        /* \"#utility.yul\":541:553   */\n      revert\n        /* \"#utility.yul\":493:555   */\n    tag_212:\n        /* \"#utility.yul\":441:561   */\n      pop\n      jump\t// out\n        /* \"#utility.yul\":567:704   */\n    tag_151:\n        /* \"#utility.yul\":612:617   */\n      0x00\n        /* \"#utility.yul\":650:656   */\n      dup2\n        /* \"#utility.yul\":637:657   */\n      calldataload\n        /* \"#utility.yul\":628:657   */\n      swap1\n      pop\n        /* \"#utility.yul\":666:698   */\n      tag_214\n        /* \"#utility.yul\":692:697   */\n      dup2\n        /* \"#utility.yul\":666:698   */\n      tag_150\n      jump\t// in\n    tag_214:\n        /* \"#utility.yul\":567:704   */\n      swap3\n      swap2\n      pop\n      pop\n      jump\t// out\n        /* \"#utility.yul\":710:836   */\n    tag_152:\n        /* \"#utility.yul\":747:754   */\n      0x00\n        /* \"#utility.yul\":787:829   */\n      0xffffffffffffffffffffffffffffffffffffffff\n        /* \"#utility.yul\":780:785   */\n      dup3\n        /* \"#utility.yul\":776:830   */\n      and\n        /* \"#utility.yul\":765:830   */\n      swap1\n      pop\n        /* \"#utility.yul\":710:836   */\n      swap2\n      swap1\n      pop\n      jump\t// out\n        /* \"#utility.yul\":842:938   */\n    tag_153:\n        /* \"#utility.yul\":879:886   */\n      0x00\n        /* \"#utility.yul\":908:932   */\n      tag_217\n        /* \"#utility.yul\":926:931   */\n      dup3\n        /* \"#utility.yul\":908:932   */\n      tag_152\n      jump\t// in\n    tag_217:\n        /* \"#utility.yul\":897:932   */\n      swap1\n      pop\n        /* \"#utility.yul\":842:938   */\n      swap2\n      swap1\n      pop\n      jump\t// out\n        /* \"#utility.yul\":944:1066   */\n    tag_154:\n        /* \"#utility.yul\":1017:1041   */\n      tag_219\n        /* \"#utility.yul\":1035:1040   */\n      dup2\n        /* \"#utility.yul\":1017:1041   */\n      tag_153\n      jump\t// in\n    tag_219:\n        /* \"#utility.yul\":1010:1015   */\n      dup2\n        /* \"#utility.yul\":1007:1042   */\n      eq\n        /* \"#utility.yul\":997:1060   */\n      tag_220\n      jumpi\n        /* \"#utility.yul\":1056:1057   */\n      0x00\n        /* \"#utility.yul\":1053:1054   */\n      dup1\n        /* \"#utility.yul\":1046:1058   */\n      revert\n        /* \"#utility.yul\":997:1060   */\n    tag_220:\n        /* \"#utility.yul\":944:1066   */\n      pop\n      jump\t// out\n        /* \"#utility.yul\":1072:1211   */\n    tag_155:\n        /* \"#utility.yul\":1118:1123   */\n      0x00\n        /* \"#utility.yul\":1156:1162   */\n      dup2\n        /* \"#utility.yul\":1143:1163   */\n      calldataload\n        /* \"#utility.yul\":1134:1163   */\n      swap1\n      pop\n        /* \"#utility.yul\":1172:1205   */\n      tag_222\n        /* \"#utility.yul\":1199:1204   */\n      dup2\n        /* \"#utility.yul\":1172:1205   */\n      tag_154\n      jump\t// in\n    tag_222:\n        /* \"#utility.yul\":1072:1211   */\n      swap3\n      swap2\n      pop\n      pop\n      jump\t// out\n        /* \"#utility.yul\":1217:1294   */\n    tag_156:\n        /* \"#utility.yul\":1254:1261   */\n      0x00\n        /* \"#utility.yul\":1283:1288   */\n      dup2\n        /* \"#utility.yul\":1272:1288   */\n      swap1\n      pop\n        /* \"#utility.yul\":1217:1294   */\n      swap2\n      swap1\n      pop\n      jump\t// out\n        /* \"#utility.yul\":1300:1422   */\n    tag_157:\n        /* \"#utility.yul\":1373:1397   */\n      tag_225\n        /* \"#utility.yul\":1391:1396   */\n      dup2\n        /* \"#utility.yul\":1373:1397   */\n      tag_156\n      jump\t// in\n    tag_225:\n        /* \"#utility.yul\":1366:1371   */\n      dup2\n        /* \"#utility.yul\":1363:1398   */\n      eq\n        /* \"#utility.yul\":1353:1416   */\n      tag_226\n      jumpi\n        /* \"#utility.yul\":1412:1413   */\n      0x00\n        /* \"#utility.yul\":1409:1410   */\n      dup1\n        /* \"#utility.yul\":1402:1414   */\n      revert\n        /* \"#utility.yul\":1353:1416   */\n    tag_226:\n        /* \"#utility.yul\":1300:1422   */\n      pop\n      jump\t// out\n        /* \"#utility.yul\":1428:1567   */\n    tag_158:\n        /* \"#utility.yul\":1474:1479   */\n      0x00\n        /* \"#utility.yul\":1512:1518   */\n      dup2\n        /* \"#utility.yul\":1499:1519   */\n      calldataload\n        /* \"#utility.yul\":1490:1519   */\n      swap1\n      pop\n        /* \"#utility.yul\":1528:1561   */\n      tag_228\n        /* \"#utility.yul\":1555:1560   */\n      dup2\n        /* \"#utility.yul\":1528:1561   */\n      tag_157\n      jump\t// in\n    tag_228:\n        /* \"#utility.yul\":1428:1567   */\n      swap3\n      swap2\n      pop\n      pop\n      jump\t// out\n        /* \"#utility.yul\":1573:2336   */\n    tag_11:\n        /* \"#utility.yul\":1658:1664   */\n      0x00\n        /* \"#utility.yul\":1666:1672   */\n      dup1\n        /* \"#utility.yul\":1674:1680   */\n      0x00\n        /* \"#utility.yul\":1682:1688   */\n      dup1\n        /* \"#utility.yul\":1731:1734   */\n      0x80\n        /* \"#utility.yul\":1719:1728   */\n      dup6\n        /* \"#utility.yul\":1710:1717   */\n      dup8\n        /* \"#utility.yul\":1706:1729   */\n      sub\n        /* \"#utility.yul\":1702:1735   */\n      slt\n        /* \"#utility.yul\":1699:1819   */\n      iszero\n      tag_230\n      jumpi\n        /* \"#utility.yul\":1738:1817   */\n      tag_231\n      tag_147\n      jump\t// in\n    tag_231:\n        /* \"#utility.yul\":1699:1819   */\n    tag_230:\n        /* \"#utility.yul\":1858:1859   */\n      0x00\n        /* \"#utility.yul\":1883:1935   */\n      tag_232\n        /* \"#utility.yul\":1927:1934   */\n      dup8\n        /* \"#utility.yul\":1918:1924   */\n      dup3\n        /* \"#utility.yul\":1907:1916   */\n      dup9\n        /* \"#utility.yul\":1903:1925   */\n      add\n        /* \"#utility.yul\":1883:1935   */\n      tag_151\n      jump\t// in\n    tag_232:\n        /* \"#utility.yul\":1873:1935   */\n      swap5\n      pop\n        /* \"#utility.yul\":1829:1945   */\n      pop\n        /* \"#utility.yul\":1984:1986   */\n      0x20\n        /* \"#utility.yul\":2010:2063   */\n      tag_233\n        /* \"#utility.yul\":2055:2062   */\n      dup8\n        /* \"#utility.yul\":2046:2052   */\n      dup3\n        /* \"#utility.yul\":2035:2044   */\n      dup9\n        /* \"#utility.yul\":2031:2053   */\n      add\n        /* \"#utility.yul\":2010:2063   */\n      tag_155\n      jump\t// in\n    tag_233:\n        /* \"#utility.yul\":2000:2063   */\n      swap4\n      pop\n        /* \"#utility.yul\":1955:2073   */\n      pop\n        /* \"#utility.yul\":2112:2114   */\n      0x40\n        /* \"#utility.yul\":2138:2191   */\n      tag_234\n        /* \"#utility.yul\":2183:2190   */\n      dup8\n        /* \"#utility.yul\":2174:2180   */\n      dup3\n        /* \"#utility.yul\":2163:2172   */\n      dup9\n        /* \"#utility.yul\":2159:2181   */\n      add\n        /* \"#utility.yul\":2138:2191   */\n      tag_158\n      jump\t// in\n    tag_234:\n        /* \"#utility.yul\":2128:2191   */\n      swap3\n      pop\n        /* \"#utility.yul\":2083:2201   */\n      pop\n        /* \"#utility.yul\":2240:2242   */\n      0x60\n        /* \"#utility.yul\":2266:2319   */\n      tag_235\n        /* \"#utility.yul\":2311:2318   */\n      dup8\n        /* \"#utility.yul\":2302:2308   */\n      dup3\n        /* \"#utility.yul\":2291:2300   */\n      dup9\n        /* \"#utility.yul\":2287:2309   */\n      add\n        /* \"#utility.yul\":2266:2319   */\n      tag_158\n      jump\t// in\n    tag_235:\n        /* \"#utility.yul\":2256:2319   */\n      swap2\n      pop\n        /* \"#utility.yul\":2211:2329   */\n      pop\n        /* \"#utility.yul\":1573:2336   */\n      swap3\n      swap6\n      swap2\n      swap5\n      pop\n      swap3\n      pop\n      jump\t// out\n        /* \"#utility.yul\":2342:2419   */\n    tag_159:\n        /* \"#utility.yul\":2379:2386   */\n      0x00\n        /* \"#utility.yul\":2408:2413   */\n      dup2\n        /* \"#utility.yul\":2397:2413   */\n      swap1\n      pop\n        /* \"#utility.yul\":2342:2419   */\n      swap2\n      swap1\n      pop\n      jump\t// out\n        /* \"#utility.yul\":2425:2543   */\n    tag_160:\n        /* \"#utility.yul\":2512:2536   */\n      tag_238\n        /* \"#utility.yul\":2530:2535   */\n      dup2\n        /* \"#utility.yul\":2512:2536   */\n      tag_159\n      jump\t// in\n    tag_238:\n        /* \"#utility.yul\":2507:2510   */\n      dup3\n        /* \"#utility.yul\":2500:2537   */\n      mstore\n        /* \"#utility.yul\":2425:2543   */\n      pop\n      pop\n      jump\t// out\n        /* \"#utility.yul\":2549:2771   */\n    tag_14:\n        /* \"#utility.yul\":2642:2646   */\n      0x00\n        /* \"#utility.yul\":2680:2682   */\n      0x20\n        /* \"#utility.yul\":2669:2678   */\n      dup3\n        /* \"#utility.yul\":2665:2683   */\n      add\n        /* \"#utility.yul\":2657:2683   */\n      swap1\n      pop\n        /* \"#utility.yul\":2693:2764   */\n      tag_240\n        /* \"#utility.yul\":2761:2762   */\n      0x00\n        /* \"#utility.yul\":2750:2759   */\n      dup4\n        /* \"#utility.yul\":2746:2763   */\n      add\n        /* \"#utility.yul\":2737:2743   */\n      dup5\n        /* \"#utility.yul\":2693:2764   */\n      tag_160\n      jump\t// in\n    tag_240:\n        /* \"#utility.yul\":2549:2771   */\n      swap3\n      swap2\n      pop\n      pop\n      jump\t// out\n        /* \"#utility.yul\":2777:3104   */\n    tag_17:\n        /* \"#utility.yul\":2835:2841   */\n      0x00\n        /* \"#utility.yul\":2884:2886   */\n      0x20\n        /* \"#utility.yul\":2872:2881   */\n      dup3\n        /* \"#utility.yul\":2863:2870   */\n      dup5\n        /* \"#utility.yul\":2859:2882   */\n      sub\n        /* \"#utility.yul\":2855:2887   */\n      slt\n        /* \"#utility.yul\":2852:2971   */\n      iszero\n      tag_242\n      jumpi\n        /* \"#utility.yul\":2890:2969   */\n      tag_243\n      tag_147\n      jump\t// in\n    tag_243:\n        /* \"#utility.yul\":2852:2971   */\n    tag_242:\n        /* \"#utility.yul\":3010:3011   */\n      0x00\n        /* \"#utility.yul\":3035:3087   */\n      tag_244\n        /* \"#utility.yul\":3079:3086   */\n      dup5\n        /* \"#utility.yul\":3070:3076   */\n      dup3\n        /* \"#utility.yul\":3059:3068   */\n      dup6\n        /* \"#utility.yul\":3055:3077   */\n      add\n        /* \"#utility.yul\":3035:3087   */\n      tag_151\n      jump\t// in\n    tag_244:\n        /* \"#utility.yul\":3025:3087   */\n      swap2\n      pop\n        /* \"#utility.yul\":2981:3097   */\n      pop\n        /* \"#utility.yul\":2777:3104   */\n      swap3\n      swap2\n      pop\n      pop\n      jump\t// out\n        /* \"#utility.yul\":3110:3200   */\n    tag_161:\n        /* \"#utility.yul\":3144:3151   */\n      0x00\n        /* \"#utility.yul\":3187:3192   */\n      dup2\n        /* \"#utility.yul\":3180:3193   */\n      iszero\n        /* \"#utility.yul\":3173:3194   */\n      iszero\n        /* \"#utility.yul\":3162:3194   */\n      swap1\n      pop\n        /* \"#utility.yul\":3110:3200   */\n      swap2\n      swap1\n      pop\n      jump\t// out\n        /* \"#utility.yul\":3206:3315   */\n    tag_162:\n        /* \"#utility.yul\":3287:3308   */\n      tag_247\n        /* \"#utility.yul\":3302:3307   */\n      dup2\n        /* \"#utility.yul\":3287:3308   */\n      tag_161\n      jump\t// in\n    tag_247:\n        /* \"#utility.yul\":3282:3285   */\n      dup3\n        /* \"#utility.yul\":3275:3309   */\n      mstore\n        /* \"#utility.yul\":3206:3315   */\n      pop\n      pop\n      jump\t// out\n        /* \"#utility.yul\":3321:3531   */\n    tag_20:\n        /* \"#utility.yul\":3408:3412   */\n      0x00\n        /* \"#utility.yul\":3446:3448   */\n      0x20\n        /* \"#utility.yul\":3435:3444   */\n      dup3\n        /* \"#utility.yul\":3431:3449   */\n      add\n        /* \"#utility.yul\":3423:3449   */\n      swap1\n      pop\n        /* \"#utility.yul\":3459:3524   */\n      tag_249\n        /* \"#utility.yul\":3521:3522   */\n      0x00\n        /* \"#utility.yul\":3510:3519   */\n      dup4\n        /* \"#utility.yul\":3506:3523   */\n      add\n        /* \"#utility.yul\":3497:3503   */\n      dup5\n        /* \"#utility.yul\":3459:3524   */\n      tag_162\n      jump\t// in\n    tag_249:\n        /* \"#utility.yul\":3321:3531   */\n      swap3\n      swap2\n      pop\n      pop\n      jump\t// out\n        /* \"#utility.yul\":3537:3655   */\n    tag_163:\n        /* \"#utility.yul\":3624:3648   */\n      tag_251\n        /* \"#utility.yul\":3642:3647   */\n      dup2\n        /* \"#utility.yul\":3624:3648   */\n      tag_153\n      jump\t// in\n    tag_251:\n        /* \"#utility.yul\":3619:3622   */\n      dup3\n        /* \"#utility.yul\":3612:3649   */\n      mstore\n        /* \"#utility.yul\":3537:3655   */\n      pop\n      pop\n      jump\t// out\n        /* \"#utility.yul\":3661:3883   */\n    tag_26:\n        /* \"#utility.yul\":3754:3758   */\n      0x00\n        /* \"#utility.yul\":3792:3794   */\n      0x20\n        /* \"#utility.yul\":3781:3790   */\n      dup3\n        /* \"#utility.yul\":3777:3795   */\n      add\n        /* \"#utility.yul\":3769:3795   */\n      swap1\n      pop\n        /* \"#utility.yul\":3805:3876   */\n      tag_253\n        /* \"#utility.yul\":3873:3874   */\n      0x00\n        /* \"#utility.yul\":3862:3871   */\n      dup4\n        /* \"#utility.yul\":3858:3875   */\n      add\n        /* \"#utility.yul\":3849:3855   */\n      dup5\n        /* \"#utility.yul\":3805:3876   */\n      tag_163\n      jump\t// in\n    tag_253:\n        /* \"#utility.yul\":3661:3883   */\n      swap3\n      swap2\n      pop\n      pop\n      jump\t// out\n        /* \"#utility.yul\":3889:4005   */\n    tag_164:\n        /* \"#utility.yul\":3959:3980   */\n      tag_255\n        /* \"#utility.yul\":3974:3979   */\n      dup2\n        /* \"#utility.yul\":3959:3980   */\n      tag_161\n      jump\t// in\n    tag_255:\n        /* \"#utility.yul\":3952:3957   */\n      dup2\n        /* \"#utility.yul\":3949:3981   */\n      eq\n        /* \"#utility.yul\":3939:3999   */\n      tag_256\n      jumpi\n        /* \"#utility.yul\":3995:3996   */\n      0x00\n        /* \"#utility.yul\":3992:3993   */\n      dup1\n        /* \"#utility.yul\":3985:3997   */\n      revert\n        /* \"#utility.yul\":3939:3999   */\n    tag_256:\n        /* \"#utility.yul\":3889:4005   */\n      pop\n      jump\t// out\n        /* \"#utility.yul\":4011:4144   */\n    tag_165:\n        /* \"#utility.yul\":4054:4059   */\n      0x00\n        /* \"#utility.yul\":4092:4098   */\n      dup2\n        /* \"#utility.yul\":4079:4099   */\n      calldataload\n        /* \"#utility.yul\":4070:4099   */\n      swap1\n      pop\n        /* \"#utility.yul\":4108:4138   */\n      tag_258\n        /* \"#utility.yul\":4132:4137   */\n      dup2\n        /* \"#utility.yul\":4108:4138   */\n      tag_164\n      jump\t// in\n    tag_258:\n        /* \"#utility.yul\":4011:4144   */\n      swap3\n      swap2\n      pop\n      pop\n      jump\t// out\n        /* \"#utility.yul\":4150:4616   */\n    tag_29:\n        /* \"#utility.yul\":4214:4220   */\n      0x00\n        /* \"#utility.yul\":4222:4228   */\n      dup1\n        /* \"#utility.yul\":4271:4273   */\n      0x40\n        /* \"#utility.yul\":4259:4268   */\n      dup4\n        /* \"#utility.yul\":4250:4257   */\n      dup6\n        /* \"#utility.yul\":4246:4269   */\n      sub\n        /* \"#utility.yul\":4242:4274   */\n      slt\n        /* \"#utility.yul\":4239:4358   */\n      iszero\n      tag_260\n      jumpi\n        /* \"#utility.yul\":4277:4356   */\n      tag_261\n      tag_147\n      jump\t// in\n    tag_261:\n        /* \"#utility.yul\":4239:4358   */\n    tag_260:\n        /* \"#utility.yul\":4397:4398   */\n      0x00\n        /* \"#utility.yul\":4422:4474   */\n      tag_262\n        /* \"#utility.yul\":4466:4473   */\n      dup6\n        /* \"#utility.yul\":4457:4463   */\n      dup3\n        /* \"#utility.yul\":4446:4455   */\n      dup7\n        /* \"#utility.yul\":4442:4464   */\n      add\n        /* \"#utility.yul\":4422:4474   */\n      tag_151\n      jump\t// in\n    tag_262:\n        /* \"#utility.yul\":4412:4474   */\n      swap3\n      pop\n        /* \"#utility.yul\":4368:4484   */\n      pop\n        /* \"#utility.yul\":4523:4525   */\n      0x20\n        /* \"#utility.yul\":4549:4599   */\n      tag_263\n        /* \"#utility.yul\":4591:4598   */\n      dup6\n        /* \"#utility.yul\":4582:4588   */\n      dup3\n        /* \"#utility.yul\":4571:4580   */\n      dup7\n        /* \"#utility.yul\":4567:4589   */\n      add\n        /* \"#utility.yul\":4549:4599   */\n      tag_165\n      jump\t// in\n    tag_263:\n        /* \"#utility.yul\":4539:4599   */\n      swap2\n      pop\n        /* \"#utility.yul\":4494:4609   */\n      pop\n        /* \"#utility.yul\":4150:4616   */\n      swap3\n      pop\n      swap3\n      swap1\n      pop\n      jump\t// out\n        /* \"#utility.yul\":4622:4951   */\n    tag_33:\n        /* \"#utility.yul\":4681:4687   */\n      0x00\n        /* \"#utility.yul\":4730:4732   */\n      0x20\n        /* \"#utility.yul\":4718:4727   */\n      dup3\n        /* \"#utility.yul\":4709:4716   */\n      dup5\n        /* \"#utility.yul\":4705:4728   */\n      sub\n        /* \"#utility.yul\":4701:4733   */\n      slt\n        /* \"#utility.yul\":4698:4817   */\n      iszero\n      tag_265\n      jumpi\n        /* \"#utility.yul\":4736:4815   */\n      tag_266\n      tag_147\n      jump\t// in\n    tag_266:\n        /* \"#utility.yul\":4698:4817   */\n    tag_265:\n        /* \"#utility.yul\":4856:4857   */\n      0x00\n        /* \"#utility.yul\":4881:4934   */\n      tag_267\n        /* \"#utility.yul\":4926:4933   */\n      dup5\n        /* \"#utility.yul\":4917:4923   */\n      dup3\n        /* \"#utility.yul\":4906:4915   */\n      dup6\n        /* \"#utility.yul\":4902:4924   */\n      add\n        /* \"#utility.yul\":4881:4934   */\n      tag_155\n      jump\t// in\n    tag_267:\n        /* \"#utility.yul\":4871:4934   */\n      swap2\n      pop\n        /* \"#utility.yul\":4827:4944   */\n      pop\n        /* \"#utility.yul\":4622:4951   */\n      swap3\n      swap2\n      pop\n      pop\n      jump\t// out\n        /* \"#utility.yul\":4957:5072   */\n    tag_166:\n        /* \"#utility.yul\":5042:5065   */\n      tag_269\n        /* \"#utility.yul\":5059:5064   */\n      dup2\n        /* \"#utility.yul\":5042:5065   */\n      tag_149\n      jump\t// in\n    tag_269:\n        /* \"#utility.yul\":5037:5040   */\n      dup3\n        /* \"#utility.yul\":5030:5066   */\n      mstore\n        /* \"#utility.yul\":4957:5072   */\n      pop\n      pop\n      jump\t// out\n        /* \"#utility.yul\":5078:5296   */\n    tag_41:\n        /* \"#utility.yul\":5169:5173   */\n      0x00\n        /* \"#utility.yul\":5207:5209   */\n      0x20\n        /* \"#utility.yul\":5196:5205   */\n      dup3\n        /* \"#utility.yul\":5192:5210   */\n      add\n        /* \"#utility.yul\":5184:5210   */\n      swap1\n      pop\n        /* \"#utility.yul\":5220:5289   */\n      tag_271\n        /* \"#utility.yul\":5286:5287   */\n      0x00\n        /* \"#utility.yul\":5275:5284   */\n      dup4\n        /* \"#utility.yul\":5271:5288   */\n      add\n        /* \"#utility.yul\":5262:5268   */\n      dup5\n        /* \"#utility.yul\":5220:5289   */\n      tag_166\n      jump\t// in\n    tag_271:\n        /* \"#utility.yul\":5078:5296   */\n      swap3\n      swap2\n      pop\n      pop\n      jump\t// out\n        /* \"#utility.yul\":5302:5420   */\n    tag_167:\n        /* \"#utility.yul\":5389:5413   */\n      tag_273\n        /* \"#utility.yul\":5407:5412   */\n      dup2\n        /* \"#utility.yul\":5389:5413   */\n      tag_156\n      jump\t// in\n    tag_273:\n        /* \"#utility.yul\":5384:5387   */\n      dup3\n        /* \"#utility.yul\":5377:5414   */\n      mstore\n        /* \"#utility.yul\":5302:5420   */\n      pop\n      pop\n      jump\t// out\n        /* \"#utility.yul\":5426:5648   */\n    tag_47:\n        /* \"#utility.yul\":5519:5523   */\n      0x00\n        /* \"#utility.yul\":5557:5559   */\n      0x20\n        /* \"#utility.yul\":5546:5555   */\n      dup3\n        /* \"#utility.yul\":5542:5560   */\n      add\n        /* \"#utility.yul\":5534:5560   */\n      swap1\n      pop\n        /* \"#utility.yul\":5570:5641   */\n      tag_275\n        /* \"#utility.yul\":5638:5639   */\n      0x00\n        /* \"#utility.yul\":5627:5636   */\n      dup4\n        /* \"#utility.yul\":5623:5640   */\n      add\n        /* \"#utility.yul\":5614:5620   */\n      dup5\n        /* \"#utility.yul\":5570:5641   */\n      tag_167\n      jump\t// in\n    tag_275:\n        /* \"#utility.yul\":5426:5648   */\n      swap3\n      swap2\n      pop\n      pop\n      jump\t// out\n        /* \"#utility.yul\":5654:5834   */\n    tag_50:\n        /* \"#utility.yul\":5702:5779   */\n      0x4e487b7100000000000000000000000000000000000000000000000000000000\n        /* \"#utility.yul\":5699:5700   */\n      0x00\n        /* \"#utility.yul\":5692:5780   */\n      mstore\n        /* \"#utility.yul\":5799:5803   */\n      0x41\n        /* \"#utility.yul\":5796:5797   */\n      0x04\n        /* \"#utility.yul\":5789:5804   */\n      mstore\n        /* \"#utility.yul\":5823:5827   */\n      0x24\n        /* \"#utility.yul\":5820:5821   */\n      0x00\n        /* \"#utility.yul\":5813:5828   */\n      revert\n        /* \"#utility.yul\":5840:5938   */\n    tag_168:\n        /* \"#utility.yul\":5891:5897   */\n      0x00\n        /* \"#utility.yul\":5925:5930   */\n      dup2\n        /* \"#utility.yul\":5919:5931   */\n      mload\n        /* \"#utility.yul\":5909:5931   */\n      swap1\n      pop\n        /* \"#utility.yul\":5840:5938   */\n      swap2\n      swap1\n      pop\n      jump\t// out\n        /* \"#utility.yul\":5944:6102   */\n    tag_169:\n        /* \"#utility.yul\":6017:6028   */\n      0x00\n        /* \"#utility.yul\":6051:6057   */\n      dup3\n        /* \"#utility.yul\":6046:6049   */\n      dup3\n        /* \"#utility.yul\":6039:6058   */\n      mstore\n        /* \"#utility.yul\":6091:6095   */\n      0x20\n        /* \"#utility.yul\":6086:6089   */\n      dup3\n        /* \"#utility.yul\":6082:6096   */\n      add\n        /* \"#utility.yul\":6067:6096   */\n      swap1\n      pop\n        /* \"#utility.yul\":5944:6102   */\n      swap3\n      swap2\n      pop\n      pop\n      jump\t// out\n        /* \"#utility.yul\":6108:6354   */\n    tag_170:\n        /* \"#utility.yul\":6189:6190   */\n      0x00\n        /* \"#utility.yul\":6199:6312   */\n    tag_280:\n        /* \"#utility.yul\":6213:6219   */\n      dup4\n        /* \"#utility.yul\":6210:6211   */\n      dup2\n        /* \"#utility.yul\":6207:6220   */\n      lt\n        /* \"#utility.yul\":6199:6312   */\n      iszero\n      tag_282\n      jumpi\n        /* \"#utility.yul\":6298:6299   */\n      dup1\n        /* \"#utility.yul\":6293:6296   */\n      dup3\n        /* \"#utility.yul\":6289:6300   */\n      add\n        /* \"#utility.yul\":6283:6301   */\n      mload\n        /* \"#utility.yul\":6279:6280   */\n      dup2\n        /* \"#utility.yul\":6274:6277   */\n      dup5\n        /* \"#utility.yul\":6270:6281   */\n      add\n        /* \"#utility.yul\":6263:6302   */\n      mstore\n        /* \"#utility.yul\":6235:6237   */\n      0x20\n        /* \"#utility.yul\":6232:6233   */\n      dup2\n        /* \"#utility.yul\":6228:6238   */\n      add\n        /* \"#utility.yul\":6223:6238   */\n      swap1\n      pop\n        /* \"#utility.yul\":6199:6312   */\n      jump(tag_280)\n    tag_282:\n        /* \"#utility.yul\":6346:6347   */\n      0x00\n        /* \"#utility.yul\":6337:6343   */\n      dup5\n        /* \"#utility.yul\":6332:6335   */\n      dup5\n        /* \"#utility.yul\":6328:6344   */\n      add\n        /* \"#utility.yul\":6321:6348   */\n      mstore\n        /* \"#utility.yul\":6170:6354   */\n      pop\n        /* \"#utility.yul\":6108:6354   */\n      pop\n      pop\n      pop\n      jump\t// out\n        /* \"#utility.yul\":6360:6462   */\n    tag_171:\n        /* \"#utility.yul\":6401:6407   */\n      0x00\n        /* \"#utility.yul\":6452:6454   */\n      0x1f\n        /* \"#utility.yul\":6448:6455   */\n      not\n        /* \"#utility.yul\":6443:6445   */\n      0x1f\n        /* \"#utility.yul\":6436:6441   */\n      dup4\n        /* \"#utility.yul\":6432:6446   */\n      add\n        /* \"#utility.yul\":6428:6456   */\n      and\n        /* \"#utility.yul\":6418:6456   */\n      swap1\n      pop\n        /* \"#utility.yul\":6360:6462   */\n      swap2\n      swap1\n      pop\n      jump\t// out\n        /* \"#utility.yul\":6468:6821   */\n    tag_172:\n        /* \"#utility.yul\":6544:6547   */\n      0x00\n        /* \"#utility.yul\":6572:6610   */\n      tag_285\n        /* \"#utility.yul\":6604:6609   */\n      dup3\n        /* \"#utility.yul\":6572:6610   */\n      tag_168\n      jump\t// in\n    tag_285:\n        /* \"#utility.yul\":6626:6686   */\n      tag_286\n        /* \"#utility.yul\":6679:6685   */\n      dup2\n        /* \"#utility.yul\":6674:6677   */\n      dup6\n        /* \"#utility.yul\":6626:6686   */\n      tag_169\n      jump\t// in\n    tag_286:\n        /* \"#utility.yul\":6619:6686   */\n      swap4\n      pop\n        /* \"#utility.yul\":6695:6760   */\n      tag_287\n        /* \"#utility.yul\":6753:6759   */\n      dup2\n        /* \"#utility.yul\":6748:6751   */\n      dup6\n        /* \"#utility.yul\":6741:6745   */\n      0x20\n        /* \"#utility.yul\":6734:6739   */\n      dup7\n        /* \"#utility.yul\":6730:6746   */\n      add\n        /* \"#utility.yul\":6695:6760   */\n      tag_170\n      jump\t// in\n    tag_287:\n        /* \"#utility.yul\":6785:6814   */\n      tag_288\n        /* \"#utility.yul\":6807:6813   */\n      dup2\n        /* \"#utility.yul\":6785:6814   */\n      tag_171\n      jump\t// in\n    tag_288:\n        /* \"#utility.yul\":6780:6783   */\n      dup5\n        /* \"#utility.yul\":6776:6815   */\n      add\n        /* \"#utility.yul\":6769:6815   */\n      swap2\n      pop\n        /* \"#utility.yul\":6548:6821   */\n      pop\n        /* \"#utility.yul\":6468:6821   */\n      swap3\n      swap2\n      pop\n      pop\n      jump\t// out\n        /* \"#utility.yul\":6827:6971   */\n    tag_173:\n        /* \"#utility.yul\":6924:6930   */\n      0x00\n        /* \"#utility.yul\":6958:6963   */\n      dup2\n        /* \"#utility.yul\":6952:6964   */\n      mload\n        /* \"#utility.yul\":6942:6964   */\n      swap1\n      pop\n        /* \"#utility.yul\":6827:6971   */\n      swap2\n      swap1\n      pop\n      jump\t// out\n        /* \"#utility.yul\":6977:7181   */\n    tag_174:\n        /* \"#utility.yul\":7096:7107   */\n      0x00\n        /* \"#utility.yul\":7130:7136   */\n      dup3\n        /* \"#utility.yul\":7125:7128   */\n      dup3\n        /* \"#utility.yul\":7118:7137   */\n      mstore\n        /* \"#utility.yul\":7170:7174   */\n      0x20\n        /* \"#utility.yul\":7165:7168   */\n      dup3\n        /* \"#utility.yul\":7161:7175   */\n      add\n        /* \"#utility.yul\":7146:7175   */\n      swap1\n      pop\n        /* \"#utility.yul\":6977:7181   */\n      swap3\n      swap2\n      pop\n      pop\n      jump\t// out\n        /* \"#utility.yul\":7187:7349   */\n    tag_175:\n        /* \"#utility.yul\":7284:7288   */\n      0x00\n        /* \"#utility.yul\":7307:7310   */\n      dup2\n        /* \"#utility.yul\":7299:7310   */\n      swap1\n      pop\n        /* \"#utility.yul\":7337:7341   */\n      0x20\n        /* \"#utility.yul\":7332:7335   */\n      dup3\n        /* \"#utility.yul\":7328:7342   */\n      add\n        /* \"#utility.yul\":7320:7342   */\n      swap1\n      pop\n        /* \"#utility.yul\":7187:7349   */\n      swap2\n      swap1\n      pop\n      jump\t// out\n        /* \"#utility.yul\":7355:7463   */\n    tag_176:\n        /* \"#utility.yul\":7432:7456   */\n      tag_293\n        /* \"#utility.yul\":7450:7455   */\n      dup2\n        /* \"#utility.yul\":7432:7456   */\n      tag_153\n      jump\t// in\n    tag_293:\n        /* \"#utility.yul\":7427:7430   */\n      dup3\n        /* \"#utility.yul\":7420:7457   */\n      mstore\n        /* \"#utility.yul\":7355:7463   */\n      pop\n      pop\n      jump\t// out\n        /* \"#utility.yul\":7469:7577   */\n    tag_177:\n        /* \"#utility.yul\":7546:7570   */\n      tag_295\n        /* \"#utility.yul\":7564:7569   */\n      dup2\n        /* \"#utility.yul\":7546:7570   */\n      tag_156\n      jump\t// in\n    tag_295:\n        /* \"#utility.yul\":7541:7544   */\n      dup3\n        /* \"#utility.yul\":7534:7571   */\n      mstore\n        /* \"#utility.yul\":7469:7577   */\n      pop\n      pop\n      jump\t// out\n        /* \"#utility.yul\":7651:8161   */\n    tag_178:\n        /* \"#utility.yul\":7798:7802   */\n      0x40\n        /* \"#utility.yul\":7793:7796   */\n      dup3\n        /* \"#utility.yul\":7789:7803   */\n      add\n        /* \"#utility.yul\":7886:7890   */\n      0x00\n        /* \"#utility.yul\":7879:7884   */\n      dup3\n        /* \"#utility.yul\":7875:7891   */\n      add\n        /* \"#utility.yul\":7869:7892   */\n      mload\n        /* \"#utility.yul\":7905:7968   */\n      tag_297\n        /* \"#utility.yul\":7962:7966   */\n      0x00\n        /* \"#utility.yul\":7957:7960   */\n      dup6\n        /* \"#utility.yul\":7953:7967   */\n      add\n        /* \"#utility.yul\":7939:7951   */\n      dup3\n        /* \"#utility.yul\":7905:7968   */\n      tag_176\n      jump\t// in\n    tag_297:\n        /* \"#utility.yul\":7813:7978   */\n      pop\n        /* \"#utility.yul\":8062:8066   */\n      0x20\n        /* \"#utility.yul\":8055:8060   */\n      dup3\n        /* \"#utility.yul\":8051:8067   */\n      add\n        /* \"#utility.yul\":8045:8068   */\n      mload\n        /* \"#utility.yul\":8081:8144   */\n      tag_298\n        /* \"#utility.yul\":8138:8142   */\n      0x20\n        /* \"#utility.yul\":8133:8136   */\n      dup6\n        /* \"#utility.yul\":8129:8143   */\n      add\n        /* \"#utility.yul\":8115:8127   */\n      dup3\n        /* \"#utility.yul\":8081:8144   */\n      tag_177\n      jump\t// in\n    tag_298:\n        /* \"#utility.yul\":7988:8154   */\n      pop\n        /* \"#utility.yul\":7767:8161   */\n      pop\n        /* \"#utility.yul\":7651:8161   */\n      pop\n      pop\n      jump\t// out\n        /* \"#utility.yul\":8167:8466   */\n    tag_179:\n        /* \"#utility.yul\":8296:8306   */\n      0x00\n        /* \"#utility.yul\":8317:8423   */\n      tag_300\n        /* \"#utility.yul\":8419:8422   */\n      dup4\n        /* \"#utility.yul\":8411:8417   */\n      dup4\n        /* \"#utility.yul\":8317:8423   */\n      tag_178\n      jump\t// in\n    tag_300:\n        /* \"#utility.yul\":8455:8459   */\n      0x40\n        /* \"#utility.yul\":8450:8453   */\n      dup4\n        /* \"#utility.yul\":8446:8460   */\n      add\n        /* \"#utility.yul\":8432:8460   */\n      swap1\n      pop\n        /* \"#utility.yul\":8167:8466   */\n      swap3\n      swap2\n      pop\n      pop\n      jump\t// out\n        /* \"#utility.yul\":8472:8615   */\n    tag_180:\n        /* \"#utility.yul\":8572:8576   */\n      0x00\n        /* \"#utility.yul\":8604:8608   */\n      0x20\n        /* \"#utility.yul\":8599:8602   */\n      dup3\n        /* \"#utility.yul\":8595:8609   */\n      add\n        /* \"#utility.yul\":8587:8609   */\n      swap1\n      pop\n        /* \"#utility.yul\":8472:8615   */\n      swap2\n      swap1\n      pop\n      jump\t// out\n        /* \"#utility.yul\":8693:9645   */\n    tag_181:\n        /* \"#utility.yul\":8862:8865   */\n      0x00\n        /* \"#utility.yul\":8891:8975   */\n      tag_303\n        /* \"#utility.yul\":8969:8974   */\n      dup3\n        /* \"#utility.yul\":8891:8975   */\n      tag_173\n      jump\t// in\n    tag_303:\n        /* \"#utility.yul\":8991:9097   */\n      tag_304\n        /* \"#utility.yul\":9090:9096   */\n      dup2\n        /* \"#utility.yul\":9085:9088   */\n      dup6\n        /* \"#utility.yul\":8991:9097   */\n      tag_174\n      jump\t// in\n    tag_304:\n        /* \"#utility.yul\":8984:9097   */\n      swap4\n      pop\n        /* \"#utility.yul\":9121:9207   */\n      tag_305\n        /* \"#utility.yul\":9201:9206   */\n      dup4\n        /* \"#utility.yul\":9121:9207   */\n      tag_175\n      jump\t// in\n    tag_305:\n        /* \"#utility.yul\":9230:9237   */\n      dup1\n        /* \"#utility.yul\":9261:9262   */\n      0x00\n        /* \"#utility.yul\":9246:9620   */\n    tag_306:\n        /* \"#utility.yul\":9271:9277   */\n      dup4\n        /* \"#utility.yul\":9268:9269   */\n      dup2\n        /* \"#utility.yul\":9265:9278   */\n      lt\n        /* \"#utility.yul\":9246:9620   */\n      iszero\n      tag_308\n      jumpi\n        /* \"#utility.yul\":9347:9353   */\n      dup2\n        /* \"#utility.yul\":9341:9354   */\n      mload\n        /* \"#utility.yul\":9374:9497   */\n      tag_309\n        /* \"#utility.yul\":9493:9496   */\n      dup9\n        /* \"#utility.yul\":9478:9491   */\n      dup3\n        /* \"#utility.yul\":9374:9497   */\n      tag_179\n      jump\t// in\n    tag_309:\n        /* \"#utility.yul\":9367:9497   */\n      swap8\n      pop\n        /* \"#utility.yul\":9520:9610   */\n      tag_310\n        /* \"#utility.yul\":9603:9609   */\n      dup4\n        /* \"#utility.yul\":9520:9610   */\n      tag_180\n      jump\t// in\n    tag_310:\n        /* \"#utility.yul\":9510:9610   */\n      swap3\n      pop\n        /* \"#utility.yul\":9306:9620   */\n      pop\n        /* \"#utility.yul\":9293:9294   */\n      0x01\n        /* \"#utility.yul\":9290:9291   */\n      dup2\n        /* \"#utility.yul\":9286:9295   */\n      add\n        /* \"#utility.yul\":9281:9295   */\n      swap1\n      pop\n        /* \"#utility.yul\":9246:9620   */\n      jump(tag_306)\n    tag_308:\n        /* \"#utility.yul\":9250:9264   */\n      pop\n        /* \"#utility.yul\":9636:9639   */\n      dup6\n        /* \"#utility.yul\":9629:9639   */\n      swap4\n      pop\n        /* \"#utility.yul\":8867:9645   */\n      pop\n      pop\n      pop\n        /* \"#utility.yul\":8693:9645   */\n      swap3\n      swap2\n      pop\n      pop\n      jump\t// out\n        /* \"#utility.yul\":9719:11175   */\n    tag_182:\n        /* \"#utility.yul\":9848:9851   */\n      0x00\n        /* \"#utility.yul\":9884:9888   */\n      0xa0\n        /* \"#utility.yul\":9879:9882   */\n      dup4\n        /* \"#utility.yul\":9875:9889   */\n      add\n        /* \"#utility.yul\":9975:9979   */\n      0x00\n        /* \"#utility.yul\":9968:9973   */\n      dup4\n        /* \"#utility.yul\":9964:9980   */\n      add\n        /* \"#utility.yul\":9958:9981   */\n      mload\n        /* \"#utility.yul\":10028:10031   */\n      dup5\n        /* \"#utility.yul\":10022:10026   */\n      dup3\n        /* \"#utility.yul\":10018:10032   */\n      sub\n        /* \"#utility.yul\":10011:10015   */\n      0x00\n        /* \"#utility.yul\":10006:10009   */\n      dup7\n        /* \"#utility.yul\":10002:10016   */\n      add\n        /* \"#utility.yul\":9995:10033   */\n      mstore\n        /* \"#utility.yul\":10054:10125   */\n      tag_312\n        /* \"#utility.yul\":10120:10124   */\n      dup3\n        /* \"#utility.yul\":10106:10118   */\n      dup3\n        /* \"#utility.yul\":10054:10125   */\n      tag_172\n      jump\t// in\n    tag_312:\n        /* \"#utility.yul\":10046:10125   */\n      swap2\n      pop\n        /* \"#utility.yul\":9899:10136   */\n      pop\n        /* \"#utility.yul\":10218:10222   */\n      0x20\n        /* \"#utility.yul\":10211:10216   */\n      dup4\n        /* \"#utility.yul\":10207:10223   */\n      add\n        /* \"#utility.yul\":10201:10224   */\n      mload\n        /* \"#utility.yul\":10271:10274   */\n      dup5\n        /* \"#utility.yul\":10265:10269   */\n      dup3\n        /* \"#utility.yul\":10261:10275   */\n      sub\n        /* \"#utility.yul\":10254:10258   */\n      0x20\n        /* \"#utility.yul\":10249:10252   */\n      dup7\n        /* \"#utility.yul\":10245:10259   */\n      add\n        /* \"#utility.yul\":10238:10276   */\n      mstore\n        /* \"#utility.yul\":10297:10368   */\n      tag_313\n        /* \"#utility.yul\":10363:10367   */\n      dup3\n        /* \"#utility.yul\":10349:10361   */\n      dup3\n        /* \"#utility.yul\":10297:10368   */\n      tag_172\n      jump\t// in\n    tag_313:\n        /* \"#utility.yul\":10289:10368   */\n      swap2\n      pop\n        /* \"#utility.yul\":10146:10379   */\n      pop\n        /* \"#utility.yul\":10469:10473   */\n      0x40\n        /* \"#utility.yul\":10462:10467   */\n      dup4\n        /* \"#utility.yul\":10458:10474   */\n      add\n        /* \"#utility.yul\":10452:10475   */\n      mload\n        /* \"#utility.yul\":10522:10525   */\n      dup5\n        /* \"#utility.yul\":10516:10520   */\n      dup3\n        /* \"#utility.yul\":10512:10526   */\n      sub\n        /* \"#utility.yul\":10505:10509   */\n      0x40\n        /* \"#utility.yul\":10500:10503   */\n      dup7\n        /* \"#utility.yul\":10496:10510   */\n      add\n        /* \"#utility.yul\":10489:10527   */\n      mstore\n        /* \"#utility.yul\":10548:10711   */\n      tag_314\n        /* \"#utility.yul\":10706:10710   */\n      dup3\n        /* \"#utility.yul\":10692:10704   */\n      dup3\n        /* \"#utility.yul\":10548:10711   */\n      tag_181\n      jump\t// in\n    tag_314:\n        /* \"#utility.yul\":10540:10711   */\n      swap2\n      pop\n        /* \"#utility.yul\":10389:10722   */\n      pop\n        /* \"#utility.yul\":10808:10812   */\n      0x60\n        /* \"#utility.yul\":10801:10806   */\n      dup4\n        /* \"#utility.yul\":10797:10813   */\n      add\n        /* \"#utility.yul\":10791:10814   */\n      mload\n        /* \"#utility.yul\":10827:10890   */\n      tag_315\n        /* \"#utility.yul\":10884:10888   */\n      0x60\n        /* \"#utility.yul\":10879:10882   */\n      dup7\n        /* \"#utility.yul\":10875:10889   */\n      add\n        /* \"#utility.yul\":10861:10873   */\n      dup3\n        /* \"#utility.yul\":10827:10890   */\n      tag_176\n      jump\t// in\n    tag_315:\n        /* \"#utility.yul\":10732:10900   */\n      pop\n        /* \"#utility.yul\":10987:10991   */\n      0x80\n        /* \"#utility.yul\":10980:10985   */\n      dup4\n        /* \"#utility.yul\":10976:10992   */\n      add\n        /* \"#utility.yul\":10970:10993   */\n      mload\n        /* \"#utility.yul\":11040:11043   */\n      dup5\n        /* \"#utility.yul\":11034:11038   */\n      dup3\n        /* \"#utility.yul\":11030:11044   */\n      sub\n        /* \"#utility.yul\":11023:11027   */\n      0x80\n        /* \"#utility.yul\":11018:11021   */\n      dup7\n        /* \"#utility.yul\":11014:11028   */\n      add\n        /* \"#utility.yul\":11007:11045   */\n      mstore\n        /* \"#utility.yul\":11066:11137   */\n      tag_316\n        /* \"#utility.yul\":11132:11136   */\n      dup3\n        /* \"#utility.yul\":11118:11130   */\n      dup3\n        /* \"#utility.yul\":11066:11137   */\n      tag_172\n      jump\t// in\n    tag_316:\n        /* \"#utility.yul\":11058:11137   */\n      swap2\n      pop\n        /* \"#utility.yul\":10910:11148   */\n      pop\n        /* \"#utility.yul\":11165:11169   */\n      dup1\n        /* \"#utility.yul\":11158:11169   */\n      swap2\n      pop\n        /* \"#utility.yul\":9853:11175   */\n      pop\n        /* \"#utility.yul\":9719:11175   */\n      swap3\n      swap2\n      pop\n      pop\n      jump\t// out\n        /* \"#utility.yul\":11181:11680   */\n    tag_58:\n        /* \"#utility.yul\":11360:11364   */\n      0x00\n        /* \"#utility.yul\":11398:11400   */\n      0x40\n        /* \"#utility.yul\":11387:11396   */\n      dup3\n        /* \"#utility.yul\":11383:11401   */\n      add\n        /* \"#utility.yul\":11375:11401   */\n      swap1\n      pop\n        /* \"#utility.yul\":11411:11480   */\n      tag_318\n        /* \"#utility.yul\":11477:11478   */\n      0x00\n        /* \"#utility.yul\":11466:11475   */\n      dup4\n        /* \"#utility.yul\":11462:11479   */\n      add\n        /* \"#utility.yul\":11453:11459   */\n      dup6\n        /* \"#utility.yul\":11411:11480   */\n      tag_166\n      jump\t// in\n    tag_318:\n        /* \"#utility.yul\":11527:11536   */\n      dup2\n        /* \"#utility.yul\":11521:11525   */\n      dup2\n        /* \"#utility.yul\":11517:11537   */\n      sub\n        /* \"#utility.yul\":11512:11514   */\n      0x20\n        /* \"#utility.yul\":11501:11510   */\n      dup4\n        /* \"#utility.yul\":11497:11515   */\n      add\n        /* \"#utility.yul\":11490:11538   */\n      mstore\n        /* \"#utility.yul\":11555:11673   */\n      tag_319\n        /* \"#utility.yul\":11668:11672   */\n      dup2\n        /* \"#utility.yul\":11659:11665   */\n      dup5\n        /* \"#utility.yul\":11555:11673   */\n      tag_182\n      jump\t// in\n    tag_319:\n        /* \"#utility.yul\":11547:11673   */\n      swap1\n      pop\n        /* \"#utility.yul\":11181:11680   */\n      swap4\n      swap3\n      pop\n      pop\n      pop\n      jump\t// out\n        /* \"#utility.yul\":11686:11829   */\n    tag_183:\n        /* \"#utility.yul\":11743:11748   */\n      0x00\n        /* \"#utility.yul\":11774:11780   */\n      dup2\n        /* \"#utility.yul\":11768:11781   */\n      mload\n        /* \"#utility.yul\":11759:11781   */\n      swap1\n      pop\n        /* \"#utility.yul\":11790:11823   */\n      tag_321\n        /* \"#utility.yul\":11817:11822   */\n      dup2\n        /* \"#utility.yul\":11790:11823   */\n      tag_157\n      jump\t// in\n    tag_321:\n        /* \"#utility.yul\":11686:11829   */\n      swap3\n      swap2\n      pop\n      pop\n      jump\t// out\n        /* \"#utility.yul\":11835:12186   */\n    tag_62:\n        /* \"#utility.yul\":11905:11911   */\n      0x00\n        /* \"#utility.yul\":11954:11956   */\n      0x20\n        /* \"#utility.yul\":11942:11951   */\n      dup3\n        /* \"#utility.yul\":11933:11940   */\n      dup5\n        /* \"#utility.yul\":11929:11952   */\n      sub\n        /* \"#utility.yul\":11925:11957   */\n      slt\n        /* \"#utility.yul\":11922:12041   */\n      iszero\n      tag_323\n      jumpi\n        /* \"#utility.yul\":11960:12039   */\n      tag_324\n      tag_147\n      jump\t// in\n    tag_324:\n        /* \"#utility.yul\":11922:12041   */\n    tag_323:\n        /* \"#utility.yul\":12080:12081   */\n      0x00\n        /* \"#utility.yul\":12105:12169   */\n      tag_325\n        /* \"#utility.yul\":12161:12168   */\n      dup5\n        /* \"#utility.yul\":12152:12158   */\n      dup3\n        /* \"#utility.yul\":12141:12150   */\n      dup6\n        /* \"#utility.yul\":12137:12159   */\n      add\n        /* \"#utility.yul\":12105:12169   */\n      tag_183\n      jump\t// in\n    tag_325:\n        /* \"#utility.yul\":12095:12169   */\n      swap2\n      pop\n        /* \"#utility.yul\":12051:12179   */\n      pop\n        /* \"#utility.yul\":11835:12186   */\n      swap3\n      swap2\n      pop\n      pop\n      jump\t// out\n        /* \"#utility.yul\":12192:12524   */\n    tag_66:\n        /* \"#utility.yul\":12313:12317   */\n      0x00\n        /* \"#utility.yul\":12351:12353   */\n      0x40\n        /* \"#utility.yul\":12340:12349   */\n      dup3\n        /* \"#utility.yul\":12336:12354   */\n      add\n        /* \"#utility.yul\":12328:12354   */\n      swap1\n      pop\n        /* \"#utility.yul\":12364:12435   */\n      tag_327\n        /* \"#utility.yul\":12432:12433   */\n      0x00\n        /* \"#utility.yul\":12421:12430   */\n      dup4\n        /* \"#utility.yul\":12417:12434   */\n      add\n        /* \"#utility.yul\":12408:12414   */\n      dup6\n        /* \"#utility.yul\":12364:12435   */\n      tag_163\n      jump\t// in\n    tag_327:\n        /* \"#utility.yul\":12445:12517   */\n      tag_328\n        /* \"#utility.yul\":12513:12515   */\n      0x20\n        /* \"#utility.yul\":12502:12511   */\n      dup4\n        /* \"#utility.yul\":12498:12516   */\n      add\n        /* \"#utility.yul\":12489:12495   */\n      dup5\n        /* \"#utility.yul\":12445:12517   */\n      tag_167\n      jump\t// in\n    tag_328:\n        /* \"#utility.yul\":12192:12524   */\n      swap4\n      swap3\n      pop\n      pop\n      pop\n      jump\t// out\n        /* \"#utility.yul\":12530:12667   */\n    tag_184:\n        /* \"#utility.yul\":12584:12589   */\n      0x00\n        /* \"#utility.yul\":12615:12621   */\n      dup2\n        /* \"#utility.yul\":12609:12622   */\n      mload\n        /* \"#utility.yul\":12600:12622   */\n      swap1\n      pop\n        /* \"#utility.yul\":12631:12661   */\n      tag_330\n        /* \"#utility.yul\":12655:12660   */\n      dup2\n        /* \"#utility.yul\":12631:12661   */\n      tag_164\n      jump\t// in\n    tag_330:\n        /* \"#utility.yul\":12530:12667   */\n      swap3\n      swap2\n      pop\n      pop\n      jump\t// out\n        /* \"#utility.yul\":12673:13018   */\n    tag_70:\n        /* \"#utility.yul\":12740:12746   */\n      0x00\n        /* \"#utility.yul\":12789:12791   */\n      0x20\n        /* \"#utility.yul\":12777:12786   */\n      dup3\n        /* \"#utility.yul\":12768:12775   */\n      dup5\n        /* \"#utility.yul\":12764:12787   */\n      sub\n        /* \"#utility.yul\":12760:12792   */\n      slt\n        /* \"#utility.yul\":12757:12876   */\n      iszero\n      tag_332\n      jumpi\n        /* \"#utility.yul\":12795:12874   */\n      tag_333\n      tag_147\n      jump\t// in\n    tag_333:\n        /* \"#utility.yul\":12757:12876   */\n    tag_332:\n        /* \"#utility.yul\":12915:12916   */\n      0x00\n        /* \"#utility.yul\":12940:13001   */\n      tag_334\n        /* \"#utility.yul\":12993:13000   */\n      dup5\n        /* \"#utility.yul\":12984:12990   */\n      dup3\n        /* \"#utility.yul\":12973:12982   */\n      dup6\n        /* \"#utility.yul\":12969:12991   */\n      add\n        /* \"#utility.yul\":12940:13001   */\n      tag_184\n      jump\t// in\n    tag_334:\n        /* \"#utility.yul\":12930:13001   */\n      swap2\n      pop\n        /* \"#utility.yul\":12886:13011   */\n      pop\n        /* \"#utility.yul\":12673:13018   */\n      swap3\n      swap2\n      pop\n      pop\n      jump\t// out\n        /* \"#utility.yul\":13024:13146   */\n    tag_185:\n        /* \"#utility.yul\":13097:13121   */\n      tag_336\n        /* \"#utility.yul\":13115:13120   */\n      dup2\n        /* \"#utility.yul\":13097:13121   */\n      tag_159\n      jump\t// in\n    tag_336:\n        /* \"#utility.yul\":13090:13095   */\n      dup2\n        /* \"#utility.yul\":13087:13122   */\n      eq\n        /* \"#utility.yul\":13077:13140   */\n      tag_337\n      jumpi\n        /* \"#utility.yul\":13136:13137   */\n      0x00\n        /* \"#utility.yul\":13133:13134   */\n      dup1\n        /* \"#utility.yul\":13126:13138   */\n      revert\n        /* \"#utility.yul\":13077:13140   */\n    tag_337:\n        /* \"#utility.yul\":13024:13146   */\n      pop\n      jump\t// out\n        /* \"#utility.yul\":13152:13295   */\n    tag_186:\n        /* \"#utility.yul\":13209:13214   */\n      0x00\n        /* \"#utility.yul\":13240:13246   */\n      dup2\n        /* \"#utility.yul\":13234:13247   */\n      mload\n        /* \"#utility.yul\":13225:13247   */\n      swap1\n      pop\n        /* \"#utility.yul\":13256:13289   */\n      tag_339\n        /* \"#utility.yul\":13283:13288   */\n      dup2\n        /* \"#utility.yul\":13256:13289   */\n      tag_185\n      jump\t// in\n    tag_339:\n        /* \"#utility.yul\":13152:13295   */\n      swap3\n      swap2\n      pop\n      pop\n      jump\t// out\n        /* \"#utility.yul\":13301:13652   */\n    tag_75:\n        /* \"#utility.yul\":13371:13377   */\n      0x00\n        /* \"#utility.yul\":13420:13422   */\n      0x20\n        /* \"#utility.yul\":13408:13417   */\n      dup3\n        /* \"#utility.yul\":13399:13406   */\n      dup5\n        /* \"#utility.yul\":13395:13418   */\n      sub\n        /* \"#utility.yul\":13391:13423   */\n      slt\n        /* \"#utility.yul\":13388:13507   */\n      iszero\n      tag_341\n      jumpi\n        /* \"#utility.yul\":13426:13505   */\n      tag_342\n      tag_147\n      jump\t// in\n    tag_342:\n        /* \"#utility.yul\":13388:13507   */\n    tag_341:\n        /* \"#utility.yul\":13546:13547   */\n      0x00\n        /* \"#utility.yul\":13571:13635   */\n      tag_343\n        /* \"#utility.yul\":13627:13634   */\n      dup5\n        /* \"#utility.yul\":13618:13624   */\n      dup3\n        /* \"#utility.yul\":13607:13616   */\n      dup6\n        /* \"#utility.yul\":13603:13625   */\n      add\n        /* \"#utility.yul\":13571:13635   */\n      tag_186\n      jump\t// in\n    tag_343:\n        /* \"#utility.yul\":13561:13635   */\n      swap2\n      pop\n        /* \"#utility.yul\":13517:13645   */\n      pop\n        /* \"#utility.yul\":13301:13652   */\n      swap3\n      swap2\n      pop\n      pop\n      jump\t// out\n        /* \"#utility.yul\":13658:14211   */\n    tag_77:\n        /* \"#utility.yul\":13835:13839   */\n      0x00\n        /* \"#utility.yul\":13873:13876   */\n      0x80\n        /* \"#utility.yul\":13862:13871   */\n      dup3\n        /* \"#utility.yul\":13858:13877   */\n      add\n        /* \"#utility.yul\":13850:13877   */\n      swap1\n      pop\n        /* \"#utility.yul\":13887:13958   */\n      tag_345\n        /* \"#utility.yul\":13955:13956   */\n      0x00\n        /* \"#utility.yul\":13944:13953   */\n      dup4\n        /* \"#utility.yul\":13940:13957   */\n      add\n        /* \"#utility.yul\":13931:13937   */\n      dup8\n        /* \"#utility.yul\":13887:13958   */\n      tag_163\n      jump\t// in\n    tag_345:\n        /* \"#utility.yul\":13968:14040   */\n      tag_346\n        /* \"#utility.yul\":14036:14038   */\n      0x20\n        /* \"#utility.yul\":14025:14034   */\n      dup4\n        /* \"#utility.yul\":14021:14039   */\n      add\n        /* \"#utility.yul\":14012:14018   */\n      dup7\n        /* \"#utility.yul\":13968:14040   */\n      tag_167\n      jump\t// in\n    tag_346:\n        /* \"#utility.yul\":14050:14122   */\n      tag_347\n        /* \"#utility.yul\":14118:14120   */\n      0x40\n        /* \"#utility.yul\":14107:14116   */\n      dup4\n        /* \"#utility.yul\":14103:14121   */\n      add\n        /* \"#utility.yul\":14094:14100   */\n      dup6\n        /* \"#utility.yul\":14050:14122   */\n      tag_163\n      jump\t// in\n    tag_347:\n        /* \"#utility.yul\":14132:14204   */\n      tag_348\n        /* \"#utility.yul\":14200:14202   */\n      0x60\n        /* \"#utility.yul\":14189:14198   */\n      dup4\n        /* \"#utility.yul\":14185:14203   */\n      add\n        /* \"#utility.yul\":14176:14182   */\n      dup5\n        /* \"#utility.yul\":14132:14204   */\n      tag_167\n      jump\t// in\n    tag_348:\n        /* \"#utility.yul\":13658:14211   */\n      swap6\n      swap5\n      pop\n      pop\n      pop\n      pop\n      pop\n      jump\t// out\n        /* \"#utility.yul\":14217:14386   */\n    tag_187:\n        /* \"#utility.yul\":14301:14312   */\n      0x00\n        /* \"#utility.yul\":14335:14341   */\n      dup3\n        /* \"#utility.yul\":14330:14333   */\n      dup3\n        /* \"#utility.yul\":14323:14342   */\n      mstore\n        /* \"#utility.yul\":14375:14379   */\n      0x20\n        /* \"#utility.yul\":14370:14373   */\n      dup3\n        /* \"#utility.yul\":14366:14380   */\n      add\n        /* \"#utility.yul\":14351:14380   */\n      swap1\n      pop\n        /* \"#utility.yul\":14217:14386   */\n      swap3\n      swap2\n      pop\n      pop\n      jump\t// out\n        /* \"#utility.yul\":14392:14564   */\n    tag_188:\n        /* \"#utility.yul\":14532:14556   */\n      0x4d7573742062652070726f706f736564206f776e657200000000000000000000\n        /* \"#utility.yul\":14528:14529   */\n      0x00\n        /* \"#utility.yul\":14520:14526   */\n      dup3\n        /* \"#utility.yul\":14516:14530   */\n      add\n        /* \"#utility.yul\":14509:14557   */\n      mstore\n        /* \"#utility.yul\":14392:14564   */\n      pop\n      jump\t// out\n        /* \"#utility.yul\":14570:14936   */\n    tag_189:\n        /* \"#utility.yul\":14712:14715   */\n      0x00\n        /* \"#utility.yul\":14733:14800   */\n      tag_352\n        /* \"#utility.yul\":14797:14799   */\n      0x16\n        /* \"#utility.yul\":14792:14795   */\n      dup4\n        /* \"#utility.yul\":14733:14800   */\n      tag_187\n      jump\t// in\n    tag_352:\n        /* \"#utility.yul\":14726:14800   */\n      swap2\n      pop\n        /* \"#utility.yul\":14809:14902   */\n      tag_353\n        /* \"#utility.yul\":14898:14901   */\n      dup3\n        /* \"#utility.yul\":14809:14902   */\n      tag_188\n      jump\t// in\n    tag_353:\n        /* \"#utility.yul\":14927:14929   */\n      0x20\n        /* \"#utility.yul\":14922:14925   */\n      dup3\n        /* \"#utility.yul\":14918:14930   */\n      add\n        /* \"#utility.yul\":14911:14930   */\n      swap1\n      pop\n        /* \"#utility.yul\":14570:14936   */\n      swap2\n      swap1\n      pop\n      jump\t// out\n        /* \"#utility.yul\":14942:15361   */\n    tag_81:\n        /* \"#utility.yul\":15108:15112   */\n      0x00\n        /* \"#utility.yul\":15146:15148   */\n      0x20\n        /* \"#utility.yul\":15135:15144   */\n      dup3\n        /* \"#utility.yul\":15131:15149   */\n      add\n        /* \"#utility.yul\":15123:15149   */\n      swap1\n      pop\n        /* \"#utility.yul\":15195:15204   */\n      dup2\n        /* \"#utility.yul\":15189:15193   */\n      dup2\n        /* \"#utility.yul\":15185:15205   */\n      sub\n        /* \"#utility.yul\":15181:15182   */\n      0x00\n        /* \"#utility.yul\":15170:15179   */\n      dup4\n        /* \"#utility.yul\":15166:15183   */\n      add\n        /* \"#utility.yul\":15159:15206   */\n      mstore\n        /* \"#utility.yul\":15223:15354   */\n      tag_355\n        /* \"#utility.yul\":15349:15353   */\n      dup2\n        /* \"#utility.yul\":15223:15354   */\n      tag_189\n      jump\t// in\n    tag_355:\n        /* \"#utility.yul\":15215:15354   */\n      swap1\n      pop\n        /* \"#utility.yul\":14942:15361   */\n      swap2\n      swap1\n      pop\n      jump\t// out\n        /* \"#utility.yul\":15367:15539   */\n    tag_190:\n        /* \"#utility.yul\":15507:15531   */\n      0x4f6e6c792063616c6c61626c65206279206f776e657200000000000000000000\n        /* \"#utility.yul\":15503:15504   */\n      0x00\n        /* \"#utility.yul\":15495:15501   */\n      dup3\n        /* \"#utility.yul\":15491:15505   */\n      add\n        /* \"#utility.yul\":15484:15532   */\n      mstore\n        /* \"#utility.yul\":15367:15539   */\n      pop\n      jump\t// out\n        /* \"#utility.yul\":15545:15911   */\n    tag_191:\n        /* \"#utility.yul\":15687:15690   */\n      0x00\n        /* \"#utility.yul\":15708:15775   */\n      tag_358\n        /* \"#utility.yul\":15772:15774   */\n      0x16\n        /* \"#utility.yul\":15767:15770   */\n      dup4\n        /* \"#utility.yul\":15708:15775   */\n      tag_187\n      jump\t// in\n    tag_358:\n        /* \"#utility.yul\":15701:15775   */\n      swap2\n      pop\n        /* \"#utility.yul\":15784:15877   */\n      tag_359\n        /* \"#utility.yul\":15873:15876   */\n      dup3\n        /* \"#utility.yul\":15784:15877   */\n      tag_190\n      jump\t// in\n    tag_359:\n        /* \"#utility.yul\":15902:15904   */\n      0x20\n        /* \"#utility.yul\":15897:15900   */\n      dup3\n        /* \"#utility.yul\":15893:15905   */\n      add\n        /* \"#utility.yul\":15886:15905   */\n      swap1\n      pop\n        /* \"#utility.yul\":15545:15911   */\n      swap2\n      swap1\n      pop\n      jump\t// out\n        /* \"#utility.yul\":15917:16336   */\n    tag_94:\n        /* \"#utility.yul\":16083:16087   */\n      0x00\n        /* \"#utility.yul\":16121:16123   */\n      0x20\n        /* \"#utility.yul\":16110:16119   */\n      dup3\n        /* \"#utility.yul\":16106:16124   */\n      add\n        /* \"#utility.yul\":16098:16124   */\n      swap1\n      pop\n        /* \"#utility.yul\":16170:16179   */\n      dup2\n        /* \"#utility.yul\":16164:16168   */\n      dup2\n        /* \"#utility.yul\":16160:16180   */\n      sub\n        /* \"#utility.yul\":16156:16157   */\n      0x00\n        /* \"#utility.yul\":16145:16154   */\n      dup4\n        /* \"#utility.yul\":16141:16158   */\n      add\n        /* \"#utility.yul\":16134:16181   */\n      mstore\n        /* \"#utility.yul\":16198:16329   */\n      tag_361\n        /* \"#utility.yul\":16324:16328   */\n      dup2\n        /* \"#utility.yul\":16198:16329   */\n      tag_191\n      jump\t// in\n    tag_361:\n        /* \"#utility.yul\":16190:16329   */\n      swap1\n      pop\n        /* \"#utility.yul\":15917:16336   */\n      swap2\n      swap1\n      pop\n      jump\t// out\n        /* \"#utility.yul\":16410:16757   */\n    tag_192:\n        /* \"#utility.yul\":16567:16571   */\n      0x20\n        /* \"#utility.yul\":16562:16565   */\n      dup3\n        /* \"#utility.yul\":16558:16572   */\n      add\n        /* \"#utility.yul\":16658:16662   */\n      0x00\n        /* \"#utility.yul\":16651:16656   */\n      dup3\n        /* \"#utility.yul\":16647:16663   */\n      add\n        /* \"#utility.yul\":16641:16664   */\n      mload\n        /* \"#utility.yul\":16677:16740   */\n      tag_363\n        /* \"#utility.yul\":16734:16738   */\n      0x00\n        /* \"#utility.yul\":16729:16732   */\n      dup6\n        /* \"#utility.yul\":16725:16739   */\n      add\n        /* \"#utility.yul\":16711:16723   */\n      dup3\n        /* \"#utility.yul\":16677:16740   */\n      tag_177\n      jump\t// in\n    tag_363:\n        /* \"#utility.yul\":16582:16750   */\n      pop\n        /* \"#utility.yul\":16536:16757   */\n      pop\n        /* \"#utility.yul\":16410:16757   */\n      pop\n      pop\n      jump\t// out\n        /* \"#utility.yul\":16763:17105   */\n    tag_97:\n        /* \"#utility.yul\":16916:16920   */\n      0x00\n        /* \"#utility.yul\":16954:16956   */\n      0x20\n        /* \"#utility.yul\":16943:16952   */\n      dup3\n        /* \"#utility.yul\":16939:16957   */\n      add\n        /* \"#utility.yul\":16931:16957   */\n      swap1\n      pop\n        /* \"#utility.yul\":16967:17098   */\n      tag_365\n        /* \"#utility.yul\":17095:17096   */\n      0x00\n        /* \"#utility.yul\":17084:17093   */\n      dup4\n        /* \"#utility.yul\":17080:17097   */\n      add\n        /* \"#utility.yul\":17071:17077   */\n      dup5\n        /* \"#utility.yul\":16967:17098   */\n      tag_192\n      jump\t// in\n    tag_365:\n        /* \"#utility.yul\":16763:17105   */\n      swap3\n      swap2\n      pop\n      pop\n      jump\t// out\n        /* \"#utility.yul\":17111:17553   */\n    tag_101:\n        /* \"#utility.yul\":17260:17264   */\n      0x00\n        /* \"#utility.yul\":17298:17300   */\n      0x60\n        /* \"#utility.yul\":17287:17296   */\n      dup3\n        /* \"#utility.yul\":17283:17301   */\n      add\n        /* \"#utility.yul\":17275:17301   */\n      swap1\n      pop\n        /* \"#utility.yul\":17311:17382   */\n      tag_367\n        /* \"#utility.yul\":17379:17380   */\n      0x00\n        /* \"#utility.yul\":17368:17377   */\n      dup4\n        /* \"#utility.yul\":17364:17381   */\n      add\n        /* \"#utility.yul\":17355:17361   */\n      dup7\n        /* \"#utility.yul\":17311:17382   */\n      tag_163\n      jump\t// in\n    tag_367:\n        /* \"#utility.yul\":17392:17464   */\n      tag_368\n        /* \"#utility.yul\":17460:17462   */\n      0x20\n        /* \"#utility.yul\":17449:17458   */\n      dup4\n        /* \"#utility.yul\":17445:17463   */\n      add\n        /* \"#utility.yul\":17436:17442   */\n      dup6\n        /* \"#utility.yul\":17392:17464   */\n      tag_163\n      jump\t// in\n    tag_368:\n        /* \"#utility.yul\":17474:17546   */\n      tag_369\n        /* \"#utility.yul\":17542:17544   */\n      0x40\n        /* \"#utility.yul\":17531:17540   */\n      dup4\n        /* \"#utility.yul\":17527:17545   */\n      add\n        /* \"#utility.yul\":17518:17524   */\n      dup5\n        /* \"#utility.yul\":17474:17546   */\n      tag_167\n      jump\t// in\n    tag_369:\n        /* \"#utility.yul\":17111:17553   */\n      swap5\n      swap4\n      pop\n      pop\n      pop\n      pop\n      jump\t// out\n        /* \"#utility.yul\":17559:17732   */\n    tag_193:\n        /* \"#utility.yul\":17699:17724   */\n      0x43616e6e6f74207472616e7366657220746f2073656c66000000000000000000\n        /* \"#utility.yul\":17695:17696   */\n      0x00\n        /* \"#utility.yul\":17687:17693   */\n      dup3\n        /* \"#utility.yul\":17683:17697   */\n      add\n        /* \"#utility.yul\":17676:17725   */\n      mstore\n        /* \"#utility.yul\":17559:17732   */\n      pop\n      jump\t// out\n        /* \"#utility.yul\":17738:18104   */\n    tag_194:\n        /* \"#utility.yul\":17880:17883   */\n      0x00\n        /* \"#utility.yul\":17901:17968   */\n      tag_372\n        /* \"#utility.yul\":17965:17967   */\n      0x17\n        /* \"#utility.yul\":17960:17963   */\n      dup4\n        /* \"#utility.yul\":17901:17968   */\n      tag_187\n      jump\t// in\n    tag_372:\n        /* \"#utility.yul\":17894:17968   */\n      swap2\n      pop\n        /* \"#utility.yul\":17977:18070   */\n      tag_373\n        /* \"#utility.yul\":18066:18069   */\n      dup3\n        /* \"#utility.yul\":17977:18070   */\n      tag_193\n      jump\t// in\n    tag_373:\n        /* \"#utility.yul\":18095:18097   */\n      0x20\n        /* \"#utility.yul\":18090:18093   */\n      dup3\n        /* \"#utility.yul\":18086:18098   */\n      add\n        /* \"#utility.yul\":18079:18098   */\n      swap1\n      pop\n        /* \"#utility.yul\":17738:18104   */\n      swap2\n      swap1\n      pop\n      jump\t// out\n        /* \"#utility.yul\":18110:18529   */\n    tag_106:\n        /* \"#utility.yul\":18276:18280   */\n      0x00\n        /* \"#utility.yul\":18314:18316   */\n      0x20\n        /* \"#utility.yul\":18303:18312   */\n      dup3\n        /* \"#utility.yul\":18299:18317   */\n      add\n        /* \"#utility.yul\":18291:18317   */\n      swap1\n      pop\n        /* \"#utility.yul\":18363:18372   */\n      dup2\n        /* \"#utility.yul\":18357:18361   */\n      dup2\n        /* \"#utility.yul\":18353:18373   */\n      sub\n        /* \"#utility.yul\":18349:18350   */\n      0x00\n        /* \"#utility.yul\":18338:18347   */\n      dup4\n        /* \"#utility.yul\":18334:18351   */\n      add\n        /* \"#utility.yul\":18327:18374   */\n      mstore\n        /* \"#utility.yul\":18391:18522   */\n      tag_375\n        /* \"#utility.yul\":18517:18521   */\n      dup2\n        /* \"#utility.yul\":18391:18522   */\n      tag_194\n      jump\t// in\n    tag_375:\n        /* \"#utility.yul\":18383:18522   */\n      swap1\n      pop\n        /* \"#utility.yul\":18110:18529   */\n      swap2\n      swap1\n      pop\n      jump\t// out\n        /* \"#utility.yul\":18535:18764   */\n    tag_195:\n        /* \"#utility.yul\":18675:18709   */\n      0x5361666545524332303a204552433230206f7065726174696f6e20646964206e\n        /* \"#utility.yul\":18671:18672   */\n      0x00\n        /* \"#utility.yul\":18663:18669   */\n      dup3\n        /* \"#utility.yul\":18659:18673   */\n      add\n        /* \"#utility.yul\":18652:18710   */\n      mstore\n        /* \"#utility.yul\":18744:18756   */\n      0x6f74207375636365656400000000000000000000000000000000000000000000\n        /* \"#utility.yul\":18739:18741   */\n      0x20\n        /* \"#utility.yul\":18731:18737   */\n      dup3\n        /* \"#utility.yul\":18727:18742   */\n      add\n        /* \"#utility.yul\":18720:18757   */\n      mstore\n        /* \"#utility.yul\":18535:18764   */\n      pop\n      jump\t// out\n        /* \"#utility.yul\":18770:19136   */\n    tag_196:\n        /* \"#utility.yul\":18912:18915   */\n      0x00\n        /* \"#utility.yul\":18933:19000   */\n      tag_378\n        /* \"#utility.yul\":18997:18999   */\n      0x2a\n        /* \"#utility.yul\":18992:18995   */\n      dup4\n        /* \"#utility.yul\":18933:19000   */\n      tag_187\n      jump\t// in\n    tag_378:\n        /* \"#utility.yul\":18926:19000   */\n      swap2\n      pop\n        /* \"#utility.yul\":19009:19102   */\n      tag_379\n        /* \"#utility.yul\":19098:19101   */\n      dup3\n        /* \"#utility.yul\":19009:19102   */\n      tag_195\n      jump\t// in\n    tag_379:\n        /* \"#utility.yul\":19127:19129   */\n      0x40\n        /* \"#utility.yul\":19122:19125   */\n      dup3\n        /* \"#utility.yul\":19118:19130   */\n      add\n        /* \"#utility.yul\":19111:19130   */\n      swap1\n      pop\n        /* \"#utility.yul\":18770:19136   */\n      swap2\n      swap1\n      pop\n      jump\t// out\n        /* \"#utility.yul\":19142:19561   */\n    tag_114:\n        /* \"#utility.yul\":19308:19312   */\n      0x00\n        /* \"#utility.yul\":19346:19348   */\n      0x20\n        /* \"#utility.yul\":19335:19344   */\n      dup3\n        /* \"#utility.yul\":19331:19349   */\n      add\n        /* \"#utility.yul\":19323:19349   */\n      swap1\n      pop\n        /* \"#utility.yul\":19395:19404   */\n      dup2\n        /* \"#utility.yul\":19389:19393   */\n      dup2\n        /* \"#utility.yul\":19385:19405   */\n      sub\n        /* \"#utility.yul\":19381:19382   */\n      0x00\n        /* \"#utility.yul\":19370:19379   */\n      dup4\n        /* \"#utility.yul\":19366:19383   */\n      add\n        /* \"#utility.yul\":19359:19406   */\n      mstore\n        /* \"#utility.yul\":19423:19554   */\n      tag_381\n        /* \"#utility.yul\":19549:19553   */\n      dup2\n        /* \"#utility.yul\":19423:19554   */\n      tag_196\n      jump\t// in\n    tag_381:\n        /* \"#utility.yul\":19415:19554   */\n      swap1\n      pop\n        /* \"#utility.yul\":19142:19561   */\n      swap2\n      swap1\n      pop\n      jump\t// out\n        /* \"#utility.yul\":19567:19792   */\n    tag_197:\n        /* \"#utility.yul\":19707:19741   */\n      0x416464726573733a20696e73756666696369656e742062616c616e636520666f\n        /* \"#utility.yul\":19703:19704   */\n      0x00\n        /* \"#utility.yul\":19695:19701   */\n      dup3\n        /* \"#utility.yul\":19691:19705   */\n      add\n        /* \"#utility.yul\":19684:19742   */\n      mstore\n        /* \"#utility.yul\":19776:19784   */\n      0x722063616c6c0000000000000000000000000000000000000000000000000000\n        /* \"#utility.yul\":19771:19773   */\n      0x20\n        /* \"#utility.yul\":19763:19769   */\n      dup3\n        /* \"#utility.yul\":19759:19774   */\n      add\n        /* \"#utility.yul\":19752:19785   */\n      mstore\n        /* \"#utility.yul\":19567:19792   */\n      pop\n      jump\t// out\n        /* \"#utility.yul\":19798:20164   */\n    tag_198:\n        /* \"#utility.yul\":19940:19943   */\n      0x00\n        /* \"#utility.yul\":19961:20028   */\n      tag_384\n        /* \"#utility.yul\":20025:20027   */\n      0x26\n        /* \"#utility.yul\":20020:20023   */\n      dup4\n        /* \"#utility.yul\":19961:20028   */\n      tag_187\n      jump\t// in\n    tag_384:\n        /* \"#utility.yul\":19954:20028   */\n      swap2\n      pop\n        /* \"#utility.yul\":20037:20130   */\n      tag_385\n        /* \"#utility.yul\":20126:20129   */\n      dup3\n        /* \"#utility.yul\":20037:20130   */\n      tag_197\n      jump\t// in\n    tag_385:\n        /* \"#utility.yul\":20155:20157   */\n      0x40\n        /* \"#utility.yul\":20150:20153   */\n      dup3\n        /* \"#utility.yul\":20146:20158   */\n      add\n        /* \"#utility.yul\":20139:20158   */\n      swap1\n      pop\n        /* \"#utility.yul\":19798:20164   */\n      swap2\n      swap1\n      pop\n      jump\t// out\n        /* \"#utility.yul\":20170:20589   */\n    tag_121:\n        /* \"#utility.yul\":20336:20340   */\n      0x00\n        /* \"#utility.yul\":20374:20376   */\n      0x20\n        /* \"#utility.yul\":20363:20372   */\n      dup3\n        /* \"#utility.yul\":20359:20377   */\n      add\n        /* \"#utility.yul\":20351:20377   */\n      swap1\n      pop\n        /* \"#utility.yul\":20423:20432   */\n      dup2\n        /* \"#utility.yul\":20417:20421   */\n      dup2\n        /* \"#utility.yul\":20413:20433   */\n      sub\n        /* \"#utility.yul\":20409:20410   */\n      0x00\n        /* \"#utility.yul\":20398:20407   */\n      dup4\n        /* \"#utility.yul\":20394:20411   */\n      add\n        /* \"#utility.yul\":20387:20434   */\n      mstore\n        /* \"#utility.yul\":20451:20582   */\n      tag_387\n        /* \"#utility.yul\":20577:20581   */\n      dup2\n        /* \"#utility.yul\":20451:20582   */\n      tag_198\n      jump\t// in\n    tag_387:\n        /* \"#utility.yul\":20443:20582   */\n      swap1\n      pop\n        /* \"#utility.yul\":20170:20589   */\n      swap2\n      swap1\n      pop\n      jump\t// out\n        /* \"#utility.yul\":20595:20742   */\n    tag_199:\n        /* \"#utility.yul\":20696:20707   */\n      0x00\n        /* \"#utility.yul\":20733:20736   */\n      dup2\n        /* \"#utility.yul\":20718:20736   */\n      swap1\n      pop\n        /* \"#utility.yul\":20595:20742   */\n      swap3\n      swap2\n      pop\n      pop\n      jump\t// out\n        /* \"#utility.yul\":20748:21134   */\n    tag_200:\n        /* \"#utility.yul\":20852:20855   */\n      0x00\n        /* \"#utility.yul\":20880:20918   */\n      tag_390\n        /* \"#utility.yul\":20912:20917   */\n      dup3\n        /* \"#utility.yul\":20880:20918   */\n      tag_168\n      jump\t// in\n    tag_390:\n        /* \"#utility.yul\":20934:21022   */\n      tag_391\n        /* \"#utility.yul\":21015:21021   */\n      dup2\n        /* \"#utility.yul\":21010:21013   */\n      dup6\n        /* \"#utility.yul\":20934:21022   */\n      tag_199\n      jump\t// in\n    tag_391:\n        /* \"#utility.yul\":20927:21022   */\n      swap4\n      pop\n        /* \"#utility.yul\":21031:21096   */\n      tag_392\n        /* \"#utility.yul\":21089:21095   */\n      dup2\n        /* \"#utility.yul\":21084:21087   */\n      dup6\n        /* \"#utility.yul\":21077:21081   */\n      0x20\n        /* \"#utility.yul\":21070:21075   */\n      dup7\n        /* \"#utility.yul\":21066:21082   */\n      add\n        /* \"#utility.yul\":21031:21096   */\n      tag_170\n      jump\t// in\n    tag_392:\n        /* \"#utility.yul\":21121:21127   */\n      dup1\n        /* \"#utility.yul\":21116:21119   */\n      dup5\n        /* \"#utility.yul\":21112:21128   */\n      add\n        /* \"#utility.yul\":21105:21128   */\n      swap2\n      pop\n        /* \"#utility.yul\":20856:21134   */\n      pop\n        /* \"#utility.yul\":20748:21134   */\n      swap3\n      swap2\n      pop\n      pop\n      jump\t// out\n        /* \"#utility.yul\":21140:21411   */\n    tag_123:\n        /* \"#utility.yul\":21270:21273   */\n      0x00\n        /* \"#utility.yul\":21292:21385   */\n      tag_394\n        /* \"#utility.yul\":21381:21384   */\n      dup3\n        /* \"#utility.yul\":21372:21378   */\n      dup5\n        /* \"#utility.yul\":21292:21385   */\n      tag_200\n      jump\t// in\n    tag_394:\n        /* \"#utility.yul\":21285:21385   */\n      swap2\n      pop\n        /* \"#utility.yul\":21402:21405   */\n      dup2\n        /* \"#utility.yul\":21395:21405   */\n      swap1\n      pop\n        /* \"#utility.yul\":21140:21411   */\n      swap3\n      swap2\n      pop\n      pop\n      jump\t// out\n        /* \"#utility.yul\":21417:21596   */\n    tag_201:\n        /* \"#utility.yul\":21557:21588   */\n      0x416464726573733a2063616c6c20746f206e6f6e2d636f6e7472616374000000\n        /* \"#utility.yul\":21553:21554   */\n      0x00\n        /* \"#utility.yul\":21545:21551   */\n      dup3\n        /* \"#utility.yul\":21541:21555   */\n      add\n        /* \"#utility.yul\":21534:21589   */\n      mstore\n        /* \"#utility.yul\":21417:21596   */\n      pop\n      jump\t// out\n        /* \"#utility.yul\":21602:21968   */\n    tag_202:\n        /* \"#utility.yul\":21744:21747   */\n      0x00\n        /* \"#utility.yul\":21765:21832   */\n      tag_397\n        /* \"#utility.yul\":21829:21831   */\n      0x1d\n        /* \"#utility.yul\":21824:21827   */\n      dup4\n        /* \"#utility.yul\":21765:21832   */\n      tag_187\n      jump\t// in\n    tag_397:\n        /* \"#utility.yul\":21758:21832   */\n      swap2\n      pop\n        /* \"#utility.yul\":21841:21934   */\n      tag_398\n        /* \"#utility.yul\":21930:21933   */\n      dup3\n        /* \"#utility.yul\":21841:21934   */\n      tag_201\n      jump\t// in\n    tag_398:\n        /* \"#utility.yul\":21959:21961   */\n      0x20\n        /* \"#utility.yul\":21954:21957   */\n      dup3\n        /* \"#utility.yul\":21950:21962   */\n      add\n        /* \"#utility.yul\":21943:21962   */\n      swap1\n      pop\n        /* \"#utility.yul\":21602:21968   */\n      swap2\n      swap1\n      pop\n      jump\t// out\n        /* \"#utility.yul\":21974:22393   */\n    tag_136:\n        /* \"#utility.yul\":22140:22144   */\n      0x00\n        /* \"#utility.yul\":22178:22180   */\n      0x20\n        /* \"#utility.yul\":22167:22176   */\n      dup3\n        /* \"#utility.yul\":22163:22181   */\n      add\n        /* \"#utility.yul\":22155:22181   */\n      swap1\n      pop\n        /* \"#utility.yul\":22227:22236   */\n      dup2\n        /* \"#utility.yul\":22221:22225   */\n      dup2\n        /* \"#utility.yul\":22217:22237   */\n      sub\n        /* \"#utility.yul\":22213:22214   */\n      0x00\n        /* \"#utility.yul\":22202:22211   */\n      dup4\n        /* \"#utility.yul\":22198:22215   */\n      add\n        /* \"#utility.yul\":22191:22238   */\n      mstore\n        /* \"#utility.yul\":22255:22386   */\n      tag_400\n        /* \"#utility.yul\":22381:22385   */\n      dup2\n        /* \"#utility.yul\":22255:22386   */\n      tag_202\n      jump\t// in\n    tag_400:\n        /* \"#utility.yul\":22247:22386   */\n      swap1\n      pop\n        /* \"#utility.yul\":21974:22393   */\n      swap2\n      swap1\n      pop\n      jump\t// out\n        /* \"#utility.yul\":22399:22498   */\n    tag_203:\n        /* \"#utility.yul\":22451:22457   */\n      0x00\n        /* \"#utility.yul\":22485:22490   */\n      dup2\n        /* \"#utility.yul\":22479:22491   */\n      mload\n        /* \"#utility.yul\":22469:22491   */\n      swap1\n      pop\n        /* \"#utility.yul\":22399:22498   */\n      swap2\n      swap1\n      pop\n      jump\t// out\n        /* \"#utility.yul\":22504:22881   */\n    tag_204:\n        /* \"#utility.yul\":22592:22595   */\n      0x00\n        /* \"#utility.yul\":22620:22659   */\n      tag_403\n        /* \"#utility.yul\":22653:22658   */\n      dup3\n        /* \"#utility.yul\":22620:22659   */\n      tag_203\n      jump\t// in\n    tag_403:\n        /* \"#utility.yul\":22675:22746   */\n      tag_404\n        /* \"#utility.yul\":22739:22745   */\n      dup2\n        /* \"#utility.yul\":22734:22737   */\n      dup6\n        /* \"#utility.yul\":22675:22746   */\n      tag_187\n      jump\t// in\n    tag_404:\n        /* \"#utility.yul\":22668:22746   */\n      swap4\n      pop\n        /* \"#utility.yul\":22755:22820   */\n      tag_405\n        /* \"#utility.yul\":22813:22819   */\n      dup2\n        /* \"#utility.yul\":22808:22811   */\n      dup6\n        /* \"#utility.yul\":22801:22805   */\n      0x20\n        /* \"#utility.yul\":22794:22799   */\n      dup7\n        /* \"#utility.yul\":22790:22806   */\n      add\n        /* \"#utility.yul\":22755:22820   */\n      tag_170\n      jump\t// in\n    tag_405:\n        /* \"#utility.yul\":22845:22874   */\n      tag_406\n        /* \"#utility.yul\":22867:22873   */\n      dup2\n        /* \"#utility.yul\":22845:22874   */\n      tag_171\n      jump\t// in\n    tag_406:\n        /* \"#utility.yul\":22840:22843   */\n      dup5\n        /* \"#utility.yul\":22836:22875   */\n      add\n        /* \"#utility.yul\":22829:22875   */\n      swap2\n      pop\n        /* \"#utility.yul\":22596:22881   */\n      pop\n        /* \"#utility.yul\":22504:22881   */\n      swap3\n      swap2\n      pop\n      pop\n      jump\t// out\n        /* \"#utility.yul\":22887:23200   */\n    tag_145:\n        /* \"#utility.yul\":23000:23004   */\n      0x00\n        /* \"#utility.yul\":23038:23040   */\n      0x20\n        /* \"#utility.yul\":23027:23036   */\n      dup3\n        /* \"#utility.yul\":23023:23041   */\n      add\n        /* \"#utility.yul\":23015:23041   */\n      swap1\n      pop\n        /* \"#utility.yul\":23087:23096   */\n      dup2\n        /* \"#utility.yul\":23081:23085   */\n      dup2\n        /* \"#utility.yul\":23077:23097   */\n      sub\n        /* \"#utility.yul\":23073:23074   */\n      0x00\n        /* \"#utility.yul\":23062:23071   */\n      dup4\n        /* \"#utility.yul\":23058:23075   */\n      add\n        /* \"#utility.yul\":23051:23098   */\n      mstore\n        /* \"#utility.yul\":23115:23193   */\n      tag_408\n        /* \"#utility.yul\":23188:23192   */\n      dup2\n        /* \"#utility.yul\":23179:23185   */\n      dup5\n        /* \"#utility.yul\":23115:23193   */\n      tag_204\n      jump\t// in\n    tag_408:\n        /* \"#utility.yul\":23107:23193   */\n      swap1\n      pop\n        /* \"#utility.yul\":22887:23200   */\n      swap3\n      swap2\n      pop\n      pop\n      jump\t// out\n\n    auxdata: 0xa26469706673582212200b12e75f442b6a89621e90d83c0c6db524c2564fee0ef26e5c1e51efdafd0ef264736f6c63430008130033\n}\n",
				"bytecode": {
					"linkReferences": {},
					"object": "60806040523480156200001157600080fd5b5060405162001d0438038062001d04833981810160405281019062000037919062000359565b338060008073ffffffffffffffffffffffffffffffffffffffff168273ffffffffffffffffffffffffffffffffffffffff1603620000ac576040517f08c379a0000000000000000000000000000000000000000000000000000000008152600401620000a39062000401565b60405180910390fd5b816000806101000a81548173ffffffffffffffffffffffffffffffffffffffff021916908373ffffffffffffffffffffffffffffffffffffffff160217905550600073ffffffffffffffffffffffffffffffffffffffff168173ffffffffffffffffffffffffffffffffffffffff161462000133576200013281620001c060201b60201c565b5b50505080600360006101000a81548173ffffffffffffffffffffffffffffffffffffffff021916908373ffffffffffffffffffffffffffffffffffffffff16021790555081600460006101000a81548173ffffffffffffffffffffffffffffffffffffffff021916908373ffffffffffffffffffffffffffffffffffffffff160217905550505062000495565b3373ffffffffffffffffffffffffffffffffffffffff168173ffffffffffffffffffffffffffffffffffffffff160362000231576040517f08c379a0000000000000000000000000000000000000000000000000000000008152600401620002289062000473565b60405180910390fd5b80600160006101000a81548173ffffffffffffffffffffffffffffffffffffffff021916908373ffffffffffffffffffffffffffffffffffffffff1602179055508073ffffffffffffffffffffffffffffffffffffffff1660008054906101000a900473ffffffffffffffffffffffffffffffffffffffff1673ffffffffffffffffffffffffffffffffffffffff167fed8889f560326eb138920d842192f0eb3dd22b4f139c87a2c57538e05bae127860405160405180910390a350565b600080fd5b600073ffffffffffffffffffffffffffffffffffffffff82169050919050565b60006200032182620002f4565b9050919050565b620003338162000314565b81146200033f57600080fd5b50565b600081519050620003538162000328565b92915050565b60008060408385031215620003735762000372620002ef565b5b6000620003838582860162000342565b9250506020620003968582860162000342565b9150509250929050565b600082825260208201905092915050565b7f43616e6e6f7420736574206f776e657220746f207a65726f0000000000000000600082015250565b6000620003e9601883620003a0565b9150620003f682620003b1565b602082019050919050565b600060208201905081810360008301526200041c81620003da565b9050919050565b7f43616e6e6f74207472616e7366657220746f2073656c66000000000000000000600082015250565b60006200045b601783620003a0565b9150620004688262000423565b602082019050919050565b600060208201905081810360008301526200048e816200044c565b9050919050565b61185f80620004a56000396000f3fe608060405234801561001057600080fd5b50600436106100625760003560e01c80637361d6611461006757806375c67c661461009757806379ba5097146100c75780638da5cb5b146100d157806396d3b83d146100ef578063f2fde38b1461010b575b600080fd5b610081600480360381019061007c9190610e47565b610127565b60405161008e9190610ec7565b60405180910390f35b6100b160048036038101906100ac9190610ee2565b6105a9565b6040516100be9190610f2a565b60405180910390f35b6100cf6105c9565b005b6100d961075e565b6040516100e69190610f54565b60405180910390f35b61010960048036038101906101049190610f9b565b610787565b005b61012560048036038101906101209190610fdb565b6107d2565b005b60006101316107e6565b84600260008267ffffffffffffffff1667ffffffffffffffff16815260200190815260200160002060009054906101000a900460ff166101a857806040517f0a503cdb00000000000000000000000000000000000000000000000000000000815260040161019f9190611017565b60405180910390fd5b84600073ffffffffffffffffffffffffffffffffffffffff168173ffffffffffffffffffffffffffffffffffffffff160361020f576040517fa05ff47e00000000000000000000000000000000000000000000000000000000815260040160405180910390fd5b60006040518060a001604052808860405160200161022d9190610f54565b6040516020818303038152906040528152602001876040516020016102529190611041565b6040516020818303038152906040528152602001600067ffffffffffffffff8111156102815761028061105c565b5b6040519080825280602002602001820160405280156102ba57816020015b6102a7610d3e565b81526020019060019003908161029f5790505b508152602001600360009054906101000a900473ffffffffffffffffffffffffffffffffffffffff1673ffffffffffffffffffffffffffffffffffffffff168152602001610315604051806020016040528089815250610876565b81525090506000600460009054906101000a900473ffffffffffffffffffffffffffffffffffffffff16905060008173ffffffffffffffffffffffffffffffffffffffff166320487ded8b856040518363ffffffff1660e01b815260040161037e9291906112a2565b602060405180830381865afa15801561039b573d6000803e3d6000fd5b505050506040513d601f19601f820116820180604052508101906103bf91906112e7565b9050610410333083600360009054906101000a900473ffffffffffffffffffffffffffffffffffffffff1673ffffffffffffffffffffffffffffffffffffffff166108f5909392919063ffffffff16565b600360009054906101000a900473ffffffffffffffffffffffffffffffffffffffff1673ffffffffffffffffffffffffffffffffffffffff1663095ea7b383836040518363ffffffff1660e01b815260040161046d929190611314565b6020604051808303816000875af115801561048c573d6000803e3d6000fd5b505050506040513d601f19601f820116820180604052508101906104b09190611352565b508173ffffffffffffffffffffffffffffffffffffffff166396f4e9f98b856040518363ffffffff1660e01b81526004016104ec9291906112a2565b6020604051808303816000875af115801561050b573d6000803e3d6000fd5b505050506040513d601f19601f8201168201806040525081019061052f91906113ab565b95508967ffffffffffffffff16867feea8a479f07983d1364c4330c9bf3442a1cd421b79b16909bcc1867188ea676b8b8b600360009054906101000a900473ffffffffffffffffffffffffffffffffffffffff168660405161059494939291906113d8565b60405180910390a35050505050949350505050565b60026020528060005260406000206000915054906101000a900460ff1681565b600160009054906101000a900473ffffffffffffffffffffffffffffffffffffffff1673ffffffffffffffffffffffffffffffffffffffff163373ffffffffffffffffffffffffffffffffffffffff1614610659576040517f08c379a00000000000000000000000000000000000000000000000000000000081526004016106509061147a565b60405180910390fd5b60008060009054906101000a900473ffffffffffffffffffffffffffffffffffffffff169050336000806101000a81548173ffffffffffffffffffffffffffffffffffffffff021916908373ffffffffffffffffffffffffffffffffffffffff1602179055506000600160006101000a81548173ffffffffffffffffffffffffffffffffffffffff021916908373ffffffffffffffffffffffffffffffffffffffff1602179055503373ffffffffffffffffffffffffffffffffffffffff168173ffffffffffffffffffffffffffffffffffffffff167f8be0079c531659141344cd1fd0a4f28419497f9722a3daafe3b4186f6b6457e060405160405180910390a350565b60008060009054906101000a900473ffffffffffffffffffffffffffffffffffffffff16905090565b61078f6107e6565b80600260008467ffffffffffffffff1667ffffffffffffffff16815260200190815260200160002060006101000a81548160ff0219169083151502179055505050565b6107da6107e6565b6107e38161097e565b50565b60008054906101000a900473ffffffffffffffffffffffffffffffffffffffff1673ffffffffffffffffffffffffffffffffffffffff163373ffffffffffffffffffffffffffffffffffffffff1614610874576040517f08c379a000000000000000000000000000000000000000000000000000000000815260040161086b906114e6565b60405180910390fd5b565b60606397a657c960e01b826040516024016108919190611522565b604051602081830303815290604052907bffffffffffffffffffffffffffffffffffffffffffffffffffffffff19166020820180517bffffffffffffffffffffffffffffffffffffffffffffffffffffffff83818316178352505050509050919050565b610978846323b872dd60e01b8585856040516024016109169392919061153d565b604051602081830303815290604052907bffffffffffffffffffffffffffffffffffffffffffffffffffffffff19166020820180517bffffffffffffffffffffffffffffffffffffffffffffffffffffffff8381831617835250505050610aaa565b50505050565b3373ffffffffffffffffffffffffffffffffffffffff168173ffffffffffffffffffffffffffffffffffffffff16036109ec576040517f08c379a00000000000000000000000000000000000000000000000000000000081526004016109e3906115c0565b60405180910390fd5b80600160006101000a81548173ffffffffffffffffffffffffffffffffffffffff021916908373ffffffffffffffffffffffffffffffffffffffff1602179055508073ffffffffffffffffffffffffffffffffffffffff1660008054906101000a900473ffffffffffffffffffffffffffffffffffffffff1673ffffffffffffffffffffffffffffffffffffffff167fed8889f560326eb138920d842192f0eb3dd22b4f139c87a2c57538e05bae127860405160405180910390a350565b6000610b0c826040518060400160405280602081526020017f5361666545524332303a206c6f772d6c6576656c2063616c6c206661696c65648152508573ffffffffffffffffffffffffffffffffffffffff16610b719092919063ffffffff16565b9050600081511115610b6c5780806020019051810190610b2c9190611352565b610b6b576040517f08c379a0000000000000000000000000000000000000000000000000000000008152600401610b6290611652565b60405180910390fd5b5b505050565b6060610b808484600085610b89565b90509392505050565b606082471015610bce576040517f08c379a0000000000000000000000000000000000000000000000000000000008152600401610bc5906116e4565b60405180910390fd5b6000808673ffffffffffffffffffffffffffffffffffffffff168587604051610bf79190611740565b60006040518083038185875af1925050503d8060008114610c34576040519150601f19603f3d011682016040523d82523d6000602084013e610c39565b606091505b5091509150610c4a87838387610c56565b92505050949350505050565b60608315610cb8576000835103610cb057610c7085610ccb565b610caf576040517f08c379a0000000000000000000000000000000000000000000000000000000008152600401610ca6906117a3565b60405180910390fd5b5b829050610cc3565b610cc28383610cee565b5b949350505050565b6000808273ffffffffffffffffffffffffffffffffffffffff163b119050919050565b600082511115610d015781518083602001fd5b806040517f08c379a0000000000000000000000000000000000000000000000000000000008152600401610d359190611807565b60405180910390fd5b6040518060400160405280600073ffffffffffffffffffffffffffffffffffffffff168152602001600081525090565b600080fd5b600067ffffffffffffffff82169050919050565b610d9081610d73565b8114610d9b57600080fd5b50565b600081359050610dad81610d87565b92915050565b600073ffffffffffffffffffffffffffffffffffffffff82169050919050565b6000610dde82610db3565b9050919050565b610dee81610dd3565b8114610df957600080fd5b50565b600081359050610e0b81610de5565b92915050565b6000819050919050565b610e2481610e11565b8114610e2f57600080fd5b50565b600081359050610e4181610e1b565b92915050565b60008060008060808587031215610e6157610e60610d6e565b5b6000610e6f87828801610d9e565b9450506020610e8087828801610dfc565b9350506040610e9187828801610e32565b9250506060610ea287828801610e32565b91505092959194509250565b6000819050919050565b610ec181610eae565b82525050565b6000602082019050610edc6000830184610eb8565b92915050565b600060208284031215610ef857610ef7610d6e565b5b6000610f0684828501610d9e565b91505092915050565b60008115159050919050565b610f2481610f0f565b82525050565b6000602082019050610f3f6000830184610f1b565b92915050565b610f4e81610dd3565b82525050565b6000602082019050610f696000830184610f45565b92915050565b610f7881610f0f565b8114610f8357600080fd5b50565b600081359050610f9581610f6f565b92915050565b60008060408385031215610fb257610fb1610d6e565b5b6000610fc085828601610d9e565b9250506020610fd185828601610f86565b9150509250929050565b600060208284031215610ff157610ff0610d6e565b5b6000610fff84828501610dfc565b91505092915050565b61101181610d73565b82525050565b600060208201905061102c6000830184611008565b92915050565b61103b81610e11565b82525050565b60006020820190506110566000830184611032565b92915050565b7f4e487b7100000000000000000000000000000000000000000000000000000000600052604160045260246000fd5b600081519050919050565b600082825260208201905092915050565b60005b838110156110c55780820151818401526020810190506110aa565b60008484015250505050565b6000601f19601f8301169050919050565b60006110ed8261108b565b6110f78185611096565b93506111078185602086016110a7565b611110816110d1565b840191505092915050565b600081519050919050565b600082825260208201905092915050565b6000819050602082019050919050565b61115081610dd3565b82525050565b61115f81610e11565b82525050565b60408201600082015161117b6000850182611147565b50602082015161118e6020850182611156565b50505050565b60006111a08383611165565b60408301905092915050565b6000602082019050919050565b60006111c48261111b565b6111ce8185611126565b93506111d983611137565b8060005b8381101561120a5781516111f18882611194565b97506111fc836111ac565b9250506001810190506111dd565b5085935050505092915050565b600060a083016000830151848203600086015261123482826110e2565b9150506020830151848203602086015261124e82826110e2565b9150506040830151848203604086015261126882826111b9565b915050606083015161127d6060860182611147565b506080830151848203608086015261129582826110e2565b9150508091505092915050565b60006040820190506112b76000830185611008565b81810360208301526112c98184611217565b90509392505050565b6000815190506112e181610e1b565b92915050565b6000602082840312156112fd576112fc610d6e565b5b600061130b848285016112d2565b91505092915050565b60006040820190506113296000830185610f45565b6113366020830184611032565b9392505050565b60008151905061134c81610f6f565b92915050565b60006020828403121561136857611367610d6e565b5b60006113768482850161133d565b91505092915050565b61138881610eae565b811461139357600080fd5b50565b6000815190506113a58161137f565b92915050565b6000602082840312156113c1576113c0610d6e565b5b60006113cf84828501611396565b91505092915050565b60006080820190506113ed6000830187610f45565b6113fa6020830186611032565b6114076040830185610f45565b6114146060830184611032565b95945050505050565b600082825260208201905092915050565b7f4d7573742062652070726f706f736564206f776e657200000000000000000000600082015250565b600061146460168361141d565b915061146f8261142e565b602082019050919050565b6000602082019050818103600083015261149381611457565b9050919050565b7f4f6e6c792063616c6c61626c65206279206f776e657200000000000000000000600082015250565b60006114d060168361141d565b91506114db8261149a565b602082019050919050565b600060208201905081810360008301526114ff816114c3565b9050919050565b60208201600082015161151c6000850182611156565b50505050565b60006020820190506115376000830184611506565b92915050565b60006060820190506115526000830186610f45565b61155f6020830185610f45565b61156c6040830184611032565b949350505050565b7f43616e6e6f74207472616e7366657220746f2073656c66000000000000000000600082015250565b60006115aa60178361141d565b91506115b582611574565b602082019050919050565b600060208201905081810360008301526115d98161159d565b9050919050565b7f5361666545524332303a204552433230206f7065726174696f6e20646964206e60008201527f6f74207375636365656400000000000000000000000000000000000000000000602082015250565b600061163c602a8361141d565b9150611647826115e0565b604082019050919050565b6000602082019050818103600083015261166b8161162f565b9050919050565b7f416464726573733a20696e73756666696369656e742062616c616e636520666f60008201527f722063616c6c0000000000000000000000000000000000000000000000000000602082015250565b60006116ce60268361141d565b91506116d982611672565b604082019050919050565b600060208201905081810360008301526116fd816116c1565b9050919050565b600081905092915050565b600061171a8261108b565b6117248185611704565b93506117348185602086016110a7565b80840191505092915050565b600061174c828461170f565b915081905092915050565b7f416464726573733a2063616c6c20746f206e6f6e2d636f6e7472616374000000600082015250565b600061178d601d8361141d565b915061179882611757565b602082019050919050565b600060208201905081810360008301526117bc81611780565b9050919050565b600081519050919050565b60006117d9826117c3565b6117e3818561141d565b93506117f38185602086016110a7565b6117fc816110d1565b840191505092915050565b6000602082019050818103600083015261182181846117ce565b90509291505056fea26469706673582212200b12e75f442b6a89621e90d83c0c6db524c2564fee0ef26e5c1e51efdafd0ef264736f6c63430008130033",
					"opcodes": "PUSH1 0x80 PUSH1 0x40 MSTORE CALLVALUE DUP1 ISZERO PUSH3 0x11 JUMPI PUSH1 0x0 DUP1 REVERT JUMPDEST POP PUSH1 0x40 MLOAD PUSH3 0x1D04 CODESIZE SUB DUP1 PUSH3 0x1D04 DUP4 CODECOPY DUP2 DUP2 ADD PUSH1 0x40 MSTORE DUP2 ADD SWAP1 PUSH3 0x37 SWAP2 SWAP1 PUSH3 0x359 JUMP JUMPDEST CALLER DUP1 PUSH1 0x0 DUP1 PUSH20 0xFFFFFFFFFFFFFFFFFFFFFFFFFFFFFFFFFFFFFFFF AND DUP3 PUSH20 0xFFFFFFFFFFFFFFFFFFFFFFFFFFFFFFFFFFFFFFFF AND SUB PUSH3 0xAC JUMPI PUSH1 0x40 MLOAD PUSH32 0x8C379A000000000000000000000000000000000000000000000000000000000 DUP2 MSTORE PUSH1 0x4 ADD PUSH3 0xA3 SWAP1 PUSH3 0x401 JUMP JUMPDEST PUSH1 0x40 MLOAD DUP1 SWAP2 SUB SWAP1 REVERT JUMPDEST DUP2 PUSH1 0x0 DUP1 PUSH2 0x100 EXP DUP2 SLOAD DUP2 PUSH20 0xFFFFFFFFFFFFFFFFFFFFFFFFFFFFFFFFFFFFFFFF MUL NOT AND SWAP1 DUP4 PUSH20 0xFFFFFFFFFFFFFFFFFFFFFFFFFFFFFFFFFFFFFFFF AND MUL OR SWAP1 SSTORE POP PUSH1 0x0 PUSH20 0xFFFFFFFFFFFFFFFFFFFFFFFFFFFFFFFFFFFFFFFF AND DUP2 PUSH20 0xFFFFFFFFFFFFFFFFFFFFFFFFFFFFFFFFFFFFFFFF AND EQ PUSH3 0x133 JUMPI PUSH3 0x132 DUP2 PUSH3 0x1C0 PUSH1 0x20 SHL PUSH1 0x20 SHR JUMP JUMPDEST JUMPDEST POP POP POP DUP1 PUSH1 0x3 PUSH1 0x0 PUSH2 0x100 EXP DUP2 SLOAD DUP2 PUSH20 0xFFFFFFFFFFFFFFFFFFFFFFFFFFFFFFFFFFFFFFFF MUL NOT AND SWAP1 DUP4 PUSH20 0xFFFFFFFFFFFFFFFFFFFFFFFFFFFFFFFFFFFFFFFF AND MUL OR SWAP1 SSTORE POP DUP2 PUSH1 0x4 PUSH1 0x0 PUSH2 0x100 EXP DUP2 SLOAD DUP2 PUSH20 0xFFFFFFFFFFFFFFFFFFFFFFFFFFFFFFFFFFFFFFFF MUL NOT AND SWAP1 DUP4 PUSH20 0xFFFFFFFFFFFFFFFFFFFFFFFFFFFFFFFFFFFFFFFF AND MUL OR SWAP1 SSTORE POP POP POP PUSH3 0x495 JUMP JUMPDEST CALLER PUSH20 0xFFFFFFFFFFFFFFFFFFFFFFFFFFFFFFFFFFFFFFFF AND DUP2 PUSH20 0xFFFFFFFFFFFFFFFFFFFFFFFFFFFFFFFFFFFFFFFF AND SUB PUSH3 0x231 JUMPI PUSH1 0x40 MLOAD PUSH32 0x8C379A000000000000000000000000000000000000000000000000000000000 DUP2 MSTORE PUSH1 0x4 ADD PUSH3 0x228 SWAP1 PUSH3 0x473 JUMP JUMPDEST PUSH1 0x40 MLOAD DUP1 SWAP2 SUB SWAP1 REVERT JUMPDEST DUP1 PUSH1 0x1 PUSH1 0x0 PUSH2 0x100 EXP DUP2 SLOAD DUP2 PUSH20 0xFFFFFFFFFFFFFFFFFFFFFFFFFFFFFFFFFFFFFFFF MUL NOT AND SWAP1 DUP4 PUSH20 0xFFFFFFFFFFFFFFFFFFFFFFFFFFFFFFFFFFFFFFFF AND MUL OR SWAP1 SSTORE POP DUP1 PUSH20 0xFFFFFFFFFFFFFFFFFFFFFFFFFFFFFFFFFFFFFFFF AND PUSH1 0x0 DUP1 SLOAD SWAP1 PUSH2 0x100 EXP SWAP1 DIV PUSH20 0xFFFFFFFFFFFFFFFFFFFFFFFFFFFFFFFFFFFFFFFF AND PUSH20 0xFFFFFFFFFFFFFFFFFFFFFFFFFFFFFFFFFFFFFFFF AND PUSH32 0xED8889F560326EB138920D842192F0EB3DD22B4F139C87A2C57538E05BAE1278 PUSH1 0x40 MLOAD PUSH1 0x40 MLOAD DUP1 SWAP2 SUB SWAP1 LOG3 POP JUMP JUMPDEST PUSH1 0x0 DUP1 REVERT JUMPDEST PUSH1 0x0 PUSH20 0xFFFFFFFFFFFFFFFFFFFFFFFFFFFFFFFFFFFFFFFF DUP3 AND SWAP1 POP SWAP2 SWAP1 POP JUMP JUMPDEST PUSH1 0x0 PUSH3 0x321 DUP3 PUSH3 0x2F4 JUMP JUMPDEST SWAP1 POP SWAP2 SWAP1 POP JUMP JUMPDEST PUSH3 0x333 DUP2 PUSH3 0x314 JUMP JUMPDEST DUP2 EQ PUSH3 0x33F JUMPI PUSH1 0x0 DUP1 REVERT JUMPDEST POP JUMP JUMPDEST PUSH1 0x0 DUP2 MLOAD SWAP1 POP PUSH3 0x353 DUP2 PUSH3 0x328 JUMP JUMPDEST SWAP3 SWAP2 POP POP JUMP JUMPDEST PUSH1 0x0 DUP1 PUSH1 0x40 DUP4 DUP6 SUB SLT ISZERO PUSH3 0x373 JUMPI PUSH3 0x372 PUSH3 0x2EF JUMP JUMPDEST JUMPDEST PUSH1 0x0 PUSH3 0x383 DUP6 DUP3 DUP7 ADD PUSH3 0x342 JUMP JUMPDEST SWAP3 POP POP PUSH1 0x20 PUSH3 0x396 DUP6 DUP3 DUP7 ADD PUSH3 0x342 JUMP JUMPDEST SWAP2 POP POP SWAP3 POP SWAP3 SWAP1 POP JUMP JUMPDEST PUSH1 0x0 DUP3 DUP3 MSTORE PUSH1 0x20 DUP3 ADD SWAP1 POP SWAP3 SWAP2 POP POP JUMP JUMPDEST PUSH32 0x43616E6E6F7420736574206F776E657220746F207A65726F0000000000000000 PUSH1 0x0 DUP3 ADD MSTORE POP JUMP JUMPDEST PUSH1 0x0 PUSH3 0x3E9 PUSH1 0x18 DUP4 PUSH3 0x3A0 JUMP JUMPDEST SWAP2 POP PUSH3 0x3F6 DUP3 PUSH3 0x3B1 JUMP JUMPDEST PUSH1 0x20 DUP3 ADD SWAP1 POP SWAP2 SWAP1 POP JUMP JUMPDEST PUSH1 0x0 PUSH1 0x20 DUP3 ADD SWAP1 POP DUP2 DUP2 SUB PUSH1 0x0 DUP4 ADD MSTORE PUSH3 0x41C DUP2 PUSH3 0x3DA JUMP JUMPDEST SWAP1 POP SWAP2 SWAP1 POP JUMP JUMPDEST PUSH32 0x43616E6E6F74207472616E7366657220746F2073656C66000000000000000000 PUSH1 0x0 DUP3 ADD MSTORE POP JUMP JUMPDEST PUSH1 0x0 PUSH3 0x45B PUSH1 0x17 DUP4 PUSH3 0x3A0 JUMP JUMPDEST SWAP2 POP PUSH3 0x468 DUP3 PUSH3 0x423 JUMP JUMPDEST PUSH1 0x20 DUP3 ADD SWAP1 POP SWAP2 SWAP1 POP JUMP JUMPDEST PUSH1 0x0 PUSH1 0x20 DUP3 ADD SWAP1 POP DUP2 DUP2 SUB PUSH1 0x0 DUP4 ADD MSTORE PUSH3 0x48E DUP2 PUSH3 0x44C JUMP JUMPDEST SWAP1 POP SWAP2 SWAP1 POP JUMP JUMPDEST PUSH2 0x185F DUP1 PUSH3 0x4A5 PUSH1 0x0 CODECOPY PUSH1 0x0 RETURN INVALID PUSH1 0x80 PUSH1 0x40 MSTORE CALLVALUE DUP1 ISZERO PUSH2 0x10 JUMPI PUSH1 0x0 DUP1 REVERT JUMPDEST POP PUSH1 0x4 CALLDATASIZE LT PUSH2 0x62 JUMPI PUSH1 0x0 CALLDATALOAD PUSH1 0xE0 SHR DUP1 PUSH4 0x7361D661 EQ PUSH2 0x67 JUMPI DUP1 PUSH4 0x75C67C66 EQ PUSH2 0x97 JUMPI DUP1 PUSH4 0x79BA5097 EQ PUSH2 0xC7 JUMPI DUP1 PUSH4 0x8DA5CB5B EQ PUSH2 0xD1 JUMPI DUP1 PUSH4 0x96D3B83D EQ PUSH2 0xEF JUMPI DUP1 PUSH4 0xF2FDE38B EQ PUSH2 0x10B JUMPI JUMPDEST PUSH1 0x0 DUP1 REVERT JUMPDEST PUSH2 0x81 PUSH1 0x4 DUP1 CALLDATASIZE SUB DUP2 ADD SWAP1 PUSH2 0x7C SWAP2 SWAP1 PUSH2 0xE47 JUMP JUMPDEST PUSH2 0x127 JUMP JUMPDEST PUSH1 0x40 MLOAD PUSH2 0x8E SWAP2 SWAP1 PUSH2 0xEC7 JUMP JUMPDEST PUSH1 0x40 MLOAD DUP1 SWAP2 SUB SWAP1 RETURN JUMPDEST PUSH2 0xB1 PUSH1 0x4 DUP1 CALLDATASIZE SUB DUP2 ADD SWAP1 PUSH2 0xAC SWAP2 SWAP1 PUSH2 0xEE2 JUMP JUMPDEST PUSH2 0x5A9 JUMP JUMPDEST PUSH1 0x40 MLOAD PUSH2 0xBE SWAP2 SWAP1 PUSH2 0xF2A JUMP JUMPDEST PUSH1 0x40 MLOAD DUP1 SWAP2 SUB SWAP1 RETURN JUMPDEST PUSH2 0xCF PUSH2 0x5C9 JUMP JUMPDEST STOP JUMPDEST PUSH2 0xD9 PUSH2 0x75E JUMP JUMPDEST PUSH1 0x40 MLOAD PUSH2 0xE6 SWAP2 SWAP1 PUSH2 0xF54 JUMP JUMPDEST PUSH1 0x40 MLOAD DUP1 SWAP2 SUB SWAP1 RETURN JUMPDEST PUSH2 0x109 PUSH1 0x4 DUP1 CALLDATASIZE SUB DUP2 ADD SWAP1 PUSH2 0x104 SWAP2 SWAP1 PUSH2 0xF9B JUMP JUMPDEST PUSH2 0x787 JUMP JUMPDEST STOP JUMPDEST PUSH2 0x125 PUSH1 0x4 DUP1 CALLDATASIZE SUB DUP2 ADD SWAP1 PUSH2 0x120 SWAP2 SWAP1 PUSH2 0xFDB JUMP JUMPDEST PUSH2 0x7D2 JUMP JUMPDEST STOP JUMPDEST PUSH1 0x0 PUSH2 0x131 PUSH2 0x7E6 JUMP JUMPDEST DUP5 PUSH1 0x2 PUSH1 0x0 DUP3 PUSH8 0xFFFFFFFFFFFFFFFF AND PUSH8 0xFFFFFFFFFFFFFFFF AND DUP2 MSTORE PUSH1 0x20 ADD SWAP1 DUP2 MSTORE PUSH1 0x20 ADD PUSH1 0x0 KECCAK256 PUSH1 0x0 SWAP1 SLOAD SWAP1 PUSH2 0x100 EXP SWAP1 DIV PUSH1 0xFF AND PUSH2 0x1A8 JUMPI DUP1 PUSH1 0x40 MLOAD PUSH32 0xA503CDB00000000000000000000000000000000000000000000000000000000 DUP2 MSTORE PUSH1 0x4 ADD PUSH2 0x19F SWAP2 SWAP1 PUSH2 0x1017 JUMP JUMPDEST PUSH1 0x40 MLOAD DUP1 SWAP2 SUB SWAP1 REVERT JUMPDEST DUP5 PUSH1 0x0 PUSH20 0xFFFFFFFFFFFFFFFFFFFFFFFFFFFFFFFFFFFFFFFF AND DUP2 PUSH20 0xFFFFFFFFFFFFFFFFFFFFFFFFFFFFFFFFFFFFFFFF AND SUB PUSH2 0x20F JUMPI PUSH1 0x40 MLOAD PUSH32 0xA05FF47E00000000000000000000000000000000000000000000000000000000 DUP2 MSTORE PUSH1 0x4 ADD PUSH1 0x40 MLOAD DUP1 SWAP2 SUB SWAP1 REVERT JUMPDEST PUSH1 0x0 PUSH1 0x40 MLOAD DUP1 PUSH1 0xA0 ADD PUSH1 0x40 MSTORE DUP1 DUP9 PUSH1 0x40 MLOAD PUSH1 0x20 ADD PUSH2 0x22D SWAP2 SWAP1 PUSH2 0xF54 JUMP JUMPDEST PUSH1 0x40 MLOAD PUSH1 0x20 DUP2 DUP4 SUB SUB DUP2 MSTORE SWAP1 PUSH1 0x40 MSTORE DUP2 MSTORE PUSH1 0x20 ADD DUP8 PUSH1 0x40 MLOAD PUSH1 0x20 ADD PUSH2 0x252 SWAP2 SWAP1 PUSH2 0x1041 JUMP JUMPDEST PUSH1 0x40 MLOAD PUSH1 0x20 DUP2 DUP4 SUB SUB DUP2 MSTORE SWAP1 PUSH1 0x40 MSTORE DUP2 MSTORE PUSH1 0x20 ADD PUSH1 0x0 PUSH8 0xFFFFFFFFFFFFFFFF DUP2 GT ISZERO PUSH2 0x281 JUMPI PUSH2 0x280 PUSH2 0x105C JUMP JUMPDEST JUMPDEST PUSH1 0x40 MLOAD SWAP1 DUP1 DUP3 MSTORE DUP1 PUSH1 0x20 MUL PUSH1 0x20 ADD DUP3 ADD PUSH1 0x40 MSTORE DUP1 ISZERO PUSH2 0x2BA JUMPI DUP2 PUSH1 0x20 ADD JUMPDEST PUSH2 0x2A7 PUSH2 0xD3E JUMP JUMPDEST DUP2 MSTORE PUSH1 0x20 ADD SWAP1 PUSH1 0x1 SWAP1 SUB SWAP1 DUP2 PUSH2 0x29F JUMPI SWAP1 POP JUMPDEST POP DUP2 MSTORE PUSH1 0x20 ADD PUSH1 0x3 PUSH1 0x0 SWAP1 SLOAD SWAP1 PUSH2 0x100 EXP SWAP1 DIV PUSH20 0xFFFFFFFFFFFFFFFFFFFFFFFFFFFFFFFFFFFFFFFF AND PUSH20 0xFFFFFFFFFFFFFFFFFFFFFFFFFFFFFFFFFFFFFFFF AND DUP2 MSTORE PUSH1 0x20 ADD PUSH2 0x315 PUSH1 0x40 MLOAD DUP1 PUSH1 0x20 ADD PUSH1 0x40 MSTORE DUP1 DUP10 DUP2 MSTORE POP PUSH2 0x876 JUMP JUMPDEST DUP2 MSTORE POP SWAP1 POP PUSH1 0x0 PUSH1 0x4 PUSH1 0x0 SWAP1 SLOAD SWAP1 PUSH2 0x100 EXP SWAP1 DIV PUSH20 0xFFFFFFFFFFFFFFFFFFFFFFFFFFFFFFFFFFFFFFFF AND SWAP1 POP PUSH1 0x0 DUP2 PUSH20 0xFFFFFFFFFFFFFFFFFFFFFFFFFFFFFFFFFFFFFFFF AND PUSH4 0x20487DED DUP12 DUP6 PUSH1 0x40 MLOAD DUP4 PUSH4 0xFFFFFFFF AND PUSH1 0xE0 SHL DUP2 MSTORE PUSH1 0x4 ADD PUSH2 0x37E SWAP3 SWAP2 SWAP1 PUSH2 0x12A2 JUMP JUMPDEST PUSH1 0x20 PUSH1 0x40 MLOAD DUP1 DUP4 SUB DUP2 DUP7 GAS STATICCALL ISZERO DUP1 ISZERO PUSH2 0x39B JUMPI RETURNDATASIZE PUSH1 0x0 DUP1 RETURNDATACOPY RETURNDATASIZE PUSH1 0x0 REVERT JUMPDEST POP POP POP POP PUSH1 0x40 MLOAD RETURNDATASIZE PUSH1 0x1F NOT PUSH1 0x1F DUP3 ADD AND DUP3 ADD DUP1 PUSH1 0x40 MSTORE POP DUP2 ADD SWAP1 PUSH2 0x3BF SWAP2 SWAP1 PUSH2 0x12E7 JUMP JUMPDEST SWAP1 POP PUSH2 0x410 CALLER ADDRESS DUP4 PUSH1 0x3 PUSH1 0x0 SWAP1 SLOAD SWAP1 PUSH2 0x100 EXP SWAP1 DIV PUSH20 0xFFFFFFFFFFFFFFFFFFFFFFFFFFFFFFFFFFFFFFFF AND PUSH20 0xFFFFFFFFFFFFFFFFFFFFFFFFFFFFFFFFFFFFFFFF AND PUSH2 0x8F5 SWAP1 SWAP4 SWAP3 SWAP2 SWAP1 PUSH4 0xFFFFFFFF AND JUMP JUMPDEST PUSH1 0x3 PUSH1 0x0 SWAP1 SLOAD SWAP1 PUSH2 0x100 EXP SWAP1 DIV PUSH20 0xFFFFFFFFFFFFFFFFFFFFFFFFFFFFFFFFFFFFFFFF AND PUSH20 0xFFFFFFFFFFFFFFFFFFFFFFFFFFFFFFFFFFFFFFFF AND PUSH4 0x95EA7B3 DUP4 DUP4 PUSH1 0x40 MLOAD DUP4 PUSH4 0xFFFFFFFF AND PUSH1 0xE0 SHL DUP2 MSTORE PUSH1 0x4 ADD PUSH2 0x46D SWAP3 SWAP2 SWAP1 PUSH2 0x1314 JUMP JUMPDEST PUSH1 0x20 PUSH1 0x40 MLOAD DUP1 DUP4 SUB DUP2 PUSH1 0x0 DUP8 GAS CALL ISZERO DUP1 ISZERO PUSH2 0x48C JUMPI RETURNDATASIZE PUSH1 0x0 DUP1 RETURNDATACOPY RETURNDATASIZE PUSH1 0x0 REVERT JUMPDEST POP POP POP POP PUSH1 0x40 MLOAD RETURNDATASIZE PUSH1 0x1F NOT PUSH1 0x1F DUP3 ADD AND DUP3 ADD DUP1 PUSH1 0x40 MSTORE POP DUP2 ADD SWAP1 PUSH2 0x4B0 SWAP2 SWAP1 PUSH2 0x1352 JUMP JUMPDEST POP DUP2 PUSH20 0xFFFFFFFFFFFFFFFFFFFFFFFFFFFFFFFFFFFFFFFF AND PUSH4 0x96F4E9F9 DUP12 DUP6 PUSH1 0x40 MLOAD DUP4 PUSH4 0xFFFFFFFF AND PUSH1 0xE0 SHL DUP2 MSTORE PUSH1 0x4 ADD PUSH2 0x4EC SWAP3 SWAP2 SWAP1 PUSH2 0x12A2 JUMP JUMPDEST PUSH1 0x20 PUSH1 0x40 MLOAD DUP1 DUP4 SUB DUP2 PUSH1 0x0 DUP8 GAS CALL ISZERO DUP1 ISZERO PUSH2 0x50B JUMPI RETURNDATASIZE PUSH1 0x0 DUP1 RETURNDATACOPY RETURNDATASIZE PUSH1 0x0 REVERT JUMPDEST POP POP POP POP PUSH1 0x40 MLOAD RETURNDATASIZE PUSH1 0x1F NOT PUSH1 0x1F DUP3 ADD AND DUP3 ADD DUP1 PUSH1 0x40 MSTORE POP DUP2 ADD SWAP1 PUSH2 0x52F SWAP2 SWAP1 PUSH2 0x13AB JUMP JUMPDEST SWAP6 POP DUP10 PUSH8 0xFFFFFFFFFFFFFFFF AND DUP7 PUSH32 0xEEA8A479F07983D1364C4330C9BF3442A1CD421B79B16909BCC1867188EA676B DUP12 DUP12 PUSH1 0x3 PUSH1 0x0 SWAP1 SLOAD SWAP1 PUSH2 0x100 EXP SWAP1 DIV PUSH20 0xFFFFFFFFFFFFFFFFFFFFFFFFFFFFFFFFFFFFFFFF AND DUP7 PUSH1 0x40 MLOAD PUSH2 0x594 SWAP5 SWAP4 SWAP3 SWAP2 SWAP1 PUSH2 0x13D8 JUMP JUMPDEST PUSH1 0x40 MLOAD DUP1 SWAP2 SUB SWAP1 LOG3 POP POP POP POP POP SWAP5 SWAP4 POP POP POP POP JUMP JUMPDEST PUSH1 0x2 PUSH1 0x20 MSTORE DUP1 PUSH1 0x0 MSTORE PUSH1 0x40 PUSH1 0x0 KECCAK256 PUSH1 0x0 SWAP2 POP SLOAD SWAP1 PUSH2 0x100 EXP SWAP1 DIV PUSH1 0xFF AND DUP2 JUMP JUMPDEST PUSH1 0x1 PUSH1 0x0 SWAP1 SLOAD SWAP1 PUSH2 0x100 EXP SWAP1 DIV PUSH20 0xFFFFFFFFFFFFFFFFFFFFFFFFFFFFFFFFFFFFFFFF AND PUSH20 0xFFFFFFFFFFFFFFFFFFFFFFFFFFFFFFFFFFFFFFFF AND CALLER PUSH20 0xFFFFFFFFFFFFFFFFFFFFFFFFFFFFFFFFFFFFFFFF AND EQ PUSH2 0x659 JUMPI PUSH1 0x40 MLOAD PUSH32 0x8C379A000000000000000000000000000000000000000000000000000000000 DUP2 MSTORE PUSH1 0x4 ADD PUSH2 0x650 SWAP1 PUSH2 0x147A JUMP JUMPDEST PUSH1 0x40 MLOAD DUP1 SWAP2 SUB SWAP1 REVERT JUMPDEST PUSH1 0x0 DUP1 PUSH1 0x0 SWAP1 SLOAD SWAP1 PUSH2 0x100 EXP SWAP1 DIV PUSH20 0xFFFFFFFFFFFFFFFFFFFFFFFFFFFFFFFFFFFFFFFF AND SWAP1 POP CALLER PUSH1 0x0 DUP1 PUSH2 0x100 EXP DUP2 SLOAD DUP2 PUSH20 0xFFFFFFFFFFFFFFFFFFFFFFFFFFFFFFFFFFFFFFFF MUL NOT AND SWAP1 DUP4 PUSH20 0xFFFFFFFFFFFFFFFFFFFFFFFFFFFFFFFFFFFFFFFF AND MUL OR SWAP1 SSTORE POP PUSH1 0x0 PUSH1 0x1 PUSH1 0x0 PUSH2 0x100 EXP DUP2 SLOAD DUP2 PUSH20 0xFFFFFFFFFFFFFFFFFFFFFFFFFFFFFFFFFFFFFFFF MUL NOT AND SWAP1 DUP4 PUSH20 0xFFFFFFFFFFFFFFFFFFFFFFFFFFFFFFFFFFFFFFFF AND MUL OR SWAP1 SSTORE POP CALLER PUSH20 0xFFFFFFFFFFFFFFFFFFFFFFFFFFFFFFFFFFFFFFFF AND DUP2 PUSH20 0xFFFFFFFFFFFFFFFFFFFFFFFFFFFFFFFFFFFFFFFF AND PUSH32 0x8BE0079C531659141344CD1FD0A4F28419497F9722A3DAAFE3B4186F6B6457E0 PUSH1 0x40 MLOAD PUSH1 0x40 MLOAD DUP1 SWAP2 SUB SWAP1 LOG3 POP JUMP JUMPDEST PUSH1 0x0 DUP1 PUSH1 0x0 SWAP1 SLOAD SWAP1 PUSH2 0x100 EXP SWAP1 DIV PUSH20 0xFFFFFFFFFFFFFFFFFFFFFFFFFFFFFFFFFFFFFFFF AND SWAP1 POP SWAP1 JUMP JUMPDEST PUSH2 0x78F PUSH2 0x7E6 JUMP JUMPDEST DUP1 PUSH1 0x2 PUSH1 0x0 DUP5 PUSH8 0xFFFFFFFFFFFFFFFF AND PUSH8 0xFFFFFFFFFFFFFFFF AND DUP2 MSTORE PUSH1 0x20 ADD SWAP1 DUP2 MSTORE PUSH1 0x20 ADD PUSH1 0x0 KECCAK256 PUSH1 0x0 PUSH2 0x100 EXP DUP2 SLOAD DUP2 PUSH1 0xFF MUL NOT AND SWAP1 DUP4 ISZERO ISZERO MUL OR SWAP1 SSTORE POP POP POP JUMP JUMPDEST PUSH2 0x7DA PUSH2 0x7E6 JUMP JUMPDEST PUSH2 0x7E3 DUP2 PUSH2 0x97E JUMP JUMPDEST POP JUMP JUMPDEST PUSH1 0x0 DUP1 SLOAD SWAP1 PUSH2 0x100 EXP SWAP1 DIV PUSH20 0xFFFFFFFFFFFFFFFFFFFFFFFFFFFFFFFFFFFFFFFF AND PUSH20 0xFFFFFFFFFFFFFFFFFFFFFFFFFFFFFFFFFFFFFFFF AND CALLER PUSH20 0xFFFFFFFFFFFFFFFFFFFFFFFFFFFFFFFFFFFFFFFF AND EQ PUSH2 0x874 JUMPI PUSH1 0x40 MLOAD PUSH32 0x8C379A000000000000000000000000000000000000000000000000000000000 DUP2 MSTORE PUSH1 0x4 ADD PUSH2 0x86B SWAP1 PUSH2 0x14E6 JUMP JUMPDEST PUSH1 0x40 MLOAD DUP1 SWAP2 SUB SWAP1 REVERT JUMPDEST JUMP JUMPDEST PUSH1 0x60 PUSH4 0x97A657C9 PUSH1 0xE0 SHL DUP3 PUSH1 0x40 MLOAD PUSH1 0x24 ADD PUSH2 0x891 SWAP2 SWAP1 PUSH2 0x1522 JUMP JUMPDEST PUSH1 0x40 MLOAD PUSH1 0x20 DUP2 DUP4 SUB SUB DUP2 MSTORE SWAP1 PUSH1 0x40 MSTORE SWAP1 PUSH28 0xFFFFFFFFFFFFFFFFFFFFFFFFFFFFFFFFFFFFFFFFFFFFFFFFFFFFFFFF NOT AND PUSH1 0x20 DUP3 ADD DUP1 MLOAD PUSH28 0xFFFFFFFFFFFFFFFFFFFFFFFFFFFFFFFFFFFFFFFFFFFFFFFFFFFFFFFF DUP4 DUP2 DUP4 AND OR DUP4 MSTORE POP POP POP POP SWAP1 POP SWAP2 SWAP1 POP JUMP JUMPDEST PUSH2 0x978 DUP5 PUSH4 0x23B872DD PUSH1 0xE0 SHL DUP6 DUP6 DUP6 PUSH1 0x40 MLOAD PUSH1 0x24 ADD PUSH2 0x916 SWAP4 SWAP3 SWAP2 SWAP1 PUSH2 0x153D JUMP JUMPDEST PUSH1 0x40 MLOAD PUSH1 0x20 DUP2 DUP4 SUB SUB DUP2 MSTORE SWAP1 PUSH1 0x40 MSTORE SWAP1 PUSH28 0xFFFFFFFFFFFFFFFFFFFFFFFFFFFFFFFFFFFFFFFFFFFFFFFFFFFFFFFF NOT AND PUSH1 0x20 DUP3 ADD DUP1 MLOAD PUSH28 0xFFFFFFFFFFFFFFFFFFFFFFFFFFFFFFFFFFFFFFFFFFFFFFFFFFFFFFFF DUP4 DUP2 DUP4 AND OR DUP4 MSTORE POP POP POP POP PUSH2 0xAAA JUMP JUMPDEST POP POP POP POP JUMP JUMPDEST CALLER PUSH20 0xFFFFFFFFFFFFFFFFFFFFFFFFFFFFFFFFFFFFFFFF AND DUP2 PUSH20 0xFFFFFFFFFFFFFFFFFFFFFFFFFFFFFFFFFFFFFFFF AND SUB PUSH2 0x9EC JUMPI PUSH1 0x40 MLOAD PUSH32 0x8C379A000000000000000000000000000000000000000000000000000000000 DUP2 MSTORE PUSH1 0x4 ADD PUSH2 0x9E3 SWAP1 PUSH2 0x15C0 JUMP JUMPDEST PUSH1 0x40 MLOAD DUP1 SWAP2 SUB SWAP1 REVERT JUMPDEST DUP1 PUSH1 0x1 PUSH1 0x0 PUSH2 0x100 EXP DUP2 SLOAD DUP2 PUSH20 0xFFFFFFFFFFFFFFFFFFFFFFFFFFFFFFFFFFFFFFFF MUL NOT AND SWAP1 DUP4 PUSH20 0xFFFFFFFFFFFFFFFFFFFFFFFFFFFFFFFFFFFFFFFF AND MUL OR SWAP1 SSTORE POP DUP1 PUSH20 0xFFFFFFFFFFFFFFFFFFFFFFFFFFFFFFFFFFFFFFFF AND PUSH1 0x0 DUP1 SLOAD SWAP1 PUSH2 0x100 EXP SWAP1 DIV PUSH20 0xFFFFFFFFFFFFFFFFFFFFFFFFFFFFFFFFFFFFFFFF AND PUSH20 0xFFFFFFFFFFFFFFFFFFFFFFFFFFFFFFFFFFFFFFFF AND PUSH32 0xED8889F560326EB138920D842192F0EB3DD22B4F139C87A2C57538E05BAE1278 PUSH1 0x40 MLOAD PUSH1 0x40 MLOAD DUP1 SWAP2 SUB SWAP1 LOG3 POP JUMP JUMPDEST PUSH1 0x0 PUSH2 0xB0C DUP3 PUSH1 0x40 MLOAD DUP1 PUSH1 0x40 ADD PUSH1 0x40 MSTORE DUP1 PUSH1 0x20 DUP2 MSTORE PUSH1 0x20 ADD PUSH32 0x5361666545524332303A206C6F772D6C6576656C2063616C6C206661696C6564 DUP2 MSTORE POP DUP6 PUSH20 0xFFFFFFFFFFFFFFFFFFFFFFFFFFFFFFFFFFFFFFFF AND PUSH2 0xB71 SWAP1 SWAP3 SWAP2 SWAP1 PUSH4 0xFFFFFFFF AND JUMP JUMPDEST SWAP1 POP PUSH1 0x0 DUP2 MLOAD GT ISZERO PUSH2 0xB6C JUMPI DUP1 DUP1 PUSH1 0x20 ADD SWAP1 MLOAD DUP2 ADD SWAP1 PUSH2 0xB2C SWAP2 SWAP1 PUSH2 0x1352 JUMP JUMPDEST PUSH2 0xB6B JUMPI PUSH1 0x40 MLOAD PUSH32 0x8C379A000000000000000000000000000000000000000000000000000000000 DUP2 MSTORE PUSH1 0x4 ADD PUSH2 0xB62 SWAP1 PUSH2 0x1652 JUMP JUMPDEST PUSH1 0x40 MLOAD DUP1 SWAP2 SUB SWAP1 REVERT JUMPDEST JUMPDEST POP POP POP JUMP JUMPDEST PUSH1 0x60 PUSH2 0xB80 DUP5 DUP5 PUSH1 0x0 DUP6 PUSH2 0xB89 JUMP JUMPDEST SWAP1 POP SWAP4 SWAP3 POP POP POP JUMP JUMPDEST PUSH1 0x60 DUP3 SELFBALANCE LT ISZERO PUSH2 0xBCE JUMPI PUSH1 0x40 MLOAD PUSH32 0x8C379A000000000000000000000000000000000000000000000000000000000 DUP2 MSTORE PUSH1 0x4 ADD PUSH2 0xBC5 SWAP1 PUSH2 0x16E4 JUMP JUMPDEST PUSH1 0x40 MLOAD DUP1 SWAP2 SUB SWAP1 REVERT JUMPDEST PUSH1 0x0 DUP1 DUP7 PUSH20 0xFFFFFFFFFFFFFFFFFFFFFFFFFFFFFFFFFFFFFFFF AND DUP6 DUP8 PUSH1 0x40 MLOAD PUSH2 0xBF7 SWAP2 SWAP1 PUSH2 0x1740 JUMP JUMPDEST PUSH1 0x0 PUSH1 0x40 MLOAD DUP1 DUP4 SUB DUP2 DUP6 DUP8 GAS CALL SWAP3 POP POP POP RETURNDATASIZE DUP1 PUSH1 0x0 DUP2 EQ PUSH2 0xC34 JUMPI PUSH1 0x40 MLOAD SWAP2 POP PUSH1 0x1F NOT PUSH1 0x3F RETURNDATASIZE ADD AND DUP3 ADD PUSH1 0x40 MSTORE RETURNDATASIZE DUP3 MSTORE RETURNDATASIZE PUSH1 0x0 PUSH1 0x20 DUP5 ADD RETURNDATACOPY PUSH2 0xC39 JUMP JUMPDEST PUSH1 0x60 SWAP2 POP JUMPDEST POP SWAP2 POP SWAP2 POP PUSH2 0xC4A DUP8 DUP4 DUP4 DUP8 PUSH2 0xC56 JUMP JUMPDEST SWAP3 POP POP POP SWAP5 SWAP4 POP POP POP POP JUMP JUMPDEST PUSH1 0x60 DUP4 ISZERO PUSH2 0xCB8 JUMPI PUSH1 0x0 DUP4 MLOAD SUB PUSH2 0xCB0 JUMPI PUSH2 0xC70 DUP6 PUSH2 0xCCB JUMP JUMPDEST PUSH2 0xCAF JUMPI PUSH1 0x40 MLOAD PUSH32 0x8C379A000000000000000000000000000000000000000000000000000000000 DUP2 MSTORE PUSH1 0x4 ADD PUSH2 0xCA6 SWAP1 PUSH2 0x17A3 JUMP JUMPDEST PUSH1 0x40 MLOAD DUP1 SWAP2 SUB SWAP1 REVERT JUMPDEST JUMPDEST DUP3 SWAP1 POP PUSH2 0xCC3 JUMP JUMPDEST PUSH2 0xCC2 DUP4 DUP4 PUSH2 0xCEE JUMP JUMPDEST JUMPDEST SWAP5 SWAP4 POP POP POP POP JUMP JUMPDEST PUSH1 0x0 DUP1 DUP3 PUSH20 0xFFFFFFFFFFFFFFFFFFFFFFFFFFFFFFFFFFFFFFFF AND EXTCODESIZE GT SWAP1 POP SWAP2 SWAP1 POP JUMP JUMPDEST PUSH1 0x0 DUP3 MLOAD GT ISZERO PUSH2 0xD01 JUMPI DUP2 MLOAD DUP1 DUP4 PUSH1 0x20 ADD REVERT JUMPDEST DUP1 PUSH1 0x40 MLOAD PUSH32 0x8C379A000000000000000000000000000000000000000000000000000000000 DUP2 MSTORE PUSH1 0x4 ADD PUSH2 0xD35 SWAP2 SWAP1 PUSH2 0x1807 JUMP JUMPDEST PUSH1 0x40 MLOAD DUP1 SWAP2 SUB SWAP1 REVERT JUMPDEST PUSH1 0x40 MLOAD DUP1 PUSH1 0x40 ADD PUSH1 0x40 MSTORE DUP1 PUSH1 0x0 PUSH20 0xFFFFFFFFFFFFFFFFFFFFFFFFFFFFFFFFFFFFFFFF AND DUP2 MSTORE PUSH1 0x20 ADD PUSH1 0x0 DUP2 MSTORE POP SWAP1 JUMP JUMPDEST PUSH1 0x0 DUP1 REVERT JUMPDEST PUSH1 0x0 PUSH8 0xFFFFFFFFFFFFFFFF DUP3 AND SWAP1 POP SWAP2 SWAP1 POP JUMP JUMPDEST PUSH2 0xD90 DUP2 PUSH2 0xD73 JUMP JUMPDEST DUP2 EQ PUSH2 0xD9B JUMPI PUSH1 0x0 DUP1 REVERT JUMPDEST POP JUMP JUMPDEST PUSH1 0x0 DUP2 CALLDATALOAD SWAP1 POP PUSH2 0xDAD DUP2 PUSH2 0xD87 JUMP JUMPDEST SWAP3 SWAP2 POP POP JUMP JUMPDEST PUSH1 0x0 PUSH20 0xFFFFFFFFFFFFFFFFFFFFFFFFFFFFFFFFFFFFFFFF DUP3 AND SWAP1 POP SWAP2 SWAP1 POP JUMP JUMPDEST PUSH1 0x0 PUSH2 0xDDE DUP3 PUSH2 0xDB3 JUMP JUMPDEST SWAP1 POP SWAP2 SWAP1 POP JUMP JUMPDEST PUSH2 0xDEE DUP2 PUSH2 0xDD3 JUMP JUMPDEST DUP2 EQ PUSH2 0xDF9 JUMPI PUSH1 0x0 DUP1 REVERT JUMPDEST POP JUMP JUMPDEST PUSH1 0x0 DUP2 CALLDATALOAD SWAP1 POP PUSH2 0xE0B DUP2 PUSH2 0xDE5 JUMP JUMPDEST SWAP3 SWAP2 POP POP JUMP JUMPDEST PUSH1 0x0 DUP2 SWAP1 POP SWAP2 SWAP1 POP JUMP JUMPDEST PUSH2 0xE24 DUP2 PUSH2 0xE11 JUMP JUMPDEST DUP2 EQ PUSH2 0xE2F JUMPI PUSH1 0x0 DUP1 REVERT JUMPDEST POP JUMP JUMPDEST PUSH1 0x0 DUP2 CALLDATALOAD SWAP1 POP PUSH2 0xE41 DUP2 PUSH2 0xE1B JUMP JUMPDEST SWAP3 SWAP2 POP POP JUMP JUMPDEST PUSH1 0x0 DUP1 PUSH1 0x0 DUP1 PUSH1 0x80 DUP6 DUP8 SUB SLT ISZERO PUSH2 0xE61 JUMPI PUSH2 0xE60 PUSH2 0xD6E JUMP JUMPDEST JUMPDEST PUSH1 0x0 PUSH2 0xE6F DUP8 DUP3 DUP9 ADD PUSH2 0xD9E JUMP JUMPDEST SWAP5 POP POP PUSH1 0x20 PUSH2 0xE80 DUP8 DUP3 DUP9 ADD PUSH2 0xDFC JUMP JUMPDEST SWAP4 POP POP PUSH1 0x40 PUSH2 0xE91 DUP8 DUP3 DUP9 ADD PUSH2 0xE32 JUMP JUMPDEST SWAP3 POP POP PUSH1 0x60 PUSH2 0xEA2 DUP8 DUP3 DUP9 ADD PUSH2 0xE32 JUMP JUMPDEST SWAP2 POP POP SWAP3 SWAP6 SWAP2 SWAP5 POP SWAP3 POP JUMP JUMPDEST PUSH1 0x0 DUP2 SWAP1 POP SWAP2 SWAP1 POP JUMP JUMPDEST PUSH2 0xEC1 DUP2 PUSH2 0xEAE JUMP JUMPDEST DUP3 MSTORE POP POP JUMP JUMPDEST PUSH1 0x0 PUSH1 0x20 DUP3 ADD SWAP1 POP PUSH2 0xEDC PUSH1 0x0 DUP4 ADD DUP5 PUSH2 0xEB8 JUMP JUMPDEST SWAP3 SWAP2 POP POP JUMP JUMPDEST PUSH1 0x0 PUSH1 0x20 DUP3 DUP5 SUB SLT ISZERO PUSH2 0xEF8 JUMPI PUSH2 0xEF7 PUSH2 0xD6E JUMP JUMPDEST JUMPDEST PUSH1 0x0 PUSH2 0xF06 DUP5 DUP3 DUP6 ADD PUSH2 0xD9E JUMP JUMPDEST SWAP2 POP POP SWAP3 SWAP2 POP POP JUMP JUMPDEST PUSH1 0x0 DUP2 ISZERO ISZERO SWAP1 POP SWAP2 SWAP1 POP JUMP JUMPDEST PUSH2 0xF24 DUP2 PUSH2 0xF0F JUMP JUMPDEST DUP3 MSTORE POP POP JUMP JUMPDEST PUSH1 0x0 PUSH1 0x20 DUP3 ADD SWAP1 POP PUSH2 0xF3F PUSH1 0x0 DUP4 ADD DUP5 PUSH2 0xF1B JUMP JUMPDEST SWAP3 SWAP2 POP POP JUMP JUMPDEST PUSH2 0xF4E DUP2 PUSH2 0xDD3 JUMP JUMPDEST DUP3 MSTORE POP POP JUMP JUMPDEST PUSH1 0x0 PUSH1 0x20 DUP3 ADD SWAP1 POP PUSH2 0xF69 PUSH1 0x0 DUP4 ADD DUP5 PUSH2 0xF45 JUMP JUMPDEST SWAP3 SWAP2 POP POP JUMP JUMPDEST PUSH2 0xF78 DUP2 PUSH2 0xF0F JUMP JUMPDEST DUP2 EQ PUSH2 0xF83 JUMPI PUSH1 0x0 DUP1 REVERT JUMPDEST POP JUMP JUMPDEST PUSH1 0x0 DUP2 CALLDATALOAD SWAP1 POP PUSH2 0xF95 DUP2 PUSH2 0xF6F JUMP JUMPDEST SWAP3 SWAP2 POP POP JUMP JUMPDEST PUSH1 0x0 DUP1 PUSH1 0x40 DUP4 DUP6 SUB SLT ISZERO PUSH2 0xFB2 JUMPI PUSH2 0xFB1 PUSH2 0xD6E JUMP JUMPDEST JUMPDEST PUSH1 0x0 PUSH2 0xFC0 DUP6 DUP3 DUP7 ADD PUSH2 0xD9E JUMP JUMPDEST SWAP3 POP POP PUSH1 0x20 PUSH2 0xFD1 DUP6 DUP3 DUP7 ADD PUSH2 0xF86 JUMP JUMPDEST SWAP2 POP POP SWAP3 POP SWAP3 SWAP1 POP JUMP JUMPDEST PUSH1 0x0 PUSH1 0x20 DUP3 DUP5 SUB SLT ISZERO PUSH2 0xFF1 JUMPI PUSH2 0xFF0 PUSH2 0xD6E JUMP JUMPDEST JUMPDEST PUSH1 0x0 PUSH2 0xFFF DUP5 DUP3 DUP6 ADD PUSH2 0xDFC JUMP JUMPDEST SWAP2 POP POP SWAP3 SWAP2 POP POP JUMP JUMPDEST PUSH2 0x1011 DUP2 PUSH2 0xD73 JUMP JUMPDEST DUP3 MSTORE POP POP JUMP JUMPDEST PUSH1 0x0 PUSH1 0x20 DUP3 ADD SWAP1 POP PUSH2 0x102C PUSH1 0x0 DUP4 ADD DUP5 PUSH2 0x1008 JUMP JUMPDEST SWAP3 SWAP2 POP POP JUMP JUMPDEST PUSH2 0x103B DUP2 PUSH2 0xE11 JUMP JUMPDEST DUP3 MSTORE POP POP JUMP JUMPDEST PUSH1 0x0 PUSH1 0x20 DUP3 ADD SWAP1 POP PUSH2 0x1056 PUSH1 0x0 DUP4 ADD DUP5 PUSH2 0x1032 JUMP JUMPDEST SWAP3 SWAP2 POP POP JUMP JUMPDEST PUSH32 0x4E487B7100000000000000000000000000000000000000000000000000000000 PUSH1 0x0 MSTORE PUSH1 0x41 PUSH1 0x4 MSTORE PUSH1 0x24 PUSH1 0x0 REVERT JUMPDEST PUSH1 0x0 DUP2 MLOAD SWAP1 POP SWAP2 SWAP1 POP JUMP JUMPDEST PUSH1 0x0 DUP3 DUP3 MSTORE PUSH1 0x20 DUP3 ADD SWAP1 POP SWAP3 SWAP2 POP POP JUMP JUMPDEST PUSH1 0x0 JUMPDEST DUP4 DUP2 LT ISZERO PUSH2 0x10C5 JUMPI DUP1 DUP3 ADD MLOAD DUP2 DUP5 ADD MSTORE PUSH1 0x20 DUP2 ADD SWAP1 POP PUSH2 0x10AA JUMP JUMPDEST PUSH1 0x0 DUP5 DUP5 ADD MSTORE POP POP POP POP JUMP JUMPDEST PUSH1 0x0 PUSH1 0x1F NOT PUSH1 0x1F DUP4 ADD AND SWAP1 POP SWAP2 SWAP1 POP JUMP JUMPDEST PUSH1 0x0 PUSH2 0x10ED DUP3 PUSH2 0x108B JUMP JUMPDEST PUSH2 0x10F7 DUP2 DUP6 PUSH2 0x1096 JUMP JUMPDEST SWAP4 POP PUSH2 0x1107 DUP2 DUP6 PUSH1 0x20 DUP7 ADD PUSH2 0x10A7 JUMP JUMPDEST PUSH2 0x1110 DUP2 PUSH2 0x10D1 JUMP JUMPDEST DUP5 ADD SWAP2 POP POP SWAP3 SWAP2 POP POP JUMP JUMPDEST PUSH1 0x0 DUP2 MLOAD SWAP1 POP SWAP2 SWAP1 POP JUMP JUMPDEST PUSH1 0x0 DUP3 DUP3 MSTORE PUSH1 0x20 DUP3 ADD SWAP1 POP SWAP3 SWAP2 POP POP JUMP JUMPDEST PUSH1 0x0 DUP2 SWAP1 POP PUSH1 0x20 DUP3 ADD SWAP1 POP SWAP2 SWAP1 POP JUMP JUMPDEST PUSH2 0x1150 DUP2 PUSH2 0xDD3 JUMP JUMPDEST DUP3 MSTORE POP POP JUMP JUMPDEST PUSH2 0x115F DUP2 PUSH2 0xE11 JUMP JUMPDEST DUP3 MSTORE POP POP JUMP JUMPDEST PUSH1 0x40 DUP3 ADD PUSH1 0x0 DUP3 ADD MLOAD PUSH2 0x117B PUSH1 0x0 DUP6 ADD DUP3 PUSH2 0x1147 JUMP JUMPDEST POP PUSH1 0x20 DUP3 ADD MLOAD PUSH2 0x118E PUSH1 0x20 DUP6 ADD DUP3 PUSH2 0x1156 JUMP JUMPDEST POP POP POP POP JUMP JUMPDEST PUSH1 0x0 PUSH2 0x11A0 DUP4 DUP4 PUSH2 0x1165 JUMP JUMPDEST PUSH1 0x40 DUP4 ADD SWAP1 POP SWAP3 SWAP2 POP POP JUMP JUMPDEST PUSH1 0x0 PUSH1 0x20 DUP3 ADD SWAP1 POP SWAP2 SWAP1 POP JUMP JUMPDEST PUSH1 0x0 PUSH2 0x11C4 DUP3 PUSH2 0x111B JUMP JUMPDEST PUSH2 0x11CE DUP2 DUP6 PUSH2 0x1126 JUMP JUMPDEST SWAP4 POP PUSH2 0x11D9 DUP4 PUSH2 0x1137 JUMP JUMPDEST DUP1 PUSH1 0x0 JUMPDEST DUP4 DUP2 LT ISZERO PUSH2 0x120A JUMPI DUP2 MLOAD PUSH2 0x11F1 DUP9 DUP3 PUSH2 0x1194 JUMP JUMPDEST SWAP8 POP PUSH2 0x11FC DUP4 PUSH2 0x11AC JUMP JUMPDEST SWAP3 POP POP PUSH1 0x1 DUP2 ADD SWAP1 POP PUSH2 0x11DD JUMP JUMPDEST POP DUP6 SWAP4 POP POP POP POP SWAP3 SWAP2 POP POP JUMP JUMPDEST PUSH1 0x0 PUSH1 0xA0 DUP4 ADD PUSH1 0x0 DUP4 ADD MLOAD DUP5 DUP3 SUB PUSH1 0x0 DUP7 ADD MSTORE PUSH2 0x1234 DUP3 DUP3 PUSH2 0x10E2 JUMP JUMPDEST SWAP2 POP POP PUSH1 0x20 DUP4 ADD MLOAD DUP5 DUP3 SUB PUSH1 0x20 DUP7 ADD MSTORE PUSH2 0x124E DUP3 DUP3 PUSH2 0x10E2 JUMP JUMPDEST SWAP2 POP POP PUSH1 0x40 DUP4 ADD MLOAD DUP5 DUP3 SUB PUSH1 0x40 DUP7 ADD MSTORE PUSH2 0x1268 DUP3 DUP3 PUSH2 0x11B9 JUMP JUMPDEST SWAP2 POP POP PUSH1 0x60 DUP4 ADD MLOAD PUSH2 0x127D PUSH1 0x60 DUP7 ADD DUP3 PUSH2 0x1147 JUMP JUMPDEST POP PUSH1 0x80 DUP4 ADD MLOAD DUP5 DUP3 SUB PUSH1 0x80 DUP7 ADD MSTORE PUSH2 0x1295 DUP3 DUP3 PUSH2 0x10E2 JUMP JUMPDEST SWAP2 POP POP DUP1 SWAP2 POP POP SWAP3 SWAP2 POP POP JUMP JUMPDEST PUSH1 0x0 PUSH1 0x40 DUP3 ADD SWAP1 POP PUSH2 0x12B7 PUSH1 0x0 DUP4 ADD DUP6 PUSH2 0x1008 JUMP JUMPDEST DUP2 DUP2 SUB PUSH1 0x20 DUP4 ADD MSTORE PUSH2 0x12C9 DUP2 DUP5 PUSH2 0x1217 JUMP JUMPDEST SWAP1 POP SWAP4 SWAP3 POP POP POP JUMP JUMPDEST PUSH1 0x0 DUP2 MLOAD SWAP1 POP PUSH2 0x12E1 DUP2 PUSH2 0xE1B JUMP JUMPDEST SWAP3 SWAP2 POP POP JUMP JUMPDEST PUSH1 0x0 PUSH1 0x20 DUP3 DUP5 SUB SLT ISZERO PUSH2 0x12FD JUMPI PUSH2 0x12FC PUSH2 0xD6E JUMP JUMPDEST JUMPDEST PUSH1 0x0 PUSH2 0x130B DUP5 DUP3 DUP6 ADD PUSH2 0x12D2 JUMP JUMPDEST SWAP2 POP POP SWAP3 SWAP2 POP POP JUMP JUMPDEST PUSH1 0x0 PUSH1 0x40 DUP3 ADD SWAP1 POP PUSH2 0x1329 PUSH1 0x0 DUP4 ADD DUP6 PUSH2 0xF45 JUMP JUMPDEST PUSH2 0x1336 PUSH1 0x20 DUP4 ADD DUP5 PUSH2 0x1032 JUMP JUMPDEST SWAP4 SWAP3 POP POP POP JUMP JUMPDEST PUSH1 0x0 DUP2 MLOAD SWAP1 POP PUSH2 0x134C DUP2 PUSH2 0xF6F JUMP JUMPDEST SWAP3 SWAP2 POP POP JUMP JUMPDEST PUSH1 0x0 PUSH1 0x20 DUP3 DUP5 SUB SLT ISZERO PUSH2 0x1368 JUMPI PUSH2 0x1367 PUSH2 0xD6E JUMP JUMPDEST JUMPDEST PUSH1 0x0 PUSH2 0x1376 DUP5 DUP3 DUP6 ADD PUSH2 0x133D JUMP JUMPDEST SWAP2 POP POP SWAP3 SWAP2 POP POP JUMP JUMPDEST PUSH2 0x1388 DUP2 PUSH2 0xEAE JUMP JUMPDEST DUP2 EQ PUSH2 0x1393 JUMPI PUSH1 0x0 DUP1 REVERT JUMPDEST POP JUMP JUMPDEST PUSH1 0x0 DUP2 MLOAD SWAP1 POP PUSH2 0x13A5 DUP2 PUSH2 0x137F JUMP JUMPDEST SWAP3 SWAP2 POP POP JUMP JUMPDEST PUSH1 0x0 PUSH1 0x20 DUP3 DUP5 SUB SLT ISZERO PUSH2 0x13C1 JUMPI PUSH2 0x13C0 PUSH2 0xD6E JUMP JUMPDEST JUMPDEST PUSH1 0x0 PUSH2 0x13CF DUP5 DUP3 DUP6 ADD PUSH2 0x1396 JUMP JUMPDEST SWAP2 POP POP SWAP3 SWAP2 POP POP JUMP JUMPDEST PUSH1 0x0 PUSH1 0x80 DUP3 ADD SWAP1 POP PUSH2 0x13ED PUSH1 0x0 DUP4 ADD DUP8 PUSH2 0xF45 JUMP JUMPDEST PUSH2 0x13FA PUSH1 0x20 DUP4 ADD DUP7 PUSH2 0x1032 JUMP JUMPDEST PUSH2 0x1407 PUSH1 0x40 DUP4 ADD DUP6 PUSH2 0xF45 JUMP JUMPDEST PUSH2 0x1414 PUSH1 0x60 DUP4 ADD DUP5 PUSH2 0x1032 JUMP JUMPDEST SWAP6 SWAP5 POP POP POP POP POP JUMP JUMPDEST PUSH1 0x0 DUP3 DUP3 MSTORE PUSH1 0x20 DUP3 ADD SWAP1 POP SWAP3 SWAP2 POP POP JUMP JUMPDEST PUSH32 0x4D7573742062652070726F706F736564206F776E657200000000000000000000 PUSH1 0x0 DUP3 ADD MSTORE POP JUMP JUMPDEST PUSH1 0x0 PUSH2 0x1464 PUSH1 0x16 DUP4 PUSH2 0x141D JUMP JUMPDEST SWAP2 POP PUSH2 0x146F DUP3 PUSH2 0x142E JUMP JUMPDEST PUSH1 0x20 DUP3 ADD SWAP1 POP SWAP2 SWAP1 POP JUMP JUMPDEST PUSH1 0x0 PUSH1 0x20 DUP3 ADD SWAP1 POP DUP2 DUP2 SUB PUSH1 0x0 DUP4 ADD MSTORE PUSH2 0x1493 DUP2 PUSH2 0x1457 JUMP JUMPDEST SWAP1 POP SWAP2 SWAP1 POP JUMP JUMPDEST PUSH32 0x4F6E6C792063616C6C61626C65206279206F776E657200000000000000000000 PUSH1 0x0 DUP3 ADD MSTORE POP JUMP JUMPDEST PUSH1 0x0 PUSH2 0x14D0 PUSH1 0x16 DUP4 PUSH2 0x141D JUMP JUMPDEST SWAP2 POP PUSH2 0x14DB DUP3 PUSH2 0x149A JUMP JUMPDEST PUSH1 0x20 DUP3 ADD SWAP1 POP SWAP2 SWAP1 POP JUMP JUMPDEST PUSH1 0x0 PUSH1 0x20 DUP3 ADD SWAP1 POP DUP2 DUP2 SUB PUSH1 0x0 DUP4 ADD MSTORE PUSH2 0x14FF DUP2 PUSH2 0x14C3 JUMP JUMPDEST SWAP1 POP SWAP2 SWAP1 POP JUMP JUMPDEST PUSH1 0x20 DUP3 ADD PUSH1 0x0 DUP3 ADD MLOAD PUSH2 0x151C PUSH1 0x0 DUP6 ADD DUP3 PUSH2 0x1156 JUMP JUMPDEST POP POP POP POP JUMP JUMPDEST PUSH1 0x0 PUSH1 0x20 DUP3 ADD SWAP1 POP PUSH2 0x1537 PUSH1 0x0 DUP4 ADD DUP5 PUSH2 0x1506 JUMP JUMPDEST SWAP3 SWAP2 POP POP JUMP JUMPDEST PUSH1 0x0 PUSH1 0x60 DUP3 ADD SWAP1 POP PUSH2 0x1552 PUSH1 0x0 DUP4 ADD DUP7 PUSH2 0xF45 JUMP JUMPDEST PUSH2 0x155F PUSH1 0x20 DUP4 ADD DUP6 PUSH2 0xF45 JUMP JUMPDEST PUSH2 0x156C PUSH1 0x40 DUP4 ADD DUP5 PUSH2 0x1032 JUMP JUMPDEST SWAP5 SWAP4 POP POP POP POP JUMP JUMPDEST PUSH32 0x43616E6E6F74207472616E7366657220746F2073656C66000000000000000000 PUSH1 0x0 DUP3 ADD MSTORE POP JUMP JUMPDEST PUSH1 0x0 PUSH2 0x15AA PUSH1 0x17 DUP4 PUSH2 0x141D JUMP JUMPDEST SWAP2 POP PUSH2 0x15B5 DUP3 PUSH2 0x1574 JUMP JUMPDEST PUSH1 0x20 DUP3 ADD SWAP1 POP SWAP2 SWAP1 POP JUMP JUMPDEST PUSH1 0x0 PUSH1 0x20 DUP3 ADD SWAP1 POP DUP2 DUP2 SUB PUSH1 0x0 DUP4 ADD MSTORE PUSH2 0x15D9 DUP2 PUSH2 0x159D JUMP JUMPDEST SWAP1 POP SWAP2 SWAP1 POP JUMP JUMPDEST PUSH32 0x5361666545524332303A204552433230206F7065726174696F6E20646964206E PUSH1 0x0 DUP3 ADD MSTORE PUSH32 0x6F74207375636365656400000000000000000000000000000000000000000000 PUSH1 0x20 DUP3 ADD MSTORE POP JUMP JUMPDEST PUSH1 0x0 PUSH2 0x163C PUSH1 0x2A DUP4 PUSH2 0x141D JUMP JUMPDEST SWAP2 POP PUSH2 0x1647 DUP3 PUSH2 0x15E0 JUMP JUMPDEST PUSH1 0x40 DUP3 ADD SWAP1 POP SWAP2 SWAP1 POP JUMP JUMPDEST PUSH1 0x0 PUSH1 0x20 DUP3 ADD SWAP1 POP DUP2 DUP2 SUB PUSH1 0x0 DUP4 ADD MSTORE PUSH2 0x166B DUP2 PUSH2 0x162F JUMP JUMPDEST SWAP1 POP SWAP2 SWAP1 POP JUMP JUMPDEST PUSH32 0x416464726573733A20696E73756666696369656E742062616C616E636520666F PUSH1 0x0 DUP3 ADD MSTORE PUSH32 0x722063616C6C0000000000000000000000000000000000000000000000000000 PUSH1 0x20 DUP3 ADD MSTORE POP JUMP JUMPDEST PUSH1 0x0 PUSH2 0x16CE PUSH1 0x26 DUP4 PUSH2 0x141D JUMP JUMPDEST SWAP2 POP PUSH2 0x16D9 DUP3 PUSH2 0x1672 JUMP JUMPDEST PUSH1 0x40 DUP3 ADD SWAP1 POP SWAP2 SWAP1 POP JUMP JUMPDEST PUSH1 0x0 PUSH1 0x20 DUP3 ADD SWAP1 POP DUP2 DUP2 SUB PUSH1 0x0 DUP4 ADD MSTORE PUSH2 0x16FD DUP2 PUSH2 0x16C1 JUMP JUMPDEST SWAP1 POP SWAP2 SWAP1 POP JUMP JUMPDEST PUSH1 0x0 DUP2 SWAP1 POP SWAP3 SWAP2 POP POP JUMP JUMPDEST PUSH1 0x0 PUSH2 0x171A DUP3 PUSH2 0x108B JUMP JUMPDEST PUSH2 0x1724 DUP2 DUP6 PUSH2 0x1704 JUMP JUMPDEST SWAP4 POP PUSH2 0x1734 DUP2 DUP6 PUSH1 0x20 DUP7 ADD PUSH2 0x10A7 JUMP JUMPDEST DUP1 DUP5 ADD SWAP2 POP POP SWAP3 SWAP2 POP POP JUMP JUMPDEST PUSH1 0x0 PUSH2 0x174C DUP3 DUP5 PUSH2 0x170F JUMP JUMPDEST SWAP2 POP DUP2 SWAP1 POP SWAP3 SWAP2 POP POP JUMP JUMPDEST PUSH32 0x416464726573733A2063616C6C20746F206E6F6E2D636F6E7472616374000000 PUSH1 0x0 DUP3 ADD MSTORE POP JUMP JUMPDEST PUSH1 0x0 PUSH2 0x178D PUSH1 0x1D DUP4 PUSH2 0x141D JUMP JUMPDEST SWAP2 POP PUSH2 0x1798 DUP3 PUSH2 0x1757 JUMP JUMPDEST PUSH1 0x20 DUP3 ADD SWAP1 POP SWAP2 SWAP1 POP JUMP JUMPDEST PUSH1 0x0 PUSH1 0x20 DUP3 ADD SWAP1 POP DUP2 DUP2 SUB PUSH1 0x0 DUP4 ADD MSTORE PUSH2 0x17BC DUP2 PUSH2 0x1780 JUMP JUMPDEST SWAP1 POP SWAP2 SWAP1 POP JUMP JUMPDEST PUSH1 0x0 DUP2 MLOAD SWAP1 POP SWAP2 SWAP1 POP JUMP JUMPDEST PUSH1 0x0 PUSH2 0x17D9 DUP3 PUSH2 0x17C3 JUMP JUMPDEST PUSH2 0x17E3 DUP2 DUP6 PUSH2 0x141D JUMP JUMPDEST SWAP4 POP PUSH2 0x17F3 DUP2 DUP6 PUSH1 0x20 DUP7 ADD PUSH2 0x10A7 JUMP JUMPDEST PUSH2 0x17FC DUP2 PUSH2 0x10D1 JUMP JUMPDEST DUP5 ADD SWAP2 POP POP SWAP3 SWAP2 POP POP JUMP JUMPDEST PUSH1 0x0 PUSH1 0x20 DUP3 ADD SWAP1 POP DUP2 DUP2 SUB PUSH1 0x0 DUP4 ADD MSTORE PUSH2 0x1821 DUP2 DUP5 PUSH2 0x17CE JUMP JUMPDEST SWAP1 POP SWAP3 SWAP2 POP POP JUMP INVALID LOG2 PUSH5 0x6970667358 0x22 SLT KECCAK256 SIGNEXTEND SLT 0xE7 0x5F PREVRANDAO 0x2B PUSH11 0x89621E90D83C0C6DB524C2 JUMP 0x4F 0xEE 0xE CALLCODE PUSH15 0x5C1E51EFDAFD0EF264736F6C634300 ADDMOD SGT STOP CALLER "
				},
				"gasEstimates": {
					"creation": {
						"codeDepositCost": "1247800",
						"executionCost": "infinite",
						"totalCost": "infinite"
					},
					"external": {
						"acceptOwnership()": "54562",
						"allowlistDestinationChain(uint64,bool)": "27205",
						"allowlistedDestinationChains(uint64)": "2802",
						"owner()": "2566",
						"sendMessagePayLINK(uint64,address,uint256,uint256)": "infinite",
						"transferOwnership(address)": "30742"
					}
				},
				"methodIdentifiers": {
					"acceptOwnership()": "79ba5097",
					"allowlistDestinationChain(uint64,bool)": "96d3b83d",
					"allowlistedDestinationChains(uint64)": "75c67c66",
					"owner()": "8da5cb5b",
					"sendMessagePayLINK(uint64,address,uint256,uint256)": "7361d661",
					"transferOwnership(address)": "f2fde38b"
				}
			},
			"storageLayout": {
				"storage": [
					{
						"astId": 136,
						"contract": "send receive/sender.sol:Sender",
						"label": "s_owner",
						"offset": 0,
						"slot": "0",
						"type": "t_address"
					},
					{
						"astId": 138,
						"contract": "send receive/sender.sol:Sender",
						"label": "s_pendingOwner",
						"offset": 0,
						"slot": "1",
						"type": "t_address"
					},
					{
						"astId": 1090,
						"contract": "send receive/sender.sol:Sender",
						"label": "allowlistedDestinationChains",
						"offset": 0,
						"slot": "2",
						"type": "t_mapping(t_uint64,t_bool)"
					},
					{
						"astId": 1093,
						"contract": "send receive/sender.sol:Sender",
						"label": "s_linkToken",
						"offset": 0,
						"slot": "3",
						"type": "t_contract(IERC20)400"
					},
					{
						"astId": 1095,
						"contract": "send receive/sender.sol:Sender",
						"label": "s_router",
						"offset": 0,
						"slot": "4",
						"type": "t_address"
					}
				],
				"types": {
					"t_address": {
						"encoding": "inplace",
						"label": "address",
						"numberOfBytes": "20"
					},
					"t_bool": {
						"encoding": "inplace",
						"label": "bool",
						"numberOfBytes": "1"
					},
					"t_contract(IERC20)400": {
						"encoding": "inplace",
						"label": "contract IERC20",
						"numberOfBytes": "20"
					},
					"t_mapping(t_uint64,t_bool)": {
						"encoding": "mapping",
						"key": "t_uint64",
						"label": "mapping(uint64 => bool)",
						"numberOfBytes": "32",
						"value": "t_bool"
					},
					"t_uint64": {
						"encoding": "inplace",
						"label": "uint64",
						"numberOfBytes": "8"
					}
				}
			},
			"userdoc": {
				"kind": "user",
				"methods": {
					"acceptOwnership()": {
						"notice": "Allows an ownership transfer to be completed by the recipient."
					},
					"constructor": {
						"notice": "Constructor initializes the contract with the router address."
					},
					"owner()": {
						"notice": "Get the current owner"
					},
					"sendMessagePayLINK(uint64,address,uint256,uint256)": {
						"notice": "Sends data to receiver on the destination chain.Pay for fees in LINK."
					},
					"transferOwnership(address)": {
						"notice": "Allows an owner to begin transferring ownership to a new address."
					}
				},
				"version": 1
			}
		}
	}
}